:100000000C9462000C9484100C945D100C948A0083
:100010000C948A000C948A000C948A000C948A0038
:100020000C948A000C948A000C948A000C948A0028
:100030000C948A000C948A000C948A000C948A0018
:100040000C9413100C948A000C94D1100C94AB10E7
:100050000C948A000C948A000C948A000C948A00F8
:100060000C948A000C948A000000000024002700F1
:100070002A0000000000250028002B0000000000DE
:1000800023002600290004040404040404040202DA
:100090000202020203030303030301020408102007
:1000A0004080010204081020010204081020000012
:1000B0000008000201000003040700000000000027
:1000C0000000031111241FBECFEFD8E0DEBFCDBF6B
:1000D00013E0A0E0B1E0EAEAF7E302C005900D9278
:1000E000A43BB107D9F727E0A4EBB3E001C01D9210
:1000F000A83DB207E1F710E0C2E6D0E004C02197C6
:10010000FE010E945E17C136D107C9F70E94751221
:100110000C94D31B0C940000EAE3F7E030E020E0FD
:1001200041915191452B91F4F901EE0FFF1FE65CCF
:10013000F84F9183808323583F4FFC0135832483FC
:1001400022EF34E03783268381E008952F5F3F4F0D
:100150002931310529F780E00895833081F028F4B2
:10016000813099F08230A9F008958730A9F0883065
:10017000C9F08430B1F4809180008F7D03C08091FC
:1001800080008F7780938000089584B58F7784BD39
:10019000089584B58F7DFBCF8091B0008F778093D9
:1001A000B00008958091B0008F7DF9CFCF93DF9399
:1001B000282F30E0F901E255FF4F8491F901E6560E
:1001C000FF4FD491F901EA57FF4FC491CC23A1F01E
:1001D00081110E94AD00EC2FF0E0EE0FFF1FE458FC
:1001E000FF4FA591B491EC91ED2381E090E009F4EB
:1001F00080E0DF91CF91089580E090E0FACF1F93E7
:10020000CF93DF93282F30E0F901E255FF4F84911F
:10021000F901E656FF4FD491F901EA57FF4FC49117
:10022000CC23A9F0162F81110E94AD00EC2FF0E035
:10023000EE0FFF1FEE58FF4FA591B4918FB7F894C2
:10024000EC91111108C0D095DE23DC938FBFDF91B4
:10025000CF911F910895DE2BF8CFCF93DF9390E0DD
:10026000FC01E656FF4F24918A579F4FFC01849171
:100270008823C9F090E0880F991FFC01E859FF4FCF
:10028000A591B491FC01EE58FF4FC591D491611135
:100290000DC09FB7F8948C91209582238C93888110
:1002A000282328839FBFDF91CF910895623051F4B6
:1002B0009FB7F8943C91822F809583238C93E8819B
:1002C0002E2BEFCF8FB7F894EC912E2B2C938FBF62
:1002D000EACF1F93CF93DF93182FEB0161E00E94C9
:1002E0002D01209739F460E0812FDF91CF911F918C
:1002F0000C94FF00CF3FD10511F461E0F5CFE12F61
:10030000F0E0E255FF4FE491E33031F140F4E130A9
:10031000B1F0E230E1F0C038D1057CF7E4CFE7304E
:1003200029F1E83059F1E430B1F780918000806222
:1003300080938000D0938B00C0938A0004C084B562
:10034000806884BDC7BDDF91CF911F91089584B5AA
:10035000806284BDC8BDF7CF8091800080688093A3
:100360008000D0938900C0938800EDCF8091B000C9
:1003700080688093B000C093B300E5CF8091B00057
:1003800080628093B000C093B400DDCF2FB7F894A3
:100390006091ED037091EE038091EF039091F00373
:1003A0002FBF08954F925F926F927F928F929F928C
:1003B000AF92BF92CF92DF92EF92FF92CF93DF93F3
:1003C000EC010E94C60128EE33E040E050E00E94BC
:1003D000FE16CA01B9010E948D186093E003709364
:1003E000E1038093E2039093E30320E030E04BE8E5
:1003F00053E46C817D818E819F810E94441920E0AD
:1004000030E040E552E40E9474176B017C01C09219
:10041000DC03D092DD03E092DE03F092DF03C092B2
:10042000D803D092D903E092DA03F092DB038A8CEE
:100430009B8CAC8CBD8C20E030E0A901C501B401DF
:100440000E94E017882309F457C020E030E0A9019A
:10045000C501B4010E943F191816ECF580E090E048
:10046000A0EAB2EC8093DC039093DD03A093DE035B
:10047000B093DF0380E090E0A0EAB2E48093D80379
:100480009093D903A093DA03B093DB03C090DC030D
:10049000D090DD03E090DE03F090DF0320E030E059
:1004A000A901C701B6010E943F1918160CF093C0AC
:1004B00020E030E040E752E4C701B6010E94E017B7
:1004C00087FF94C01092DC031092DD031092DE03CC
:1004D0001092DF038BC080E090E0A0EAB2E480934A
:1004E000DC039093DD03A093DE03B093DF0380E091
:1004F00090E0A0EAB2ECC2CF2091CE033091CF03BE
:100500004091D0035091D1036091D4037091D503F1
:100510008091D6039091D7030E9473174B015C0121
:100520004090B8035090B9036090BA037090BB0339
:100530002091B4033091B5034091B6035091B703B5
:10054000C301B2010E947417A50194010E9474179F
:1005500020E030E040E450E40E94E5174092B4030C
:100560005092B5036092B6037092B7038092B803BD
:100570009092B903A092BA03B092BB0320E030E09E
:1005800040EF52E40E9444190E945718072E000CB5
:10059000880B990B0E948F184B015C01AC019B01E9
:1005A000C701B6010E9473176093DC037093DD03EB
:1005B0008093DE039093DF03A5019401C701B60188
:1005C0000E9474176093D8037093D9038093DA0361
:1005D0009093DB035BCF20E030E040E752ECC701B3
:1005E000B6010E943F1918160CF46CCFC090D803C6
:1005F000D090D903E090DA03F090DB0320E030E004
:10060000A901C701B6010E943F1918169CF420E009
:1006100030E040E752E4C701B6010E94E01787FFCF
:1006200013C01092D8031092D9031092DA031092DB
:10063000DB030AC020E030E040E752ECC701B6011E
:100640000E943F1918166CF3DF91CF91FF90EF9045
:10065000DF90CF90BF90AF909F908F907F906F90E2
:100660005F904F9008950895AF92BF92CF92DF921E
:10067000EF92FF920F931F93CF93DF936C017B0157
:100680008B01040F151FEB015E01AE18BF08C017E8
:10069000D10759F06991D601ED91FC910190F0815B
:1006A000E02DC6010995892B79F7C501DF91CF911E
:1006B0001F910F91FF90EF90DF90CF90BF90AF9080
:1006C0000895FC01538D448D252F30E0842F90E058
:1006D000821B930B541710F0CF960895019708953D
:1006E000FC01918D828D981761F0A28DAE0FBF2F06
:1006F000B11D5D968C91928D9F5F9F73928F90E05C
:1007000008958FEF9FEF0895FC01918D828D9817CA
:1007100031F0828DE80FF11D858D90E008958FEF07
:100720009FEF0895FC01918D228D892F90E0805CD0
:100730009F4F821B91098F739927089581EF93E052
:100740000E94920321E0892B09F420E0822F089572
:1007500080E090E0892B29F00E949E0381110C9487
:1007600000000895FC01A48DA80FB92FB11DA35A54
:10077000BF4F2C91848D90E001968F739927848FC1
:10078000A689B7892C93A089B1898C9183708064E4
:100790008C93938D848D981306C00288F389E02D85
:1007A00080818F7D80830895EF92FF920F931F9336
:1007B000CF93DF93EC0181E0888F9B8D8C8D981314
:1007C0001AC0E889F989808185FF15C09FB7F89420
:1007D000EE89FF896083E889F9898081837080646C
:1007E00080839FBF81E090E0DF91CF911F910F91B7
:1007F000FF90EF900895F62E0B8D10E00F5F1F4FC6
:100800000F731127E02E8C8D8E110CC00FB607FCD4
:10081000FACFE889F989808185FFF5CFCE010E9462
:10082000B203F1CFEB8DEC0FFD2FF11DE35AFF4F1B
:10083000F0829FB7F8940B8FEA89FB8980818062F0
:10084000CFCFCF93DF93EC01888D8823B9F0AA89AD
:10085000BB89E889F9898C9185FD03C0808186FD7B
:100860000DC00FB607FCF7CF8C9185FFF2CF8081CA
:1008700085FFEDCFCE010E94B203E9CFDF91CF918A
:1008800008958A549D4FFC018081089580EB91E08A
:10089000089581ED91E00895FC0186A197A1089546
:1008A000AF92BF92CF92DF92EF92FF920F931F937E
:1008B000CF93DF9300D000D01F92CDB7DEB7643660
:1008C00071054CF0FC01EA54FD4F2081F12CE12C24
:1008D000222309F476C0DA017B018C01BC01695C3A
:1008E0007E4FED91FC910190F081E02DCA010995B8
:1008F000680120EDC21A2EEFD20A2FEFD6012C93F9
:10090000F801EF5CFE4F2EEF208331968083319605
:1009100090833196292F280F209520833196E082ED
:100920001696FC9245E050E030E020E0DC0116969F
:10093000A417B50734F06191260F311D4F5F5F4F4B
:10094000F7CF7C01B8E0EB0EF11C800F911FFC018A
:10095000E95CFE4F20952083E9E1EE16E1E0FE061A
:10096000B4F45601C5018C199D098E159F054CF5EF
:10097000D80112968D919C91F50161915F01DC0186
:10098000ED91FC910190F081E02D0995EBCF84E48D
:1009900091E09A83898383E08B8385EE91E09D8348
:1009A0008C83D801ED91FC910190F081E02DAE0196
:1009B0004F5F5F4F67E070E0C8010995EE24EA944D
:1009C000FE2CC7010F900F900F900F900F90DF91AA
:1009D000CF911F910F91FF90EF90DF90CF90BF903C
:1009E000AF9008950F931F93CF93DF93CDB7DEB7EA
:1009F0002A970FB6F894DEBF0FBECDBF8C0188E3F7
:100A000091E09A8389831B821C821D821E821F8231
:100A1000188619861A86D801ED91FC910190F08113
:100A2000E02DAE014F5F5F4F6AE070E0C8010995AD
:100A30000E94C601F80160877187828793872A9692
:100A40000FB6F894DEBF0FBECDBFDF91CF911F91DF
:100A50000F910895CF92DF92EF92FF92DC011D92E9
:100A60001D921D921C921397FB0130E020E04191F2
:100A700050E0022E02C0440F551F0A94E2F7052EE3
:100A8000000C660B770BCD90DD90ED90FC901397EA
:100A90004C295D296E297F294D935D936D937C933D
:100AA0001397285F3F4F2032310509F7FF90EF90F1
:100AB000DF90CF900895FC0140835183128213820E
:100AC000089585E00E94D600892BA9F410920101B7
:100AD0008091E2049091E30420910101222389F0A6
:100AE0008F3F2FE7920759F480E090E89093E3045A
:100AF0008093E204089581E080930101E9CF01969B
:100B0000F5CF811520E8920719F48FEF9FE7EECF1C
:100B10000197ECCF84E00E94D600892BB1F481E0EC
:100B2000809300018091F0049091F10420910001E4
:100B3000222381F08F3F2FE7920751F480E090E865
:100B40009093F1048093F004089510920001EACF8D
:100B50000196F6CF811520E8920719F48FEF9FE7F1
:100B6000EFCF0197EDCF8EE192E008958FE392E011
:100B7000089580E592E0089581E792E0089587E87E
:100B800092E0089588EA92E00895FB012081318186
:100B9000FC013383228382E090E00895FC012281EE
:100BA0008381FB012083818382E090E00895AB0183
:100BB000FC01A681B78164817581ED91FC9111974B
:100BC0000190F081E02DCD01099487EB92E008952A
:100BD0008CE091E0089588ED92E0089589EF92E02D
:100BE00008954F925F926F927F928F929F92AF92F1
:100BF000BF92EF92FF920F931F93CF93DF9300D09A
:100C000000D0CDB7DEB77C018B01FB018191BF0124
:100C1000F7018283CE0101960E942A0589819A817B
:100C2000AB81BC814C015D01F5E08F0E911CA11CD4
:100C3000B11CA8014C5F5F4FFA0125E030E02901AB
:100C4000712C612C481459046A047B0428F46181D6
:100C500061932F5F3F4FF3CFF801E80FF91F148224
:100C6000F7015483438305960F900F900F900F90D8
:100C7000DF91CF911F910F91FF90EF90BF90AF90B8
:100C80009F908F907F906F905F904F9008958CE031
:100C900093E008958DE293E008954F925F926F92F2
:100CA0007F928F929F92AF92BF92CF92DF92EF92FC
:100CB000FF920F931F93CF93DF93CDB7DEB72C979F
:100CC0000FB6F894DEBF0FBECDBF7C018B01DB01F8
:100CD0008C9190E0F7019383828311962C91922B53
:100CE000938382836E5F7F4FCE0101960E942A0517
:100CF00089809A80AB80BC8024013501F6E04F0EDC
:100D0000511C611C711C98012B5F3F4FF90186E05B
:100D100090E0AC0170E060E044155505660577058C
:100D200020F4418141930196F4CFB4016A5F7F4F73
:100D3000F801E80DF91D1582D70115963C932E9305
:100D40001497600F711FCE0105960E942A05BAE024
:100D50008B0E911C4D805E806F807884C401092CBD
:100D6000000CAA0BBB0B5C016D01A40CB51CC61CCE
:100D7000D71CF801E80DF91DAF01401B510B70E0C5
:100D800060E04A155B056C057D0538F42191AF01E3
:100D900042505109DA012C93EFCF480C591CB8018D
:100DA000640D751DFB0131971082C4010197800FFE
:100DB000911FF70197838683CE0109960E942A0529
:100DC00092012C5F3F4F89849A84AB84BC84A90133
:100DD000032E000C660B770B480D591D6A1D7B1DF9
:100DE000F801E20FF31FCF01801B910BB0E0A0E0F0
:100DF00084179507A607B70728F48191DF0112979A
:100E00008C93F1CFC901880D991DF801E80FF91FE6
:100E1000DF0111971C9221503109020F131FD701D6
:100E200019961C930E9318972181428150E070E02F
:100E300060E0BA0155274427522B2081422B2381A1
:100E4000722BF701428753876487758704962C9627
:100E50000FB6F894DEBF0FBECDBFDF91CF911F91CB
:100E60000F91FF90EF90DF90CF90BF90AF909F9049
:100E70008F907F906F905F904F90089586E493E0FD
:100E8000089587E693E00895FC01DB014C9150E062
:100E900070E060E0428353836483758311968C9184
:100EA0001197582B428353836483758312968C91D8
:100EB0001297682B428353836483758313968C91B6
:100EC0001397782B428353836483758314964C91D4
:100ED000149750E070E060E0468357836087718725
:100EE00015968C911597582B468357836087718789
:100EF00016968C911697682B468357836087718767
:100F000017968C91782B468357836087718788E08A
:100F100090E00895DC01FB0112968C91129780837A
:100F200013968C911397818314968C9114978283D6
:100F300015968C911597838316968C9116978483BA
:100F400017968C911797858318968C91189786839E
:100F500019968C91878388E090E00895CF92DF9274
:100F6000EF92FF920F931F93FC01DB01C3800C2DC6
:100F700010E030E020E045E036952795179507957D
:100F80004A95D1F70D931D932D933C93139784812C
:100F9000C82ED12CF12CE12C53E0CC0CDD1CEE1C26
:100FA000FF1C5A95D1F7C02AD12AE22AF32ACD9202
:100FB000DD92ED92FC9213978581082F10E030E0CE
:100FC00020E06BE0000F111F221F331F6A95D1F73D
:100FD0000C291D292E293F290D931D932D933C93F8
:100FE0001397468150E070E060E083E1440F551FA5
:100FF000661F771F8A95D1F744275527687777278B
:10100000042B152B262B372B0D931D932D933C93DF
:101010001397478150E070E060E094E0440F551F63
:10102000661F771F9A95D1F7407F577066277727FD
:10103000C680D12CF12CE12C84E0F694E794D7946F
:10104000C7948A95D1F74C295D296E297F294115CE
:10105000510561057105A1F04058534061097109BE
:1010600097E1440F551F661F771F9A95D1F7402BC4
:10107000512B622B732B4D935D936D937C93139740
:10108000478150E070E060E0742F662755274427C1
:1010900044275527662770780D911D912D913C911D
:1010A0001397402B512B622B732B4D935D936D93B4
:1010B0007C93139788E090E01F910F91FF90EF9041
:1010C000DF90CF9008959B01BC016E5F7F4FC901F7
:1010D0000C94AE07EF92FF920F931F93CF93DF9381
:1010E0008C017B01BC016E5F7F4FC7010E94AE0780
:1010F000EC01B8016A5F7F4FC7018C0F9D1F0E94F2
:10110000AE07C80FD91FB801665F7F4FC7018C0FAC
:101110009D1F0E94AE078C0F9D1FDF91CF911F91E5
:101120000F91FF90EF900895EF92FF920F931F930E
:10113000CF93DF937C01EB0102960E946A088C0139
:10114000BE01680F791FC70140960E946A08800F90
:10115000911FDF91CF911F910F91FF90EF90089514
:101160000F931F93CF93DF938C01EC012696CE0152
:101170000E949408D8019496ED91FC91CE01DF91E4
:10118000CF911F910F9109948F929F92AF92BF922E
:10119000CF92DF92EF92FF92CF93DF93EC014A015F
:1011A0005B01DB01CA0147E1B595A7959795879546
:1011B0004A95D1F79927AA27BB270097A105B10522
:1011C00021F080589C4FAF4FBF4F188219821A826E
:1011D000B501A40125E0440F551F661F771F2A950E
:1011E000D1F74B83B501A40133E075956795579509
:1011F00047953A95D1F74C83B501A401EBE075957D
:10120000679557954795EA95D1F74D83B501A401A8
:10121000F3E17595679557954795FA95D1F74F7016
:101220006C017D0124E0CC0CDD1CEE1CFF1C2A951A
:10123000D1F74C294E836C017D0134E0F594E7949D
:10124000D794C7943A95D1F720E030E0A901C501C1
:10125000B4010E94E01787FD0EC0CF8288E090E0C5
:10126000DF91CF91FF90EF90DF90CF90BF90AF9044
:101270009F908F9008958C2D80688F83EFCF9B0176
:10128000FC014281538164817581C9010C94C408B9
:10129000EF92FF920F931F93CF93DF937C018B010B
:1012A000FC014281538164817581C8010E94C40898
:1012B000EC01F7014681578160857185C8018C0F6B
:1012C0009D1F0E94C408C80FD91FF701428553858E
:1012D00064857585C8018C0F9D1F0E94C4088C0F02
:1012E0009D1FDF91CF911F910F91FF90EF90089577
:1012F000EF92FF920F931F93CF93DF937C01EB014B
:1013000002960E9448098C01BE01680F791FC7012F
:1013100040960E944809800F911FDF91CF911F9145
:101320000F91FF90EF9008952F923F924F925F920E
:101330006F927F928F929F92AF92BF92CF92DF92E5
:10134000EF92FF920F931F93CF93DF93CDB7DEB74A
:101350002E970FB6F894DEBF0FBECDBF8C016B0188
:10136000DB018D909D90AD90BC90FC0182819381BA
:10137000A481B58188159905AA05BB0570F4B4014F
:10138000660F771F660F771F828593850E94B119BC
:10139000D8011B969C938E931A97F80182829382B0
:1013A000A482B582C60140E050E0BA01A4E0EA2E72
:1013B000F12C98012A5F3F4FDC011596EC911597AF
:1013C00016964C901697512C712C612C3201552495
:1013D00044245E2A1496EC9114974E2A1796EC91A9
:1013E0007E2AD7011701E4E02E0E311C710104960C
:1013F000F80182809380A480B580481559056A055C
:101400007B05A8F446825782608671861497A28471
:10141000B384AA0DBB1DE4E0BE2EF90101900D922C
:10142000BA94E1F74F5F5F4F6F4F7F4FC5CF848511
:101430009585A685B78584159505A605B70570F42D
:10144000B201660F771F660F771F848995890E9406
:10145000B119D80155969C938E935497F801448600
:10146000558666867786C601820D931D412C512CC8
:1014700032011C019801205F3F4FDC0111966C91F5
:10148000119712968C901297912CB12CA12C54018B
:1014900099248824962A6C91862A13966C91B62AF0
:1014A000B4E0EB0EF11CF80144855585668577851F
:1014B0004416550666067706C0F4808A918AA28A89
:1014C000B38ABC0162197309A489B589A60FB71F35
:1014D00064E0F90101900D926A95E1F7BFEF4B1AB4
:1014E0005B0A6B0A7B0A0496C8CF86899789A08D10
:1014F000B18D88159905AA05BB0560F4B401660F86
:10150000771F848D958D0E94B119D8015D969C93AB
:101510008E935C97F801868A978AA08EB18E412CB3
:10152000512C32011801FAE12F0E311CF801868985
:101530009789A08DB18D481659066A067B0608F07A
:101540005CC0B6016E0D7F1DCE0101960E942A057A
:1015500097012C5F3F4F3E872D8789809A80AB8013
:10156000BC80C901032E000CAA0BBB0BAC01BD0152
:10157000480D591D6A1D7B1D49875A876B877C87DB
:10158000F901EC0DFD1D9F012C193D09B90190E0F9
:1015900080E029853A854B855C856217730784074F
:1015A000950728F42191DF0112972C93ECCFED845D
:1015B000FE84E80CF91CF601EE0DFF1D3197108238
:1015C0008D859E8501978C0D9D1DD8015B969C9302
:1015D0008E935A97C201880F991F5C96ED91FC91EA
:1015E000E80FF91FD1018D919C9191838083BFEF0A
:1015F0004B1A5B0A6B0A7B0A99CFC7012E960FB66E
:10160000F894DEBF0FBECDBFDF91CF911F910F9138
:10161000FF90EF90DF90CF90BF90AF909F908F9012
:101620007F906F905F904F903F902F9008952F92F2
:101630003F924F925F926F927F928F929F92AF9262
:10164000BF92CF92DF92EF92FF920F931F93CF93AF
:10165000DF93CDB7DEB7A6970FB6F894DEBF0FBE07
:10166000CDBF8C010E94C6014B015C01980125543D
:101670003D4F3E8B2D8BF90180819181A281B381F9
:1016800075016401C81AD90AEA0AFB0AD701C60122
:10169000893F9A42A105B10510F0359710821801D3
:1016A00034E5231A3DEF330AD1018D919C91892BAA
:1016B00079F0F801E154FD4F80819181A281B381DD
:1016C00088159905AA05BB0518F4F101118210824D
:1016D00098012C543D4F3A8B298BA80140555D4F02
:1016E0005C8B4B8BC8014896988F8F8BD801AA547E
:1016F000BD4FBC8FAB8FF801EC53FD4FFE8FED8FCC
:10170000215F3F4F38A32F8F42505109588B4F878D
:1017100086569D4F9A8F898F1996BAA3A9A3A501C2
:1017200094012C5E3F4F4F4F5F4F2BA33CA34DA323
:101730005EA3F80184899589A689B789892B8A2BAC
:101740008B2BB9F5D80112968D919C91DC01ED910E
:10175000FC910284F385E02D09959C0197FF3DC023
:10176000F801EA54FD4F8081882301F17801B9E442
:10177000EB1ABDEFFB0AF70180819181A281B38151
:10178000A5019401281B390B4A0B5B0BDA01C90137
:10179000853C9940A105B10548F0C8010E94F204BA
:1017A000D7018D929D92AD92BC92139790E080E00C
:1017B000B8C10E94C601681979098A099B09F80114
:1017C000C488D588E688F788C616D706E806F906DD
:1017D00008F0B8CF8EEF9FEFA4C1A989BA898D9187
:1017E0009C911197820F931F8D939C93F1014081DF
:1017F000518147305105F9F4A98DBA8D8D919C9195
:101800001197AC014F5F5F4F4D935C93800F911F19
:10181000FC01208FAF85B8898D919C91119701971C
:101820008D939C93892B09F084CF88E090E0F1019F
:10183000918380837ECF4115510521F52F3F3105DE
:1018400081F481E090E091838083CBA0DCA0EDA0C7
:10185000FEA0A9A1BAA1CD92DD92ED92FC921397C0
:1018600068CF0E94C601681979098A099B096938FD
:1018700073418105910508F45CCFF801EA54FD4FEE
:101880001082A8CF4130510589F42E3F310519F45B
:1018900082E090E0CCCF11821082EB8DFC8D8081B4
:1018A000811147CFC8010E94F20443CF4230510555
:1018B00091F4AF85B8892D933C93E98DFA8D11820F
:1018C000108283E090E0D1018D939C93E989FA899D
:1018D000318320832ECF4330510571F4322F2227DC
:1018E000AF85B8898D919C911197280F391F2D9341
:1018F0003C9384E090E09BCF4430510579F460E064
:1019000071E00E94EA168F3F910529F485E090E08E
:10191000918380830ECF118210820BCF4530510509
:1019200069F4AB89BC892D933C9386E090E0918368
:101930008083A989BA892D933C93FBCE463051050B
:10194000A1F4322F2227EB89FC8980819181280F15
:10195000391F3183208387E090E0D1018D939C93E0
:10196000EF85F889808191815DCF4830510509F07C
:10197000E0CE1182108260E071E00E94EA168F3F93
:10198000910509F0D6CEAB89BC89ED91FC913097D9
:1019900009F0E0C0C8010E94F2048CE291E09A8351
:1019A00089831C821B828DE192E09E838D839887C0
:1019B0008F839A8789871B861C861D861E866801F1
:1019C000B8EBCB1ABDEFDB0A7801E6E8EE1AEDEFD3
:1019D000FE0A28E1422E55245394612C712CD60125
:1019E000ED91FC913097A9F1848195819C838B8343
:1019F000808191819E838D8382819381DC01ED9131
:101A0000FC910480F581E02D099598878F83D6019C
:101A1000ED91FC9182819381DC01ED91FC91068036
:101A2000F781E02D09959A8789874B865C866D86BC
:101A30007E86D601ED91FC9160857185D801ED918E
:101A4000FC910190F081E02DAE014F5F5F4FC80126
:101A50000995B2E0CB0ED11CEC14FD0409F0BFCF08
:101A600098E1492E55245394612C712CF701A081E3
:101A7000B1811097E1F112968D919C9113979C83FF
:101A80008B8314968D919C9115979E838D83ED91F8
:101A9000FC9111970480F581E02DCD01099598877F
:101AA0008F83D7018D919C91DC01ED91FC91068093
:101AB000F781E02D09959A8789874B865C866D862C
:101AC0007E86D801ED91FC91C080D180F7018081A4
:101AD0009181DC01ED91FC910280F381E02D09956B
:101AE000AE014F5F5F4FBC01C801F6010995F2E0FE
:101AF000EF0EF11CE214F30409F0B8CFF801EA5438
:101B0000FD4F81E08083319680829182A282B382F0
:101B1000AD89BE898D929D92AD92BC9213978FEF45
:101B20009FEFA6960FB6F894DEBF0FBECDBFDF9134
:101B3000CF911F910F91FF90EF90DF90CF90BF90CA
:101B4000AF909F908F907F906F905F904F903F905D
:101B50002F900895EA30F10509F0A1C088E391E0E3
:101B60009A8389831B821C821D821E821F82188693
:101B700019861A860E94C601F801C084D184E284C5
:101B8000F3849B01AC012C193D094E095F096901E1
:101B90007A016F89788DCE0101960E944407C701B2
:101BA000B60128EE33E040E050E00E94FE166901E5
:101BB0007A019B01AC018B819C81AD81BE818C0D32
:101BC0009D1DAE1DBF1D8B839C83AD83BE8360E4D2
:101BD00072E48FE090E00E94DA16CF80D884E98426
:101BE000FA84DC01CB018C0D9D1DAE1DBF1D8F83C2
:101BF0009887A987BA870E94C601CF80D884E984D4
:101C0000FA8436E3D31A35E6E30A34ECF30A28EE15
:101C100033E040E050E00E94FE1629013A019B01AA
:101C2000AC0160E472E48FE090E00E94DA16A70154
:101C30009601261B370B480B590BCA01B9012B81A2
:101C40003C814D815E812150310941095109690171
:101C50007A01C418D508E608F7082601370120E004
:101C60003AEC4AE95BE30E94FE16420E531E641EE4
:101C7000751ED8011C964D925D926D927C921F97B5
:101C8000F801608B718B828B938B0E94C601AD89AA
:101C9000BE896D937D938D939C9313974ACDE630C7
:101CA000F10559F46F89788D8D8D9E8D0E94940970
:101CB00081E0EF8DF8A180833CCDEB30F10521F47C
:101CC000AB8DBC8D1C9235CDE752FF4FEE0FFF1F41
:101CD000E00FF11F80819181009709F42ACDDC018A
:101CE000ED91FC910190F081E02D6F89788D09953F
:101CF00020CD4F925F926F927F928F929F92AF9280
:101D0000BF92CF92DF92EF92FF920F931F93CF93E8
:101D1000DF93EC017B018A81FB0180838B818183CE
:101D20008C8182838D8183833496412C512C3201A6
:101D300004E010E09F012F5F3F4FCF010296DF01CB
:101D40001396A8010C5F1F4F8A809B80AC80BD80DA
:101D5000481459046A047B04C8F4AA85BB85A40FFF
:101D6000B51F14974C9111962C91119712969C9136
:101D7000129713968C9140832183928383838FEFF4
:101D8000481A580A680A780A3496D4CF4C8540839A
:101D90004D85F90140832E85FC0120838F858C932E
:101DA000F701E00FF11F412C512C3201AF019F01CF
:101DB0002F5F3F4FCF010296DF0113960C5F1F4F3D
:101DC0008C849D84AE84BF84481459046A047B04C7
:101DD000D8F4CF01841B950BAC89BD89A80FB91F1E
:101DE0003C9111962C91119712969C9112971396F3
:101DF0008C9130832183928383838FEF481A580A12
:101E0000680A780A3496D3CF4E8940834F89F90106
:101E10004083288DFC012083898D8C93412C512C8B
:101E200032018E899F89A88DB98D481659066A0698
:101E30007B0680F55201AA0CBB1CEC8DFD8DEA0DD2
:101E4000FB1DA081B181FD0101900020E9F73197D0
:101E50006F01CA1ADB0AA60170E060E0C701800FBB
:101E6000911F0E945B050C5F1F4F8C8D9D8DA80EEE
:101E7000B91EF50160817181A601C701800F911F14
:101E80000E946E1A0C0D1D1DFFEF4F1A5F0A6F0A9C
:101E90007F0AC7CFC801DF91CF911F910F91FF90AB
:101EA000EF90DF90CF90BF90AF909F908F907F90FA
:101EB0006F905F904F900895EF92FF920F931F9352
:101EC000CF93DF938C017B01DC0112962C9112974A
:101ED000FB012193CF011396ED91FC91EF01099045
:101EE0000020E9F72197CE1BDF0BAE0170E060E028
:101EF0000E945B05D80113966D917C91AE01C701DC
:101F000005960E946E1ACE010596DF91CF911F9122
:101F10000F91FF90EF900895CF92DF92EF92FF9292
:101F20000F931F93CF93DF936C01EB01DC011296AB
:101F30008C911297888313968C91139789831496AA
:101F4000ED91FC91DF010D900020E9F78D0101502A
:101F500011090E1B1F0BA80170E060E0CE01029674
:101F60000E945B05F60164817581A801CE01069689
:101F70000E946E1AC8010696F601A681B781FD017E
:101F800001900020E9F731977F01EA1AFB0AA701C7
:101F900070E060E08C0F9D1F0E945B05065F1F4F85
:101FA000D60116966D917C91A701CE01800F911FED
:101FB0000E946E1A0E0D1F1DF601A085B185FD0150
:101FC00001900020E9F731977F01EA1AFB0AA70187
:101FD00070E060E0CE01800F911F0E945B050C5FF6
:101FE0001F4FD60118966D917C91A701CE01800FED
:101FF000911F0E946E1AC701800F911FF601628522
:10200000438534852585C80FD91F688349833A8362
:102010002B830496DF91CF911F910F91FF90EF904A
:10202000DF90CF9008951F920F920FB60F92112458
:102030002F933F938F939F93AF93BF938091ED0323
:102040009091EE03A091EF03B091F0033091EC0377
:1020500023E0230F2D3758F50196A11DB11D2093C4
:10206000EC038093ED039093EE03A093EF03B09302
:10207000F0038091E8039091E903A091EA03B09105
:10208000EB030196A11DB11D8093E8039093E90332
:10209000A093EA03B093EB03BF91AF919F918F910F
:1020A0003F912F910F900FBE0F901F90189526E82B
:1020B000230F0296A11DB11DD2CF1F920F920FB612
:1020C0000F9211242F933F934F935F936F937F93BE
:1020D0008F939F93AF93BF93EF93FF93E09104018E
:1020E000F09105010995FF91EF91BF91AF919F91FB
:1020F0008F917F916F915F914F913F912F910F90B1
:102100000FBE0F901F9018951F920F920FB60F924F
:1021100011242F933F934F935F936F937F938F93EC
:102120009F93AF93BF93EF93FF93E0910201F091E0
:1021300003010995FF91EF91BF91AF919F918F910D
:102140007F916F915F914F913F912F910F900FBEB3
:102150000F901F9018951F920F920FB60F92112497
:102160002F933F934F935F936F937F938F939F939F
:10217000AF93BF93EF93FF9381EF93E00E94B2037D
:10218000FF91EF91BF91AF919F918F917F916F914F
:102190005F914F913F912F910F900FBE0F901F9025
:1021A00018951F920F920FB60F9211242F938F93B1
:1021B0009F93EF93FF93E0910104F09102048081DB
:1021C000E0910704F091080482FD1BC0908180918A
:1021D0000A048F5F8F7320910B04821741F0E09106
:1021E0000A04F0E0EF50FC4F958F80930A04FF91B2
:1021F000EF919F918F912F910F900FBE0F901F9095
:1022000018958081F4CF1092F4031092F30388EEB6
:1022100093E0A0E0B0E08093F5039093F603A093E1
:10222000F703B093F80380E591E09093F203809375
:10223000F10385EC90E09093FE038093FD0384EC22
:1022400090E0909300048093FF0380EC90E09093E3
:1022500002048093010481EC90E090930404809345
:10226000030482EC90E0909306048093050486ECCE
:1022700090E0909308048093070410920A0410924F
:102280000B0410920C0410920D0486E891E09093D8
:10229000F3048093F20481EF93E09093F50480932C
:1022A000F40480E091EEA0E0B0E08093F604909317
:1022B000F704A093F804B093F9041092A8078AE7F2
:1022C00091E09093B7078093B6071092CC071092D5
:1022D000CD071092CE071092CF071092D30710921D
:1022E000D207EAE3F7E01192119287E0EC36F807A3
:1022F000D1F7ECE6F7E01192119287E0EE39F8079A
:10230000D1F7EAE0F5E082E296E011928E179F079E
:10231000E1F7E2E2F6E0119287E0EA33F807D9F755
:102320001092B8071092B9071092BA071092BB0723
:102330001092C1071092C0071092C2071092C307F3
:102340001092C4071092C5071092CB071092CA07CB
:1023500010920605109207051092080510920905C3
:1023600088EA91E09093EF048093EE041092F104D8
:102370001092F00425E733E03093E5042093E40461
:102380002EEE34E03093E7042093E6041092ED043F
:102390001092EC049093E1048093E0041092E30423
:1023A0001092E20481E893E09093D7048093D604DE
:1023B00080EE94E09093D9048093D8041092DF04C7
:1023C0001092DE048CE991E09093D1048093D004C4
:1023D0001092D2041092D3041092D4041092D50417
:1023E0002CE833E03093C7042093C60420ED34E09A
:1023F0003093C9042093C8041092CF041092CE04E5
:102400009093C1048093C0041092C2041092C3043C
:102410001092C4041092C5048BE993E09093B70422
:102420008093B60480EC94E09093B9048093B80450
:102430001092BF041092BE0480E991E090938F0443
:1024400080938E048EE691E090939504809394049B
:1024500082E691E0909397048093960410929804FA
:102460001092990410929A0410929B0410929C046A
:1024700010929D0410929E0410929F041092A0044A
:102480001092A1041092A2041092A3049093A504A8
:102490008093A4041092A6041092A7041092A8049A
:1024A0001092A9041092AA041092AB041092AC04EA
:1024B0001092AD041092AE041092AF041092B004CA
:1024C0001092B10482ED91E09093B3048093B20432
:1024D00081E090E09093B5048093B4048BEA93E09C
:1024E00090939304809392040895789484B58260C5
:1024F00084BD84B5816084BD85B5826085BD85B5A8
:10250000816085BD80916E00816080936E00109225
:1025100081008091810082608093810080918100A0
:102520008160809381008091800081608093800031
:102530008091B10084608093B1008091B00081608F
:102540008093B00080917A00846080937A008091BB
:102550007A00826080937A0080917A008160809313
:102560007A0080917A00806880937A001092C1008E
:1025700062E083E00E942D0160E085E00E942D0171
:1025800062E082E00E942D0160E084E00E942D0163
:1025900081E695E0909305018093040180916900A4
:1025A0008C6080936900E99A8AE895E09093030132
:1025B0008093020180916900836080936900E89AAA
:1025C00061E08BE00E942D0161E086E00E942D0118
:1025D00061E08AE00E942D0161E089E00E942D0106
:1025E00060E08BE00E94FF0060E086E00E94FF0058
:1025F00060E08AE00E94FF0060E089E00E94FF0046
:1026000080E091EEA0E0B0E08093F6049093F704B0
:10261000A093F804B093F904E091F404F091F50468
:10262000A089B18982E08C93A089B1891C92A4858C
:10263000B5851C92A685B78580E18C93108EA48900
:10264000B58986E08C93A289B3898C9180618C9343
:10265000A289B3898C9188608C93A289B3898C916B
:1026600080688C930288F389E02D80818F7D808340
:1026700010929F0710929E071092A1071092A00738
:102680001092A5071092A4071092A3071092A20718
:1026900084EE94E00E948C0086ED94E00E948C0011
:1026A00086EC94E00E948C0086EB94E00E948C0003
:1026B000ECE6F7E090E080E021913191232B09F0E6
:1026C00009C2FC01EE0FFF1FE459F84F2EE834E079
:1026D000318320838C599F4F909391048093900471
:1026E00022242A94322C01E010E082EF94E00E9430
:1026F000170B0E94C601C090E403D090E503E09060
:10270000E603F090E7039B01AC012C193D094E094B
:102710005F0969017A013FE1C316D104E104F104C4
:102720000CF426C16093E4037093E5038093E60301
:102730009093E70360EE74E086ED94E00E94D70585
:102740006EEE74E084EE94E00E94D7054091F004B0
:102750005091F104052E000C660B770B4150510986
:102760006F4F7F4F8091C0039091C103092E000CE1
:10277000AA0BBB0B6A017B01C81AD90AEA0AFB0A39
:10278000C701B6012FEF3FEF40E050E00E94201755
:10279000EB01613177420CF021960E94C6014B019A
:1027A0005C01BE01DD0F880B990B0E948F1820E0A1
:1027B00030E443E855E40E94E5176B017C01C50154
:1027C000B4010E948D182091BC033091BD0340914B
:1027D000BE035091BF030E9473179B01AC01C70158
:1027E000B6010E94E5176093CE037093CF038093E8
:1027F000D0039093D10320E030E64AEE56E40E94E5
:1028000044192BED3FE049E450E40E94E51728EB22
:102810003EE145E05DE30E94E5176093C2047093DA
:10282000C3048093C4049093C5048091F0049091F4
:10283000F1049093C1038093C0030E94C6010E94DB
:102840008D186093BC037093BD038093BE03909377
:10285000BF034091E2045091E304052E000C660B87
:10286000770B415051096F4F7F4F8091C603909174
:10287000C703092E000CAA0BBB0B6A017B01C81A07
:10288000D90AEA0AFB0AC701B6012FEF3FEF40E081
:1028900050E00E942017EB01613177420CF0219645
:1028A0000E94C6014B015C01BE01DD0F880B990B34
:1028B0000E948F1820E030E443E855E40E94E517B9
:1028C0006B017C01C501B4010E948D182091C203E7
:1028D0003091C3034091C4035091C5030E94731704
:1028E0009B01AC01C701B6010E94E5176093D403B8
:1028F0007093D5038093D6039093D70320E030E6FE
:102900004AEE56E40E9444192BED3FE049E450E4BE
:102910000E94E51728EB3EE145E05DE30E94E517E4
:102920006093D2047093D3048093D4049093D5041D
:102930008091E2049091E3049093C7038093C603CF
:102940000E94C6010E948D186093C2037093C30356
:102950008093C4039093C50360ED74E086EC94E02B
:102960000E94D70560EC74E086EB94E00E94D705E6
:102970000E94C60128EE33E040E050E00E94FE16BF
:10298000CA01B9010E948D182091E0033091E10342
:102990004091E2035091E3030E94731720E030E07E
:1029A00040E85FE30E943F19181684F41092DC039C
:1029B0001092DD031092DE031092DF031092D80311
:1029C0001092D9031092DA031092DB034090D403E3
:1029D0005090D5036090D6037090D7032091DC030C
:1029E0003091DD034091DE035091DF03C301B2015A
:1029F0000E94441920E030E0A9010E94E01787FFFF
:102A000006C08091D2039091D303892BF9F42091D1
:102A1000CE033091CF034091D0035091D103609108
:102A2000D8037091D9038091DA039091DB030E945F
:102A3000441920E030E0A9010E94E01787FF16C08A
:102A40008091CC039091CD03892B81F01092DC030F
:102A50001092DD031092DE031092DF031092D80370
:102A60001092D9031092DA031092DB03C090DC03BA
:102A7000D090DD03E090DE03F090DF0320E030E053
:102A8000A901C701B6010E943F1918164CF5109311
:102A9000CB030093CA038090D8039090D903A090F1
:102AA000DA03B090DB0320E030E0A901C501B401F6
:102AB0000E943F1918163CF51093C9030093C803F0
:102AC00020E030E0A901C701B6010E94E0178111A2
:102AD00045C057C001968931910509F0EDCD00CE72
:102AE00020E030E0A901C701B6010E94E01787FF8E
:102AF00005C03092CB032092CA03CDCF1092CB03F6
:102B00001092CA03C8CF20E030E0A901C501B4018A
:102B10000E94E01787FF05C03092C9032092C803C6
:102B2000CFCF20E030E0A901C501B4010E94E01739
:102B30008111FFC08091CC039091CD03892B09F0C6
:102B4000F8C01092C9031092C80320E030E0A90138
:102B5000C701B6010E94E017882391F120E030E020
:102B6000A901C301B2010E94E017882309F4EFC054
:102B700020E030E0A901C501B4010E94E0178823DC
:102B8000F9F020E030E0A9016091CE037091CF030D
:102B90008091D0039091D1030E94E017811110C061
:102BA00020E030E040EC5FE3C501B4010E9444192D
:102BB0006093D8037093D9038093DA039093DB0377
:102BC000C090DC03D090DD03E090DE03F090DF03E3
:102BD00020E030E0A901C701B6010E943F19181694
:102BE00024F0F7FAF094F7F8F094C091D203D09162
:102BF000D303BE010D2E000C880B990B0E948F1879
:102C00004B015C01A70196010E94E01787FFB0C04D
:102C10002196D093D303C093D203C090D803D09011
:102C2000D903E090DA03F090DB0320E030E0A90163
:102C3000C701B6010E943F19181624F0F7FAF09464
:102C4000F7F8F094C091CC03D091CD03BE010D2EC6
:102C5000000C880B990B0E948F184B015C01A70197
:102C600096010E94E01787FF8EC02196D093CD0376
:102C7000C093CC038091CC039091CD038135910515
:102C800014F080E590E0C091D203D091D303C13518
:102C9000D10514F0C0E5D0E0D7FF02C0D0E0C0E01D
:102CA000D093D303C093D20397FF02C090E080E09B
:102CB0009093CD038093CC038091CA039091CB0372
:102CC000BE018130910509F469C070E060E00196B1
:102CD00009F064C08BE00E946901BE0186E00E9499
:102CE00069018091C8039091C9036091CC037091F0
:102CF000CD038130910509F457C070E060E0019682
:102D000009F052C08AE00E9469016091CC03709181
:102D1000CD0389E00E94690180E090E0892B09F4ED
:102D2000E4CC0E949E03882309F4DFCC0E940000BB
:102D3000DCCC1092C9031092C80320E030E0A90156
:102D4000C701B6010E94E017811108CF11CF20E022
:102D500030E040EC5FE3C701B6010E944419609384
:102D6000DC037093DD038093DE039093DF0300CFD9
:102D7000A7019601C501B4010E943F1918160CF075
:102D80004CCF219746CFA7019601C501B4010E94FF
:102D90003F1918160CF06ECF219768CF8BE00E9478
:102DA000690170E060E09ACF8AE00E94690170E0FA
:102DB00060E0AFCFDB018F939F930E943F17BF91DD
:102DC000AF91A29F800D911DA39F900DB29F900D7A
:102DD0001124089597FB072E16F4009407D077FD71
:102DE00009D00E944A1707FC05D03EF490958195C2
:102DF0009F4F0895709561957F4F0895A1E21A2E17
:102E0000AA1BBB1BFD010DC0AA1FBB1FEE1FFF1F8E
:102E1000A217B307E407F50720F0A21BB30BE40BDE
:102E2000F50B661F771F881F991F1A9469F7609525
:102E30007095809590959B01AC01BD01CF010895DF
:102E4000052E97FB1EF400940E94371757FD07D0FC
:102E50000E94FE1607FC03D04EF40C9437175095D1
:102E60004095309521953F4F4F4F5F4F0895909576
:102E70008095709561957F4F8F4F9F4F08950E9469
:102E80006417A59F900DB49F900DA49F800D911D78
:102E900011240895AA1BBB1B51E107C0AA1FBB1F29
:102EA000A617B70710F0A61BB70B881F991F5A95D6
:102EB000A9F780959095BC01CD010895EE0FFF1FF5
:102EC0000590F491E02D0994A29FB001B39FC00139
:102ED000A39F700D811D1124911DB29F700D811D46
:102EE0001124911D08955058BB27AA270E948B17C3
:102EF0000C9405190E94F71838F00E94FE1820F073
:102F000039F49F3F19F426F40C94F4180EF4E0956C
:102F1000E7FB0C94EE18E92F0E94161958F3BA1724
:102F2000620773078407950720F079F4A6F50C94DF
:102F300038190EF4E0950B2EBA2FA02D0B01B90114
:102F400090010C01CA01A0011124FF27591B99F01F
:102F5000593F50F4503E68F11A16F040A22F232F2B
:102F6000342F4427585FF3CF469537952795A7957B
:102F7000F0405395C9F77EF41F16BA0B620B730B22
:102F8000840BBAF09150A1F0FF0FBB1F661F771F93
:102F9000881FC2F70EC0BA0F621F731F841F48F448
:102FA000879577956795B795F7959E3F08F0B0CFD1
:102FB0009395880F08F09927EE0F979587950895B8
:102FC0000E94CA1808F481E008950E94F9170C9431
:102FD00005190E94FE1858F00E94F71840F029F4D5
:102FE0005F3F29F00C94EE1851110C9439190C9490
:102FF000F4180E94161968F39923B1F3552391F33D
:10300000951B550BBB27AA2762177307840738F057
:103010009F5F5F4F220F331F441FAA1FA9F335D0B4
:103020000E2E3AF0E0E832D091505040E695001C68
:10303000CAF72BD0FE2F29D0660F771F881FBB1F22
:10304000261737074807AB07B0E809F0BB0B802D00
:10305000BF01FF2793585F4F3AF09E3F510578F02C
:103060000C94EE180C9439195F3FE4F3983ED4F3B6
:10307000869577956795B795F7959F5FC9F7880F00
:10308000911D9695879597F90895E1E0660F771F52
:10309000881FBB1F621773078407BA0720F0621BE3
:1030A000730B840BBA0BEE1F88F7E09508950E940E
:1030B0005E186894B1110C94391908950E941E1974
:1030C00088F09F5798F0B92F9927B751B0F0E1F0E9
:1030D000660F771F881F991F1AF0BA95C9F714C099
:1030E000B13091F00E943819B1E008950C9438196C
:1030F000672F782F8827B85F39F0B93FCCF38695D2
:1031000077956795B395D9F73EF49095809570952E
:1031100061957F4F8F4F9F4F0895E89409C097FBAB
:103120003EF490958095709561957F4F8F4F9F4F9E
:103130009923A9F0F92F96E9BB279395F6958795E2
:1031400077956795B795F111F8CFFAF4BB0F11F4A5
:1031500060FF1BC06F5F7F4F8F4F9F4F16C088234C
:1031600011F096E911C0772321F09EE8872F762F82
:1031700005C0662371F096E8862F70E060E02AF0C3
:103180009A95660F771F881FDAF7880F96958795AF
:1031900097F90895990F0008550FAA0BE0E8FEEF84
:1031A00016161706E807F907C0F012161306E4070B
:1031B000F50798F0621B730B840B950B39F40A2604
:1031C00061F0232B242B252B21F408950A2609F4E2
:1031D000A140A6958FEF811D811D089597F99F67E6
:1031E00080E870E060E008959FEF80EC089500248F
:1031F0000A941616170618060906089500240A945C
:1032000012161306140605060895092E0394000CE1
:1032100011F4882352F0BB0F40F4BF2B11F460FF70
:1032200004C06F5F7F4F8F4F9F4F089557FD905899
:10323000440F551F59F05F3F71F04795880F97FB7A
:10324000991F61F09F3F79F0879508951216130634
:103250001406551FF2CF4695F1DF08C01616170663
:103260001806991FF1CF8695710561050894089598
:10327000E894BB2766277727CB0197F908950E942A
:10328000CA1808F48FEF08950E9457190C94051975
:103290000E94F71838F00E94FE1820F0952311F0D4
:1032A0000C94EE180C94F41811240C9439190E9403
:1032B000161970F3959FC1F3950F50E0551F629F4B
:1032C000F001729FBB27F00DB11D639FAA27F00D7F
:1032D000B11DAA1F649F6627B00DA11D661F829FA6
:1032E0002227B00DA11D621F739FB00DA11D621F8B
:1032F000839FA00D611D221F749F3327A00D611DA8
:10330000231F849F600D211D822F762F6A2F112489
:103310009F5750409AF0F1F088234AF0EE0FFF1FBC
:10332000BB1F661F771F881F91505040A9F79E3F13
:10333000510580F00C94EE180C9439195F3FE4F3BA
:10334000983ED4F3869577956795B795F795E79569
:103350009F5FC1F7FE2B880F911D9695879597F972
:103360000895B0E0A0E0E7EBF9E10C949E1B8C011E
:10337000009751F4CB010E94771A8C01C801CDB798
:10338000DEB7E0E10C94BA1BFC01E60FF71F9C01CD
:1033900022503109E217F30708F49DC0D901CD91FD
:1033A000DC911197C617D70798F0C530D10530F3D7
:1033B000CE0104978617970708F3C61BD70B2297F1
:1033C000C193D1936D937C93CF010E94131BD6CFF1
:1033D0005B01AC1ABD0A4C018C0E9D1EA091D60754
:1033E000B091D707512C412CF12CE12C109731F5DD
:1033F0008091D4079091D5078815990509F05CC094
:103400004616570608F058C08091060190910701B2
:10341000009741F48DB79EB740910A0150910B017E
:10342000841B950BE817F90708F055C0F093D507F2
:10343000E093D407F90171836083A0CF8D919C91B3
:10344000119712966C90129713967C901397A8156B
:10345000B90559F56C0142E0C40ED11CCA14DB0455
:1034600020F1AC014A195B09DA011296159780F038
:103470006282738251834083D9016D937C93E114FE
:10348000F10471F0D7011396FC93EE93129776CF67
:1034900022968C0F9D1FF90191838083F301EFCF5A
:1034A000F093D707E093D60769CF4816590608F47A
:1034B0002C017D01D3019ACFCB010E94771A7C01A8
:1034C000009749F0AE01B8010E946E1AC8010E942F
:1034D000131B870153CF10E000E050CFFB01DC014C
:1034E00002C001900D9241505040D8F708950F93BB
:1034F0001F93CF93DF938230910510F482E090E028
:10350000E091D607F091D70730E020E0B0E0A0E0EE
:10351000309799F42115310509F44AC0281B390B5D
:1035200024303105D8F58A819B816115710589F1B7
:10353000FB0193838283FE0111C04081518102818E
:10354000138148175907E0F04817590799F4109765
:1035500061F012960C93129713961C933296CF013A
:10356000DF91CF911F910F9108950093D60710938B
:10357000D707F4CF2115310551F04217530738F022
:10358000A901DB019A01BD01DF01F801C1CFEF0103
:10359000F9CF9093D7078093D607CDCFFE01E20FE6
:1035A000F31F819391932250310939832883D7CF18
:1035B0002091D4073091D507232B41F420910801A5
:1035C000309109013093D5072093D407209106014B
:1035D000309107012115310541F42DB73EB74091D7
:1035E0000A0150910B01241B350BE091D407F09197
:1035F000D507E217F307A0F42E1B3F0B2817390756
:1036000078F0AC014E5F5F4F2417350748F04E0F3E
:103610005F1F5093D5074093D407819391939FCF19
:10362000F0E0E0E09CCFCF93DF930097E9F0FC015E
:10363000329713821282A091D607B091D707ED017D
:1036400030E020E01097A1F420813181820F931F98
:103650002091D4073091D5072817390709F061C0A8
:10366000F093D507E093D407DF91CF910895EA0155
:10367000CE17DF07E8F54A815B819E0141155105B0
:10368000B1F7E901FB83EA8349915991C40FD51F32
:10369000EC17FD0761F4808191810296840F951FDC
:1036A000E90199838883828193819B838A83F0E0F7
:1036B000E0E012968D919C9113970097B9F52D91AA
:1036C0003C911197CD010296820F931F2091D40750
:1036D0003091D5072817390739F6309751F51092F0
:1036E000D7071092D607B093D507A093D407BCCFC5
:1036F000D383C28340815181840F951FC817D90796
:1037000061F44E5F5F4F88819981480F591F518343
:1037100040838A819B81938382832115310509F03F
:10372000B0CFF093D707E093D6079ECFFD01DC0121
:10373000C0CF13821282D7CF2F923F924F925F92C7
:103740006F927F928F929F92AF92BF92CF92DF92B1
:10375000EF92FF920F931F93CF93DF93CDB7DEB716
:10376000CA1BDB0B0FB6F894DEBF0FBECDBF0994AA
:103770002A88398848885F846E847D848C849B8401
:10378000AA84B984C884DF80EE80FD800C811B810F
:10379000AA81B981CE0FD11D0FB6F894DEBF0FBE3E
:0A37A000CDBFED010895F894FFCFAE
:1037AA000101330333030000D8078000726F73737B
:1037BA00657269616C5F6D7367732F5265717565A8
:1037CA007374506172616D00000000008C0F4D0629
:1037DA004A064706000000008A07440741073E07D9
:1037EA00000000005C0FF105EE05EB05000000008B
:1037FA00D403340361032104920370038403000099
:10380A00000048096A08BC05B905000000007809EB
:10381A0094084904460400000000790E9409E8055A
:10382A00E505000000005004170B410400000000E9
:10383A00B0084C0449044604000000003F0963082C
:10384A00B605B30500000000CE05C505C205BF05D3
:10385A0039663139356638383132343666646661EC
:10386A00323739386431643365656263613834618B
:10387A000067656F6D657472795F6D7367732F5436
:10388A0077697374004D6573736167652066726F3B
:10389A006D206465766963652064726F7070656413
:1038AA003A206D657373616765206C617267657232
:1038BA00207468616E206275666665722E006664A1
:1038CA006232383231306266613964376339313194
:1038DA00343632363031373864396135383400732A
:1038EA0074645F6D7367732F466C6F61743634004E
:1038FA0034613834326236356634313330383464C0
:10390A006332623130666234383465613766313722
:10391A000067656F6D657472795F6D7367732F5693
:10392A006563746F7233003835323435383665332F
:10393A00346662643763623163303863356635668C
:10394A0031636130653537007374645F6D73677313
:10395A002F496E74313600396630653938626461D0
:10396A0036353938313938366464663533616661DB
:10397A00376134306534390031316162643733314B
:10398A006332353933333236316364363138336230
:10399A00643132643632393500726F737365726915
:1039AA00616C5F6D7367732F4C6F670030616435AC
:1039BA0031663838666334343839326638633130C0
:1039CA0036383430373736343630303500726F7324
:1039DA0073657269616C5F6D7367732F546F706979
:1039EA0063496E666F006364373136366337346312
:1039FA003535326333313166626363326665356108
:103A0A00376263323839007374645F6D7367732F7A
:103A1A0054696D650072696768745F7469636B7372
:103A2A00006C6566745F7469636B73006C656674B9
:103A3A005F776865656C5F76656C00726967687444
:103A4A005F776865656C5F76656C00636D645F7649
:043A5A00656C000097
:00000001FF
