:100000000C9462000C945D100C9436100C948A00D1
:100010000C948A000C948A000C948A000C948A0038
:100020000C948A000C948A000C948A000C948A0028
:100030000C948A000C948A000C948A000C948A0018
:100040000C94EC0F0C948A000C94AA100C9484105D
:100050000C948A000C948A000C948A000C948A00F8
:100060000C948A000C948A000000000024002700F1
:100070002A0000000000250028002B0000000000DE
:1000800023002600290004040404040404040202DA
:100090000202020203030303030301020408102007
:1000A0004080010204081020010204081020000012
:1000B0000008000201000003040700000000000027
:1000C0000000DC1011241FBECFEFD8E0DEBFCDBF93
:1000D00014E0A0E0B1E0E4ECF7E302C005900D927B
:1000E000A635B107D9F728E0A6E5B4E001C01D9216
:1000F000AB38B207E1F710E0C2E6D0E004C02197C8
:10010000FE010E946B17C136D107C9F70E94661223
:100110000C94E01B0C9400008F929F92AF92BF92C0
:10012000CF92DF92EF92FF92CF93DF93EC0128EB17
:100130003EE145E05DE36C817D818E819F810E947F
:10014000F2176B017C012DE33AE047E95EE36A8D2B
:100150007B8D8C8D9D8D0E94511928EB3EE145E8E9
:100160005DE30E94F2174B015C01AC019B01C701EA
:10017000B6010E9481170E9464186F3F710519F043
:1001800014F06FEF70E061308FEF780714F461E0E6
:100190007FEF7093670460936604A5019401C70123
:1001A000B6010E9480170E9464186F3F710519F014
:1001B00014F06FEF70E061308FEF780714F461E0B6
:1001C0007FEF7093650460936404DF91CF91FF909B
:1001D000EF90DF90CF90BF90AF909F908F90089559
:1001E000E4EDF7E030E020E041915191452B91F4AE
:1001F000F901EE0FFF1FEC52F84F918380832358D3
:100200003F4FFC01358324832CE835E03783268378
:1002100081E008952F5F3F4F2931310529F780E0B4
:100220000895833081F028F4813099F08230A9F06C
:1002300008958730A9F08830C9F08430B1F48091F6
:1002400080008F7D03C0809180008F778093800035
:10025000089584B58F7784BD089584B58F7DFBCFD5
:100260008091B0008F778093B00008958091B000A6
:100270008F7DF9CFCF93DF93282F30E0F901E2553E
:10028000FF4F8491F901E656FF4FD491F901EA57E7
:10029000FF4FC491CC23A1F081110E941101EC2FDA
:1002A000F0E0EE0FFF1FE458FF4FA591B491EC91E1
:1002B000ED2381E090E009F480E0DF91CF91089593
:1002C00080E090E0FACF1F93CF93DF93282F30E0A8
:1002D000F901E255FF4F8491F901E656FF4FD491A1
:1002E000F901EA57FF4FC491CC23A9F0162F8111D1
:1002F0000E941101EC2FF0E0EE0FFF1FEE58FF4FB0
:10030000A591B4918FB7F894EC91111108C0D095D4
:10031000DE23DC938FBFDF91CF911F910895DE2BF9
:10032000F8CFCF93DF9390E0FC01E656FF4F249186
:100330008A579F4FFC0184918823D1F090E0880F69
:10034000991FFC01E859FF4FA591B491FC01EE58AB
:10035000FF4FC591D49161110EC09FB7F8948C9155
:10036000E22FE0958E238C932881E223E8839FBFC0
:10037000DF91CF9108958FB7F894EC91E22BEC9335
:100380008FBFF6CF1F93CF93DF93182FEB0161E060
:100390000E949101209739F460E0812FDF91CF9185
:1003A0001F910C946301CF3FD10511F461E0F5CFAB
:1003B000E12FF0E0E255FF4FE491E33031F140F4FA
:1003C000E130B1F0E230E1F0C038D1057CF7E4CFA4
:1003D000E73029F1E83059F1E430B1F7809180003D
:1003E000806280938000D0938B00C0938A0004C009
:1003F00084B5806884BDC7BDDF91CF911F910895FA
:1004000084B5806284BDC8BDF7CF809180008068CC
:1004100080938000D0938900C0938800EDCF8091B5
:10042000B00080688093B000C093B300E5CF8091A6
:10043000B00080628093B000C093B400DDCF60E074
:1004400089E00E94630160E08AE00E94630170E03D
:1004500060E08BE00E94C20160E087E00E946301DF
:1004600060E088E00E94630170E060E086E00C9448
:10047000C2012FB7F8946091990470919A04809109
:100480009B0490919C042FBF089585E00E943A013F
:10049000181619065CF18FEF9FEF40919004509170
:1004A00091046091920470919304092E000CAA0BA0
:1004B000BB0B840F951FA61FB71F809390049093CA
:1004C0009104A0939204B09393048091900490912E
:1004D0009104A0919204B091930480934605909367
:1004E0004705A0934805B0934905089581E090E041
:1004F000D4CF84E00E943A01181619065CF181E01D
:1005000090E040918C0450918D0460918E04709124
:100510008F04092E000CAA0BBB0B840F951FA61F7E
:10052000B71F80938C0490938D04A0938E04B09396
:100530008F0480918C0490918D04A0918E04B091D1
:100540008F048093560590935705A0935805B09358
:10055000590508958FEF9FEFD4CF0895AF92BF92C2
:10056000CF92DF92EF92FF920F931F93CF93DF937F
:100570006C017B018B01040F151FEB015E01AE18AE
:10058000BF08C017D10759F06991D601ED91FC91D0
:100590000190F081E02DC6010995892B79F7C501FD
:1005A000DF91CF911F910F91FF90EF90DF90CF904F
:1005B000BF90AF900895FC01538D448D252F30E0FE
:1005C000842F90E0821B930B541710F0CF96089560
:1005D00001970895FC01918D828D981761F0A28D8D
:1005E000AE0FBF2FB11D5D968C91928D9F5F9F7353
:1005F000928F90E008958FEF9FEF0895FC01918D09
:10060000828D981731F0828DE80FF11D858D90E075
:1006100008958FEF9FEF0895FC01918D228D892F12
:1006200090E0805C9F4F821B91098F7399270895FA
:100630008DE994E00E940C0321E0892B09F420E06D
:10064000822F089580E090E0892B29F00E94180302
:1006500081110C9400000895FC01A48DA80FB92FFE
:10066000B11DA35ABF4F2C91848D90E001968F73DA
:100670009927848FA689B7892C93A089B1898C91F9
:10068000837080648C93938D848D981306C0028848
:10069000F389E02D80818F7D80830895EF92FF9212
:1006A0000F931F93CF93DF93EC0181E0888F9B8D95
:1006B0008C8D98131AC0E889F989808185FF15C04F
:1006C0009FB7F894EE89FF896083E889F989808172
:1006D0008370806480839FBF81E090E0DF91CF9141
:1006E0001F910F91FF90EF900895F62E0B8D10E063
:1006F0000F5F1F4F0F731127E02E8C8D8E110CC0D2
:100700000FB607FCFACFE889F989808185FFF5CF1C
:10071000CE010E942C03F1CFEB8DEC0FFD2FF11DCC
:10072000E35AFF4FF0829FB7F8940B8FEA89FB8959
:1007300080818062CFCFCF93DF93EC01888D8823B7
:10074000B9F0AA89BB89E889F9898C9185FD03C034
:10075000808186FD0DC00FB607FCF7CF8C9185FF19
:10076000F2CF808185FFEDCFCE010E942C03E9CF2F
:10077000DF91CF9108958A549D4FFC0180810895A7
:1007800082ED91E0089583EF91E00895FC0186A148
:1007900097A10895AF92BF92CF92DF92EF92FF920E
:1007A0000F931F93CF93DF9300D000D01F92CDB74C
:1007B000DEB7643671054CF0FC01EA54FD4F208130
:1007C000F12CE12C222309F476C0DA017B018C01A3
:1007D000BC01695C7E4FED91FC910190F081E02DB0
:1007E000CA010995680120EDC21A2EEFD20A2FEF37
:1007F000D6012C93F801EF5CFE4F2EEF208331964B
:100800008083319690833196292F280F209520835D
:100810003196E0821696FC9245E050E030E020E010
:10082000DC011696A417B50734F06191260F311D2F
:100830004F5F5F4FF7CF7C01B8E0EB0EF11C800FEC
:10084000911FFC01E95CFE4F20952083E9E1EE1643
:10085000E1E0FE06B4F45601C5018C199D098E1520
:100860009F054CF5D80112968D919C91F5016191EF
:100870005F01DC01ED91FC910190F081E02D099583
:10088000EBCF82E491E09A83898383E08B8387E0D6
:1008900092E09D838C83D801ED91FC910190F081D1
:1008A000E02DAE014F5F5F4F67E070E0C801099532
:1008B000EE24EA94FE2CC7010F900F900F900F903A
:1008C0000F90DF91CF911F910F91FF90EF90DF90EC
:1008D000CF90BF90AF9008950F931F93CF93DF9366
:1008E000CDB7DEB72A970FB6F894DEBF0FBECDBFE7
:1008F0008C0186E391E09A8389831B821C821D828E
:100900001E821F82188619861A86D801ED91FC91E5
:100910000190F081E02DAE014F5F5F4F6AE070E023
:10092000C80109950E943902F801608771878287A2
:1009300093872A960FB6F894DEBF0FBECDBFDF9126
:10094000CF911F910F910895CF92DF92EF92FF9276
:10095000DC011D921D921D921C921397FB0130E049
:1009600020E0419150E0022E02C0440F551F0A942E
:10097000E2F7052E000C660B770BCD90DD90ED9025
:10098000FC9013974C295D296E297F294D935D9327
:100990006D937C931397285F3F4F2032310509F701
:1009A000FF90EF90DF90CF900895FC01408351833A
:1009B00012821382089580E492E0089581E692E025
:1009C0000895FB014081518162817381FC01428362
:1009D00053836483758384E090E00895DC01FB0118
:1009E00012964C91129713962C91139714969C91F2
:1009F000149715968C91408321839283838384E09E
:100A000090E0089580E792E0089581E992E00895EA
:100A100087EA92E0089588EC92E008958CED92E0E8
:100A200008958DEF92E00895FB014081518162812C
:100A30007381FC01428353836483758384E090E077
:100A40000895EF92FF920F931F93CF93DF937C0152
:100A5000EB0188819981F701958384838A819B8149
:100A6000918780876C5F7F4FC7010A960E941405AB
:100A70008C010C5F1F4FBE01600F711FC7014096B4
:100A80000E941405800F911FC80FD91F2881F701FC
:100A9000208F0196DF91CF911F910F91FF90EF90E2
:100AA0000895FB01DC0112964C91129713963C912C
:100AB000139714962C91149715968C91408331833B
:100AC0002283838384E090E00895EF92FF920F9356
:100AD0001F93CF93DF938C01EB01FC0194818581FF
:100AE00098838983908581859A838B836C5F7F4F00
:100AF000C8010A960E94510504967C01BE01680F48
:100B0000791FC80140960E9451058E0D9F1DC80F88
:100B1000D91FF801208D28830196DF91CF911F9175
:100B20000F91FF90EF9008958EE093E008958FE28B
:100B300093E00895FB0120813181FC0133832283FE
:100B400082E090E00895FC0122818381FB012083F3
:100B5000818382E090E008958EE393E008958FE52D
:100B600093E00895FB012081FC01228381E090E065
:100B70000895FC018281FB01808381E090E008956B
:100B8000AB01FC01A681B78164817581ED91FC9177
:100B900011970190F081E02DCD0109948DE693E04D
:100BA00008958AE091E008958EE893E008958FEA31
:100BB00093E008954F925F926F927F928F929F92EF
:100BC000AF92BF92EF92FF920F931F93CF93DF9359
:100BD00000D000D0CDB7DEB77C018B01FB01819145
:100BE000BF01F7018283CE0101960E94A40489818E
:100BF0009A81AB81BC814C015D01F5E08F0E911CA7
:100C0000A11CB11CA8014C5F5F4FFA0125E030E048
:100C10002901712C612C481459046A047B0428F4BE
:100C2000618161932F5F3F4FF3CFF801E80FF91F08
:100C30001482F7015483438305960F900F900F9011
:100C40000F90DF91CF911F910F91FF90EF90BF9088
:100C5000AF909F908F907F906F905F904F9008958E
:100C600082EC93E0089583EE93E008954F925F92B3
:100C70006F927F928F929F92AF92BF92CF92DF92AC
:100C8000EF92FF920F931F93CF93DF93CDB7DEB711
:100C90002C970FB6F894DEBF0FBECDBF7C018B0141
:100CA000DB018C9190E0F7019383828311962C9164
:100CB000922B938382836E5F7F4FCE0101960E94B9
:100CC000A40489809A80AB80BC8024013501F6E0C1
:100CD0004F0E511C611C711C98012B5F3F4FF90195
:100CE00086E090E0AC0170E060E0441555056605D3
:100CF000770520F4418141930196F4CFB4016A5FF6
:100D00007F4FF801E80DF91D1582D70115963C9328
:100D10002E931497600F711FCE0105960E94A404B4
:100D2000BAE08B0E911C4D805E806F807884C40188
:100D3000092C000CAA0BBB0B5C016D01A40CB51CAB
:100D4000C61CD71CF801E80DF91DAF01401B510B63
:100D500070E060E04A155B056C057D0538F4219173
:100D6000AF0142505109DA012C93EFCF480C591CC6
:100D7000B801640D751DFB0131971082C401019704
:100D8000800F911FF70197838683CE0109960E94F9
:100D9000A40492012C5F3F4F89849A84AB84BC8465
:100DA000A901032E000C660B770B480D591D6A1D17
:100DB0007B1DF801E20FF31FCF01801B910BB0E008
:100DC000A0E084179507A607B70728F48191DF01F3
:100DD00012978C93F1CFC901880D991DF801E80F86
:100DE000F91FDF0111971C9221503109020F131FC7
:100DF000D70119961C930E9318972181428150E0D8
:100E000070E060E0BA0155274427522B2081422B25
:100E10002381722BF7014287538764877587049675
:100E20002C960FB6F894DEBF0FBECDBFDF91CF91E9
:100E30001F910F91FF90EF90DF90CF90BF90AF90F8
:100E40009F908F907F906F905F904F9008958CEF60
:100E500093E008958DE194E00895FC01DB014C914D
:100E600050E070E060E042835383648375831196A1
:100E70008C911197582B4283538364837583129608
:100E80008C911297682B42835383648375831396E6
:100E90008C911397782B42835383648375831496C4
:100EA0004C91149750E070E060E046835783608770
:100EB000718715968C911597582B468357836087B9
:100EC000718716968C911697682B46835783608797
:100ED000718717968C91782B46835783608771872B
:100EE00088E090E00895DC01FB0112968C91129746
:100EF000808313968C911397818314968C91149709
:100F0000828315968C911597838316968C911697EC
:100F1000848317968C911797858318968C911897D0
:100F2000868319968C91878388E090E00895CF920C
:100F3000DF92EF92FF920F931F93FC01DB01C380BE
:100F40000C2D10E030E020E045E036952795179510
:100F500007954A95D1F70D931D932D933C931397C5
:100F60008481C82ED12CF12CE12C53E0CC0CDD1C5B
:100F7000EE1CFF1C5A95D1F7C02AD12AE22AF32A87
:100F8000CD92DD92ED92FC9213978581082F10E0AF
:100F900030E020E06BE0000F111F221F331F6A9525
:100FA000D1F70C291D292E293F290D931D932D932F
:100FB0003C931397468150E070E060E083E1440F7A
:100FC000551F661F771F8A95D1F7442755276877E5
:100FD0007727042B152B262B372B0D931D932D9341
:100FE0003C931397478150E070E060E094E0440F39
:100FF000551F661F771F9A95D1F7407F5770662758
:101000007727C680D12CF12CE12C84E0F694E7946C
:10101000D794C7948A95D1F74C295D296E297F29E9
:101020004115510561057105A1F040585340610912
:10103000710997E1440F551F661F771F9A95D1F7E5
:10104000402B512B622B732B4D935D936D937C93AF
:101050001397478150E070E060E0742F66275527B2
:10106000442744275527662770780D911D912D91AF
:101070003C911397402B512B622B732B4D935D9317
:101080006D937C93139788E090E01F910F91FF90F0
:10109000EF90DF90CF900895EF92FF920F931F9300
:1010A000CF93DF938C017B01BC016E5F7F4FC70143
:1010B0000E949707EC01B8016A5F7F4FC7018C0F50
:1010C0009D1F0E949707C80FD91FB801665F7F4F09
:1010D000C7018C0F9D1F0E9497078C0F9D1FDF91EA
:1010E000CF911F910F91FF90EF900895EF92FF9293
:1010F0000F931F93CF93DF937C01EB0102960E9425
:101100004C088C01BE01680F791FC70140960E94F0
:101110004C08800F911FDF91CF911F910F91FF908D
:10112000EF9008950F931F93CF93DF938C01EC0101
:101130002696CE010E947608D8019496ED91FC91F6
:10114000CE01DF91CF911F910F9109948F929F92C1
:10115000AF92BF92CF92DF92EF92FF92CF93DF9345
:10116000EC014A015B01DB01CA0147E1B595A79596
:10117000979587954A95D1F79927AA27BB27009776
:10118000A105B10521F080589C4FAF4FBF4F188289
:1011900019821A82B501A40125E0440F551F661F6C
:1011A000771F2A95D1F74B83B501A40133E07595DC
:1011B0006795579547953A95D1F74C83B501A401AA
:1011C000EBE07595679557954795EA95D1F74D836F
:1011D000B501A401F3E17595679557954795FA9583
:1011E000D1F74F706C017D0124E0CC0CDD1CEE1CAE
:1011F000FF1C2A95D1F74C294E836C017D0134E008
:10120000F594E794D794C7943A95D1F720E030E06D
:10121000A901C501B4010E94ED1787FD0EC0CF8260
:1012200088E090E0DF91CF91FF90EF90DF90CF903A
:10123000BF90AF909F908F9008958C2D80688F8382
:10124000EFCFEF92FF920F931F93CF93DF937C0129
:101250008B01FC014281538164817581C8010E9428
:10126000A608EC01F7014681578160857185C801A8
:101270008C0F9D1F0E94A608C80FD91FF701428539
:10128000538564857585C8018C0F9D1F0E94A60833
:101290008C0F9D1FDF91CF911F910F91FF90EF90C9
:1012A0000895EF92FF920F931F93CF93DF937C01EA
:1012B000EB0102960E9421098C01BE01680F791F83
:1012C000C70140960E942109800F911FDF91CF91A5
:1012D0001F910F91FF90EF9008952F923F924F92A0
:1012E0005F926F927F928F929F92AF92BF92CF92B6
:1012F000DF92EF92FF920F931F93CF93DF93CDB7BF
:10130000DEB72E970FB6F894DEBF0FBECDBF8C01AF
:101310006B01DB018D909D90AD90BC90FC018281B2
:101320009381A481B58188159905AA05BB0570F440
:10133000B401660F771F660F771F828593850E9421
:10134000BE19D8011B969C938E931A97F80182823E
:101350009382A482B582C60140E050E0BA01A4E0C5
:10136000EA2EF12C98012A5F3F4FDC011596EC9193
:10137000159716964C901697512C712C612C3201B2
:10138000552444245E2A1496EC9114974E2A1796FD
:10139000EC917E2AD7011701E4E02E0E311C710179
:1013A0000496F80182809380A480B5804815590581
:1013B0006A057B05A8F44682578260867186149779
:1013C000A284B384AA0DBB1DE4E0BE2EF9010190F6
:1013D0000D92BA94E1F74F5F5F4F6F4F7F4FC5CFCC
:1013E00084859585A685B78584159505A605B705D9
:1013F00070F4B201660F771F660F771F8489958995
:101400000E94BE19D80155969C938E935497F8016B
:101410004486558666867786C601820D931D412CCB
:10142000512C32011C019801205F3F4FDC011196C5
:101430006C91119712968C901297912CB12CA12C33
:10144000540199248824962A6C91862A13966C91CB
:10145000B62AB4E0EB0EF11CF8014485558566858B
:1014600077854416550666067706C0F4808A918A09
:10147000A28AB38ABC0162197309A489B589A60F2F
:10148000B71F64E0F90101900D926A95E1F7BFEF93
:101490004B1A5B0A6B0A7B0A0496C8CF8689978928
:1014A000A08DB18D88159905AA05BB0560F4B4011E
:1014B000660F771F848D958D0E94BE19D8015D96A9
:1014C0009C938E935C97F801868A978AA08EB18E42
:1014D000412C512C32011801FAE12F0E311CF80178
:1014E00086899789A08DB18D481659066A067B06B4
:1014F00008F05CC0B6016E0D7F1DCE0101960E9402
:10150000A40497012C5F3F4F3E872D8789809A80E6
:10151000AB80BC80C901032E000CAA0BBB0BAC0135
:10152000BD01480D591D6A1D7B1D49875A876B8770
:101530007C87F901EC0DFD1D9F012C193D09B901B6
:1015400090E080E029853A854B855C8562177307BA
:101550008407950728F42191DF0112972C93ECCF93
:10156000ED84FE84E80CF91CF601EE0DFF1D3197A9
:1015700010828D859E8501978C0D9D1DD8015B96EF
:101580009C938E935A97C201880F991F5C96ED9198
:10159000FC91E80FF91FD1018D919C91918380837B
:1015A000BFEF4B1A5B0A6B0A7B0A99CFC7012E96D5
:1015B0000FB6F894DEBF0FBECDBFDF91CF911F9164
:1015C0000F91FF90EF90DF90CF90BF90AF909F90E2
:1015D0008F907F906F905F904F903F902F900895E5
:1015E0002F923F924F925F926F927F928F929F9233
:1015F000AF92BF92CF92DF92EF92FF920F931F9321
:10160000CF93DF93CDB7DEB7A6970FB6F894DEBFC2
:101610000FBECDBF8C010E9439024B015C019801C5
:1016200025543D4F3E8B2D8BF90180819181A28104
:10163000B38175016401C81AD90AEA0AFB0AD70105
:10164000C601893F9A42A105B10510F03597108275
:10165000180134E5231A3DEF330AD1018D919C9195
:10166000892B79F0F801E154FD4F80819181A281AD
:10167000B38188159905AA05BB0518F4F1011182FB
:10168000108298012C543D4F3A8B298BA80140556C
:101690005D4F5C8B4B8BC8014896988F8F8BD80120
:1016A000AA54BD4FBC8FAB8FF801EC53FD4FFE8F9A
:1016B000ED8F215F3F4F38A32F8F42505109588B38
:1016C0004F8786569D4F9A8F898F1996BAA3A9A3E3
:1016D000A50194012C5E3F4F4F4F5F4F2BA33CA3BE
:1016E0004DA35EA3F80184899589A689B789892BC2
:1016F0008A2B8B2BB9F5D80112968D919C91DC0128
:10170000ED91FC910284F385E02D09959C0197FFF2
:101710003DC0F801EA54FD4F8081882301F1780132
:10172000B9E4EB1ABDEFFB0AF70180819181A28138
:10173000B381A5019401281B390B4A0B5B0BDA011D
:10174000C901853C9940A105B10548F0C8010E9436
:101750006C04D7018D929D92AD92BC92139790E04C
:1017600080E0B8C10E943902681979098A099B0989
:10177000F801C488D588E688F788C616D706E80633
:10178000F90608F0B8CF8EEF9FEFA4C1A989BA89F6
:101790008D919C911197820F931F8D939C93F101D2
:1017A0004081518147305105F9F4A98DBA8D8D9151
:1017B0009C911197AC014F5F5F4F4D935C93800FED
:1017C000911FFC01208FAF85B8898D919C91119755
:1017D00001978D939C93892B09F084CF88E090E04A
:1017E000F101918380837ECF4115510521F52F3F73
:1017F000310581F481E090E091838083CBA0DCA06F
:10180000EDA0FEA0A9A1BAA1CD92DD92ED92FC922D
:10181000139768CF0E943902681979098A099B09D0
:10182000693873418105910508F45CCFF801EA54E9
:10183000FD4F1082A8CF4130510589F42E3F31056C
:1018400019F482E090E0CCCF11821082EB8DFC8DF8
:101850008081811147CFC8010E946C0443CF423080
:10186000510591F4AF85B8892D933C93E98DFA8D9C
:101870001182108283E090E0D1018D939C93E989DD
:10188000FA89318320832ECF4330510571F4322FF2
:101890002227AF85B8898D919C911197280F391F08
:1018A0002D933C9384E090E09BCF4430510579F434
:1018B00060E071E00E9416178F3F910529F485E0E2
:1018C00090E0918380830ECF118210820BCF453040
:1018D000510569F4AB89BC892D933C9386E090E077
:1018E00091838083A989BA892D933C93FBCE46309E
:1018F0005105A1F4322F2227EB89FC898081918147
:10190000280F391F3183208387E090E0D1018D9328
:101910009C93EF85F889808191815DCF4830510596
:1019200009F0E0CE1182108260E071E00E9416178B
:101930008F3F910509F0D6CEAB89BC89ED91FC9122
:10194000309709F0E0C0C8010E946C048AE291E07F
:101950009A8389831C821B828FE392E09E838D830E
:1019600098878F839A8789871B861C861D861E868B
:101970006801B8EBCB1ABDEFDB0A7801E6E8EE1A96
:10198000EDEFFE0A28E1422E55245394612C712C70
:10199000D601ED91FC913097A9F1848195819C83CA
:1019A0008B83808191819E838D8382819381DC01F1
:1019B000ED91FC910480F581E02D099598878F8346
:1019C000D601ED91FC9182819381DC01ED91FC9136
:1019D0000680F781E02D09959A8789874B865C867A
:1019E0006D867E86D601ED91FC9160857185D8016A
:1019F000ED91FC910190F081E02DAE014F5F5F4FC2
:101A0000C8010995B2E0CB0ED11CEC14FD0409F01D
:101A1000BFCF98E1492E55245394612C712CF701C6
:101A2000A081B1811097E1F112968D919C9113974D
:101A30009C838B8314968D919C9115979E838D83A7
:101A4000ED91FC9111970480F581E02DCD01099570
:101A500098878F83D7018D919C91DC01ED91FC914A
:101A60000680F781E02D09959A8789874B865C86E9
:101A70006D867E86D801ED91FC91C080D180F70102
:101A800080819181DC01ED91FC910280F381E02D58
:101A90000995AE014F5F5F4FBC01C801F601099582
:101AA000F2E0EF0EF11CE214F30409F0B8CFF801F4
:101AB000EA54FD4F81E08083319680829182A28238
:101AC000B382AD89BE898D929D92AD92BC921397DF
:101AD0008FEF9FEFA6960FB6F894DEBF0FBECDBF77
:101AE000DF91CF911F910F91FF90EF90DF90CF90FA
:101AF000BF90AF909F908F907F906F905F904F902E
:101B00003F902F900895EA30F10509F0A1C086E3D7
:101B100091E09A8389831B821C821D821E821F8210
:101B2000188619861A860E943902F801C084D18469
:101B3000E284F3849B01AC012C193D094E095F0935
:101B400069017A016F89788DCE0101960E942D0777
:101B5000C701B60128EE33E040E050E00E942A17AA
:101B600069017A019B01AC018B819C81AD81BE81B1
:101B70008C0D9D1DAE1DBF1D8B839C83AD83BE83CD
:101B800060E472E48FE090E00E940617CF80D88472
:101B9000E984FA84DC01CB018C0D9D1DAE1DBF1DB7
:101BA0008F839887A987BA870E943902CF80D8840B
:101BB000E984FA8436E3D31A35E6E30A34ECF30A0F
:101BC00028EE33E040E050E00E942A1729013A0154
:101BD0009B01AC0160E472E48FE090E00E94061784
:101BE000A7019601261B370B480B590BCA01B901F7
:101BF0002B813C814D815E81215031094109510980
:101C000069017A01C418D508E608F70826013701EA
:101C100020E03AEC4AE95BE30E942A17420E531E89
:101C2000641E751ED8011C964D925D926D927C9239
:101C30001F97F801608B718B828B938B0E94390206
:101C4000AD89BE896D937D938D939C9313974ACDF7
:101C5000E630F10559F46F89788D8D8D9E8D0E9447
:101C60006D0981E0EF8DF8A180833CCDEB30F1056B
:101C700021F4AB8DBC8D1C9235CDE752FF4FEE0F9A
:101C8000FF1FE00FF11F80819181009709F42ACD99
:101C9000DC01ED91FC910190F081E02D6F89788D50
:101CA000099520CD4F925F926F927F928F929F9273
:101CB000AF92BF92CF92DF92EF92FF920F931F935A
:101CC000CF93DF93EC017B018A81FB0180838B81C1
:101CD00081838C8182838D8183833496412C512C26
:101CE000320104E010E09F012F5F3F4FCF010296C9
:101CF000DF011396A8010C5F1F4F8A809B80AC8088
:101D0000BD80481459046A047B04C8F4AA85BB85C5
:101D1000A40FB51F14974C9111962C911197129600
:101D20009C91129713968C91408321839283838395
:101D30008FEF481A580A680A780A3496D4CF4C852F
:101D400040834D85F90140832E85FC0120838F85DA
:101D50008C93F701E00FF11F412C512C3201AF01A0
:101D60009F012F5F3F4FCF010296DF0113960C5F5B
:101D70001F4F8C849D84AE84BF84481459046A0428
:101D80007B04D8F4CF01841B950BAC89BD89A80FC7
:101D9000B91F3C9111962C91119712969C91129714
:101DA00013968C9130832183928383838FEF481A1B
:101DB000580A680A780A3496D3CF4E8940834F89EF
:101DC000F9014083288DFC012083898D8C93412C5F
:101DD000512C32018E899F89A88DB98D48165906DC
:101DE0006A067B0680F55201AA0CBB1CEC8DFD8DAA
:101DF000EA0DFB1DA081B181FD0101900020E9F7F2
:101E000031976F01CA1ADB0AA60170E060E0C701D2
:101E1000800F911F0E94D5040C5F1F4F8C8D9D8DEC
:101E2000A80EB91EF50160817181A601C701800F5E
:101E3000911F0E947B1A0C0D1D1DFFEF4F1A5F0AA8
:101E40006F0A7F0AC7CFC801DF91CF911F910F9111
:101E5000FF90EF90DF90CF90BF90AF909F908F90CA
:101E60007F906F905F904F900895EF92FF920F9345
:101E70001F93CF93DF938C017B01DC0112962C9191
:101E80001297FB012193CF011396ED91FC91EF0185
:101E900009900020E9F72197CE1BDF0BAE0170E01F
:101EA00060E00E94D504D80113966D917C91AE013B
:101EB000C70105960E947B1ACE010596DF91CF914E
:101EC0001F910F91FF90EF900895CF92DF92EF92C4
:101ED000FF920F931F93CF93DF936C01EB01DC0113
:101EE00012968C911297888313968C9113978983FD
:101EF0001496ED91FC91DF010D900020E9F78D0122
:101F0000015011090E1B1F0BA80170E060E0CE010B
:101F100002960E94D504F60164817581A801CE0164
:101F200006960E947B1AC8010696F601A681B78123
:101F3000FD0101900020E9F731977F01EA1AFB0AC1
:101F4000A70170E060E08C0F9D1F0E94D504065F22
:101F50001F4FD60116966D917C91A701CE01800F7F
:101F6000911F0E947B1A0E0D1F1DF601A085B185E1
:101F7000FD0101900020E9F731977F01EA1AFB0A81
:101F8000A70170E060E0CE01800F911F0E94D50490
:101F90000C5F1F4FD60118966D917C91A701CE0161
:101FA000800F911F0E947B1AC701800F911FF601BD
:101FB0006285438534852585C80FD91F6883498389
:101FC0003A832B830496DF91CF911F910F91FF905D
:101FD000EF90DF90CF9008951F920F920FB60F925F
:101FE00011242F933F938F939F93AF93BF9380912F
:101FF000990490919A04A0919B04B0919C04309113
:10200000980423E0230F2D3758F50196A11DB11D2B
:10201000209398048093990490939A04A0939B042E
:10202000B0939C048091940490919504A09196049F
:10203000B09197040196A11DB11D809394049093D3
:102040009504A0939604B0939704BF91AF919F918C
:102050008F913F912F910F900FBE0F901F90189569
:1020600026E8230F0296A11DB11DD2CF1F920F9219
:102070000FB60F9211242F933F934F935F936F935B
:102080007F938F939F93AF93BF93EF93FF93E091D1
:102090000201F09103010995FF91EF91BF91AF917A
:1020A0009F918F917F916F915F914F913F912F9170
:1020B0000F900FBE0F901F9018951F920F920FB6A2
:1020C0000F9211242F933F934F935F936F937F93BE
:1020D0008F939F93AF93BF93EF93FF93E091000192
:1020E000F09101010995FF91EF91BF91AF919F91FF
:1020F0008F917F916F915F914F913F912F910F90B1
:102100000FBE0F901F9018951F920F920FB60F924F
:1021100011242F933F934F935F936F937F938F93EC
:102120009F93AF93BF93EF93FF938DE994E00E9449
:102130002C03FF91EF91BF91AF919F918F917F9170
:102140006F915F914F913F912F910F900FBE0F9024
:102150001F9018951F920F920FB60F9211242F9374
:102160008F939F93EF93FF93E091AD04F091AE04B2
:102170008081E091B304F091B40482FD1BC0908192
:102180008091B6048F5F8F732091B704821741F05E
:10219000E091B604F0E0E356FB4F958F8093B604D0
:1021A000FF91EF919F918F912F910F900FBE0F9004
:1021B0001F9018958081F4CF1092A00410929F0474
:1021C00088EE93E0A0E0B0E08093A1049093A20495
:1021D000A093A304B093A4048EE491E090939E0492
:1021E00080939D0485EC90E09093AA048093A904C9
:1021F00084EC90E09093AC048093AB0480EC90E08E
:102200009093AE048093AD0481EC90E09093B00481
:102210008093AF0482EC90E09093B2048093B10479
:1022200086EC90E09093B4048093B3041092B604CB
:102230001092B7041092B8041092B90482EB91E0A6
:1022400090936F0880936E0886EA91E090937108EE
:10225000809370081092730810927208909375081A
:102260008093740810927708109276088AE991E0BA
:10227000909379088093780810927A0810927B08DE
:1022800010927C0810927D0890937F0880937E08BE
:102290001092800810928108109282081092830890
:1022A0008EE891E0909385088093840810928608C8
:1022B00084E891E090938D0580938C058DE994E0FE
:1022C00090938F0580938E0580E091EEA0E0B0E0C2
:1022D0008093900590939105A0939205B0939305F8
:1022E0001092420888E791E090935108809350083B
:1022F0001092660810926708109268081092690898
:1023000010926D0810926C08E4EDF7E011921192B2
:1023100088E0E630F807D1F7E6E0F8E01192119294
:1023200088E0E833F807D1F7E4EAF5E08CEB96E0D3
:1023300011928E179F07E1F7ECEBF6E0119287E020
:10234000E43DF807D9F71092520810925308109202
:1023500054081092550810925B0810925A08109277
:102360005C0810925D0810925E0810925F0810924F
:102370006508109264081092A0051092A1051092B1
:10238000A2051092A3058AEC91E0909365058093D5
:1023900064058CE691E090936B0580936A0580E676
:1023A00091E090936D0580936C0510926E051092EC
:1023B0006F051092700510927105109272051092BF
:1023C000730510927405109275051092760510929F
:1023D0007705109278051092790590937B0580938C
:1023E0007A0510927C0510927D0510927E05109260
:1023F0007F0510928005109281051092820510923F
:10240000830510928405109285051092860510921E
:1024100087058CE890E0909389058093880581E09A
:1024200090E090938B0580938A058BE294E09093E3
:1024300069058093680584E394E090935B0580933D
:102440005A058EE698E090935D0580935C051092A6
:102450006305109262058EEB91E090935505809391
:102460005405109256051092570510925805109277
:1024700059052EE334E030934B0520934A0524E5BB
:1024800035E030934D0520934C0510925305109282
:10249000520590934505809344051092460510928D
:1024A000470510924805109249058AE494E09093FC
:1024B0003B0580933A0584E495E090933D05809335
:1024C0003C0510924305109242050895CF93DF9387
:1024D000CDB7DEB728970FB6F894DEBF0FBECDBFDD
:1024E000789484B5826084BD84B5816084BD85B5EF
:1024F000826085BD85B5816085BD80916E008160FB
:1025000080936E00109281008091810082608093A0
:1025100081008091810081608093810080918000A2
:102520008160809380008091B10084608093B100CD
:102530008091B00081608093B00080917A008460C7
:1025400080937A0080917A00826080937A008091F3
:102550007A00816080937A0080917A00806880930D
:102560007A001092C10061E089E00E94910161E06F
:102570008AE00E94910161E08BE00E94910161E09C
:1025800087E00E94910161E088E00E94910161E092
:1025900086E00E94910160E083E00E94910160E08A
:1025A00085E00E94910160E082E00E94910160E07C
:1025B00082E00E9491010E941F0220918E053091BD
:1025C0008F053A832983C0909005D0909105E090C3
:1025D0009205F090930560E079E08DE390E0A7012B
:1025E00096010E942A172150310941095109569537
:1025F000479537952795A981BA815096ED91FC9121
:1026000082E08083C114B1EEDB06E104F10421F025
:102610002115E0E13E07B0F0A981BA815096ED9115
:10262000FC91108260E874E88EE190E0A7019601C9
:102630000E942A17215031094109510956954795A1
:1026400037952795A981BA811C96ED91FC911D972C
:1026500030831E96ED91FC911F97208358961C9213
:1026600058975496ED91FC91559786E08083529649
:10267000ED91FC9153978081806180835296ED911A
:10268000FC9153978081886080835296ED91FC91F4
:1026900053978081806880835296ED91FC91808170
:1026A0008F7D8083109239081092380810923B0871
:1026B00010923A0810923F0810923E0810923D087E
:1026C00010923C0880E091EEA0E0B0E0809390058D
:1026D00090939105A0939205B0939305E6E0F8E0FE
:1026E00090E080E021913191232B09F0F1C2FC01AF
:1026F000EE0FFF1FEA5FF74F24E635E031832083BA
:102700008C599F4F90936705809366058AE595E005
:102710000E94F0008AE495E00E94F0008AE395E0D0
:102720000E94F00085E492E09093030180930201FF
:10273000809169008C6080936900E99A89E792E052
:1027400090930101809300018091690083608093E0
:102750006900E89A0E94390260935E0470935F04F6
:10276000809360049093610400E010E08FB7F894C8
:102770004090900450909104609092047090930463
:1027800080908C0490908D04A0908E04B0908F0463
:102790008FBF3FB7F8948091940490919504A091D5
:1027A0009604B091970426B5A89B05C02F3F19F059
:1027B0000196A11DB11D3FBFBA2FA92F982F8827C1
:1027C000820F911DA11DB11D6C017D0142E0CC0C59
:1027D000DD1CEE1CFF1C4A95D1F780918804909176
:1027E0008904A0918A04B0918B04A7019601281B4B
:1027F000390B4A0B5B0BCA01B9010E949C1820E0FF
:1028000034E244E759E40E94F21769837A838B83A8
:102810009C838091860490918704092E000CAA0B5A
:10282000BB0BA3019201281B390B4A0B5B0BCA019E
:10283000B9010E949C1829813A814B815C810E94D8
:10284000F2176D837E838F8398875092870440921E
:1028500086048091840490918504092E000CAA0BB3
:10286000BB0BA5019401281B390B4A0B5B0BCA015A
:10287000B9010E949C1829813A814B815C810E9498
:10288000F2172B013C019092850480928404C0923F
:102890008804D0928904E0928A04F0928B0420E0AC
:1028A00030E846E554E46D817E818F8198850E94F1
:1028B000F21720E030E040E752E40E9451194B014A
:1028C0005C0120E030E846E554E4C301B2010E9417
:1028D000F21720E030E040E752E40E9451196B010A
:1028E0007C012EEB3FE94AE55FE360918004709143
:1028F000810480918204909183040E9451192B01DC
:102900003C012BE238E145E95DE3C501B4010E94D9
:1029100051199B01AC01C301B2010E9481172B0127
:102920003C012BE238E145E95DE360917C04709164
:102930007D0480917E0490917F040E9451199B0137
:10294000AC01C301B2010E948117609380047093AF
:102950008104809382049093830480927C049092FB
:102960007D04A0927E04B0927F042EEB3FE94AE5FD
:102970005FE3609178047091790480917A0490917A
:102980007B040E9451194B015C012BE238E145E9BF
:102990005DE3C701B6010E9451199B01AC01C5015D
:1029A000B4010E9481174B015C012BE238E145E93B
:1029B0005DE3609174047091750480917604909148
:1029C00077040E9451199B01AC01C501B4010E941A
:1029D0008117609378047093790480937A049093BC
:1029E0007B04C0927404D0927504E0927604F09255
:1029F00077040E9439028090700490907104A09036
:102A00007204B09073049B01AC01281939094A097A
:102A10005B0949015A013FE183169104A104B10405
:102A2000A4F0609370047093710480937204909387
:102A3000730464E475E08AE395E00E94C00564E5F0
:102A400075E08AE495E00E94C00580908004909033
:102A50008104A0908204B090830480927A089092BE
:102A60007B08A0927C08B0927D08C0907804D0903A
:102A70007904E0907A04F0907B04C0928008D092B0
:102A80008108E0928208F092830820E030E0A901FA
:102A9000C501B4010E944C19181624F0B7FAB0947D
:102AA000B7F8B094A501940160E070E080E791E48C
:102AB0000E9480172B013C01AC019B0169817A8146
:102AC0008B819C810E94511920916C0430916D047E
:102AD00040916E0450916F040E9481174B015C017C
:102AE00080926C0490926D04A0926E04B0926F0478
:102AF00020E030E040EA50E4C301B2010E945119E5
:102B00002B013C0120E030E040E251E4C501B4017A
:102B10000E9451199B01AC01C301B2010E948117AF
:102B20009F770E9464187E836D836F3F710529F043
:102B300024F08FEF90E09E838D83AD81BE81B093B2
:102B40007308A093720820E030E0A901C701B60124
:102B50000E944C19181624F0F7FAF094F7F8F09444
:102B6000A701960160E070E080E791E40E94801781
:102B70004B015C01AC019B0169817A818B819C8155
:102B80000E945119209168043091690440916A04AF
:102B900050916B040E9481176B017C01C092680404
:102BA000D0926904E0926A04F0926B0420E030E075
:102BB00040E251E4C501B4010E9451194B015C018E
:102BC00020E030E040EA51E4C701B6010E9451190B
:102BD0009B01AC01C501B4010E9481179F770E943F
:102BE00064187B016F3F710521F01CF0EE24EA941C
:102BF000F12CF0927708E0927608209166043091EB
:102C000067048091640490916504181619060CF00D
:102C100065C081E090E01216130614F082E090E0A7
:102C2000909363048093620480938608009709F070
:102C300067C010926C0410926D0410926E04109292
:102C40006F04109268041092690410926A04109242
:102C50006B040E941F0270E060E08BE00E94C201E2
:102C600070E060E086E00E94C2010E943902C090DC
:102C70005E04D0905F04E0906004F09061046C19F1
:102C80007D098E099F09653671058105910580F0E2
:102C90006EE678E08AE595E00E94C0050E94390260
:102CA00060935E0470935F0480936004909361046A
:102CB0008CE895E00E94F00A0115110509F456CD43
:102CC0000E941803882309F451CD0E9400004ECDC4
:102CD00001968931910509F005CD18CD009711F4C1
:102CE00037FD9CCF1216130644F0009709F498CFD5
:102CF00084E090E0232B09F093CF83E090E090CF25
:102D000081309105B9F461E089E00E94630160E0DF
:102D10008AE00E94630161E087E00E94630160E055
:102D200088E00E9463016D817E818BE00E94C20178
:102D3000B70198CF8230910509F042C061E089E087
:102D40000E94630160E08AE00E94630160E087E026
:102D50000E94630161E088E00E946301ED81FE81D1
:102D6000BF01FF0F880B990B0E949C182AE939E9D3
:102D700049E15FE30E9451190E9464189B0177FFAB
:102D800004C022273327261B370BB9018BE00E9492
:102D9000C201B701FF0C880B990B0E949C182AE90D
:102DA00039E949E15FE30E9451190E9464189B01CF
:102DB00077FF04C022273327261B370BB90152CFD8
:102DC00060E00397B1F489E00E94630161E08AE06A
:102DD0000E94630161E087E00E94630160E088E097
:102DE0000E9463012D813E81B901330F880B990B3D
:102DF000BBCF89E00E94630161E08AE00E94630129
:102E000060E087E00E94630161E08ACFDB018F937D
:102E10009F930E944C17BF91AF91A29F800D911D6F
:102E2000A39F900DB29F900D1124089597FB072E3C
:102E300016F4009407D077FD09D00E94571707FCBD
:102E400005D03EF4909581959F4F089570956195BA
:102E50007F4F0895A1E21A2EAA1BBB1BFD010DC0D6
:102E6000AA1FBB1FEE1FFF1FA217B307E407F5073A
:102E700020F0A21BB30BE40BF50B661F771F881F16
:102E8000991F1A9469F760957095809590959B01AC
:102E9000AC01BD01CF0108950E947117A59F900D4F
:102EA000B49F900DA49F800D911D11240895AA1B1D
:102EB000BB1B51E107C0AA1FBB1FA617B70710F025
:102EC000A61BB70B881F991F5A95A9F78095909557
:102ED000BC01CD010895EE0FFF1F0590F491E02D88
:102EE0000994A29FB001B39FC001A39F700D811DE3
:102EF0001124911DB29F700D811D1124911D089503
:102F00005058BB27AA270E9498170C9412190E94A8
:102F1000041938F00E940B1920F039F49F3F19F47E
:102F200026F40C9401190EF4E095E7FB0C94FB18C1
:102F3000E92F0E94231958F3BA1762077307840711
:102F4000950720F079F4A6F50C9445190EF4E09558
:102F50000B2EBA2FA02D0B01B90190010C01CA0153
:102F6000A0011124FF27591B99F0593F50F4503EFE
:102F700068F11A16F040A22F232F342F4427585FF0
:102F8000F3CF469537952795A795F0405395C9F708
:102F90007EF41F16BA0B620B730B840BBAF09150C0
:102FA000A1F0FF0FBB1F661F771F881FC2F70EC05F
:102FB000BA0F621F731F841F48F487957795679532
:102FC000B795F7959E3F08F0B0CF9395880F08F01E
:102FD0009927EE0F9795879508950E94D71808F4C2
:102FE00081E008950E9406180C9412190E940B1992
:102FF00058F00E94041940F029F45F3F29F00C9426
:10300000FB1851110C9446190C9401190E942319B4
:1030100068F39923B1F3552391F3951B550BBB2707
:10302000AA2762177307840738F09F5F5F4F220F4C
:10303000331F441FAA1FA9F335D00E2E3AF0E0E843
:1030400032D091505040E695001CCAF72BD0FE2F8D
:1030500029D0660F771F881FBB1F26173707480721
:10306000AB07B0E809F0BB0B802DBF01FF279358D9
:103070005F4F3AF09E3F510578F00C94FB180C948A
:1030800046195F3FE4F3983ED4F3869577956795AC
:10309000B795F7959F5FC9F7880F911D969587950E
:1030A00097F90895E1E0660F771F881FBB1F62172D
:1030B00073078407BA0720F0621B730B840BBA0BEB
:1030C000EE1F88F7E09508950E946B186894B1117F
:1030D0000C94461908950E942B1988F09F5798F078
:1030E000B92F9927B751B0F0E1F0660F771F881F0D
:1030F000991F1AF0BA95C9F714C0B13091F00E9427
:103100004519B1E008950C944519672F782F882749
:10311000B85F39F0B93FCCF3869577956795B3954D
:10312000D9F73EF490958095709561957F4F8F4FBC
:103130009F4F0895E89409C097FB3EF490958095C1
:10314000709561957F4F8F4F9F4F9923A9F0F92F6D
:1031500096E9BB279395F695879577956795B795EB
:10316000F111F8CFFAF4BB0F11F460FF1BC06F5FD1
:103170007F4F8F4F9F4F16C0882311F096E911C0E3
:10318000772321F09EE8872F762F05C0662371F004
:1031900096E8862F70E060E02AF09A95660F771F18
:1031A000881FDAF7880F9695879597F90895990FF4
:1031B0000008550FAA0BE0E8FEEF16161706E80701
:1031C000F907C0F012161306E407F50798F0621B22
:1031D000730B840B950B39F40A2661F0232B242BF7
:1031E000252B21F408950A2609F4A140A6958FEF16
:1031F000811D811D089597F99F6780E870E060E068
:1032000008959FEF80EC089500240A94161617067F
:1032100018060906089500240A94121613061406C7
:1032200005060895092E0394000C11F4882352F02A
:10323000BB0F40F4BF2B11F460FF04C06F5F7F4FE2
:103240008F4F9F4F089557FD9058440F551F59F0C9
:103250005F3F71F04795880F97FB991F61F09F3F83
:1032600079F087950895121613061406551FF2CFAC
:103270004695F1DF08C0161617061806991FF1CFFC
:1032800086957105610508940895E894BB27662723
:103290007727CB0197F908950E94D71808F48FEF8C
:1032A00008950E9464190C9412190E94041938F0B0
:1032B0000E940B1920F0952311F00C94FB180C942C
:1032C000011911240C9446190E94231970F3959F3B
:1032D000C1F3950F50E0551F629FF001729FBB270D
:1032E000F00DB11D639FAA27F00DB11DAA1F649FA9
:1032F0006627B00DA11D661F829F2227B00DA11D5C
:10330000621F739FB00DA11D621F839FA00D611DE1
:10331000221F749F3327A00D611D231F849F600D02
:10332000211D822F762F6A2F11249F5750409AF02B
:10333000F1F088234AF0EE0FFF1FBB1F661F771FB7
:10334000881F91505040A9F79E3F510580F00C9482
:10335000FB180C9446195F3FE4F3983ED4F386952E
:1033600077956795B795F795E7959F5FC1F7FE2B22
:10337000880F911D9695879597F90895B0E0A0E084
:10338000E4ECF9E10C94AB1B8C01009751F4CB01F8
:103390000E94841A8C01C801CDB7DEB7E0E10C941D
:1033A000C71BFC01E60FF71F9C0122503109E217F1
:1033B000F30708F49DC0D901CD91DC911197C61790
:1033C000D70798F0C530D10530F3CE0104978617A2
:1033D000970708F3C61BD70B2297C193D1936D9320
:1033E0007C93CF010E94201BD6CF5B01AC1ABD0A93
:1033F0004C018C0E9D1EA0918908B0918A08512C19
:10340000412CF12CE12C109731F580918708909197
:1034100088088815990509F05CC04616570608F01B
:1034200058C08091040190910501009741F48DB737
:103430009EB74091080150910901841B950BE81734
:10344000F90708F055C0F0938808E0938708F90160
:1034500071836083A0CF8D919C91119712966C908F
:10346000129713967C901397A815B90559F56C011E
:1034700042E0C40ED11CCA14DB0420F1AC014A198D
:103480005B09DA011296159780F06282738251838C
:103490004083D9016D937C93E114F10471F0D7015D
:1034A0001396FC93EE93129776CF22968C0F9D1F66
:1034B000F90191838083F301EFCFF0938A08E093C1
:1034C000890869CF4816590608F42C017D01D301FB
:1034D0009ACFCB010E94841A7C01009749F0AE017B
:1034E000B8010E947B1AC8010E94201B870153CF9C
:1034F00010E000E050CFFB01DC0102C001900D9212
:1035000041505040D8F708950F931F93CF93DF9306
:103510008230910510F482E090E0E0918908F0910A
:103520008A0830E020E0B0E0A0E0309799F421155F
:10353000310509F44AC0281B390B24303105D8F570
:103540008A819B816115710589F1FB0193838283D7
:10355000FE0111C040815181028113814817590732
:10356000E0F04817590799F4109761F012960C9300
:10357000129713961C933296CF01DF91CF911F9132
:103580000F9108950093890810938A08F4CF2115AC
:10359000310551F04217530738F0A901DB019A01B8
:1035A000BD01DF01F801C1CFEF01F9CF90938A0887
:1035B00080938908CDCFFE01E20FF31F8193919391
:1035C0002250310939832883D7CF20918708309141
:1035D0008808232B41F42091060130910701309394
:1035E0008808209387082091040130910501211556
:1035F000310541F42DB73EB74091080150910901C2
:10360000241B350BE0918708F0918808E217F30737
:10361000A0F42E1B3F0B2817390778F0AC014E5F42
:103620005F4F2417350748F04E0F5F1F50938808EF
:1036300040938708819391939FCFF0E0E0E09CCF87
:10364000CF93DF930097E9F0FC0132971382128247
:10365000A0918908B0918A08ED0130E020E0109730
:10366000A1F420813181820F931F2091870830912E
:1036700088082817390709F061C0F0938808E0939B
:103680008708DF91CF910895EA01CE17DF07E8F5AB
:103690004A815B819E0141155105B1F7E901FB8328
:1036A000EA8349915991C40FD51FEC17FD0761F4C6
:1036B000808191810296840F951FE9019983888307
:1036C000828193819B838A83F0E0E0E012968D9162
:1036D0009C9113970097B9F52D913C911197CD01CD
:1036E0000296820F931F209187083091880828172F
:1036F000390739F6309751F510928A0810928908E7
:10370000B0938808A0938708BCCFD383C28340813D
:103710005181840F951FC817D90761F44E5F5F4F21
:1037200088819981480F591F518340838A819B81E9
:10373000938382832115310509F0B0CFF0938A0875
:10374000E09389089ECFFD01DC01C0CF1382128275
:10375000D7CF2F923F924F925F926F927F928F922C
:103760009F92AF92BF92CF92DF92EF92FF920F9310
:103770001F93CF93DF93CDB7DEB7CA1BDB0B0FB61A
:10378000F894DEBF0FBECDBF09942A8839884888D7
:103790005F846E847D848C849B84AA84B984C8846D
:1037A000DF80EE80FD800C811B81AA81B981CE0F64
:1037B000D11D0FB6F894DEBF0FBECDBFED01089549
:0437C000F894FFCFAB
:1037C400AD02AD0200008B088000726F73736572E6
:1037D40069616C5F6D7367732F526571756573747E
:1037E400506172616D0000000000650F36063306FB
:1037F40030060000000073072D072A072707000082
:103804000000350FDA05D705D405000000004E038B
:10381400AE02DB029B030C03EA02FE02000000007E
:1038240021094C080505020500000000510976082D
:10383400C303C00300000000520E6D09D105CE057C
:1038440000000000CA03F00ABB0300000000B90531
:10385400B205AF05AC0500000000510514051105C3
:103864000E0500000000A3059A05970594050000C5
:103874000000650521050B05080500000000EE04A5
:10388400E104DE04DB04000000009208C603C30365
:10389400C0033966313935663838313234366664B6
:1038A400666132373938643164336565626361381F
:1038B40034610067656F6D657472795F6D736773EA
:1038C4002F5477697374004D65737361676520665F
:1038D400726F6D206465766963652064726F7070C1
:1038E40065643A206D657373616765206C61726706
:1038F4006572207468616E206275666665722E005A
:1039040064613539303966626533373861656166BB
:10391400383565353437653833306363316262373F
:10392400007374645F6D7367732F496E7433320070
:103934003461383432623635663431333038346485
:1039440063326231306662343834656137663137E8
:103954000067656F6D657472795F6D7367732F5659
:103964006563746F72330038636539393662656133
:10397400386232336432336239393638633063360D
:1039840039393838363530006D6573736167655F72
:10399400706B672F56656C5F6D73670037336663B2
:1039A400626634366234393139316536373239300A
:1039B40038653530383432613833643400737464B4
:1039C4005F6D7367732F466C6F61743332003835E3
:1039D4003234353836653334666264376362316352
:1039E4003038633566356631636130653537007369
:1039F40074645F6D7367732F496E743136003237A8
:103A040066666130633963346238666238343932E9
:103A14003235326263616439653563353762007308
:103A240074645F6D7367732F496E74380039663040
:103A34006539386264613635393831393836646409
:103A4400663533616661376134306534390031314C
:103A5400616264373331633235393333323631633B
:103A64006436313833626431326436323935007247
:103A74006F7373657269616C5F6D7367732F4C6FDD
:103A840067003061643531663838666334343839F8
:103A9400326638633130363834303737363436307E
:103AA400303500726F7373657269616C5F6D736733
:103AB400732F546F706963496E666F0063643731A6
:103AC4003636633734633535326333313166626396
:103AD4006332666535613762633238390073746402
:103AE4005F6D7367732F54696D65002F636D645F39
:103AF40076656C002F70776D5F696E666F00726912
:103B04006768745F7469636B73006C6566745F7473
:063B140069636B73000001
:00000001FF
