:100000000C9462000C947B0F0C94540F0C948A0097
:100010000C948A000C948A000C948A000C948A0038
:100020000C948A000C948A000C948A000C948A0028
:100030000C948A000C948A000C948A000C948A0018
:100040000C940A0F0C948A000C94C80F0C94A20F05
:100050000C948A000C948A000C948A000C948A00F8
:100060000C948A000C948A000000000024002700F1
:100070002A0000000000250028002B0000000000DE
:1000800023002600290004040404040404040202DA
:100090000202020203030303030301020408102007
:1000A0004080010204081020010204081020000012
:1000B0000008000201000003040700000000000027
:1000C0000000FA0F11241FBECFEFD8E0DEBFCDBF76
:1000D00013E0A0E0B1E0E2E2F9E302C005900D9286
:1000E000A83DB107D9F728E0A8EDB3E001C01D9203
:1000F000A032B207E1F710E0C2E6D0E004C02197D9
:10010000FE010E941A18C136D107C9F70E94A0113A
:100110000C948F1C0C940000E2E8F7E030E020E043
:1001200041915191452B91F4F901EE0FFF1FEE57CC
:10013000F84F9183808323583F4FFC0135832483FC
:100140002AE335E03783268381E008952F5F3F4F10
:100150002931310529F780E00895833081F028F4B2
:10016000813099F08230A9F008958730A9F0883065
:10017000C9F08430B1F4809180008F7D03C08091FC
:1001800080008F7780938000089584B58F7784BD39
:10019000089584B58F7DFBCF8091B0008F778093D9
:1001A000B00008958091B0008F7DF9CFCF93DF9399
:1001B000282F30E0F901E255FF4F8491F901E6560E
:1001C000FF4FD491F901EA57FF4FC491CC23A1F01E
:1001D00081110E94AD00EC2FF0E0EE0FFF1FE458FC
:1001E000FF4FA591B491EC91ED2381E090E009F4EB
:1001F00080E0DF91CF91089580E090E0FACF1F93E7
:10020000CF93DF93282F30E0F901E255FF4F84911F
:10021000F901E656FF4FD491F901EA57FF4FC49117
:10022000CC23A9F0162F81110E94AD00EC2FF0E035
:10023000EE0FFF1FEE58FF4FA591B4918FB7F894C2
:10024000EC91111108C0D095DE23DC938FBFDF91B4
:10025000CF911F910895DE2BF8CFCF93DF9390E0DD
:10026000FC01E656FF4F24918A579F4FFC01849171
:100270008823C9F090E0880F991FFC01E859FF4FCF
:10028000A591B491FC01EE58FF4FC591D491611135
:100290000DC09FB7F8948C91209582238C93888110
:1002A000282328839FBFDF91CF910895623051F4B6
:1002B0009FB7F8943C91822F809583238C93E8819B
:1002C0002E2BEFCF8FB7F894EC912E2B2C938FBF62
:1002D000EACF1F93CF93DF93182FEB0161E00E94C9
:1002E0002D01209739F460E0812FDF91CF911F918C
:1002F0000C94FF00CF3FD10511F461E0F5CFE12F61
:10030000F0E0E255FF4FE491E33031F140F4E130A9
:10031000B1F0E230E1F0C038D1057CF7E4CFE7304E
:1003200029F1E83059F1E430B1F780918000806222
:1003300080938000D0938B00C0938A0004C084B562
:10034000806884BDC7BDDF91CF911F91089584B5AA
:10035000806284BDC8BDF7CF8091800080688093A3
:100360008000D0938900C0938800EDCF8091B000C9
:1003700080688093B000C093B300E5CF8091B00057
:1003800080628093B000C093B400DDCF2FB7F894A3
:100390006091190470911A0480911B0490911C04BF
:1003A0002FBF089521E030E030930F0420930E0416
:1003B000FC0162817381072E000C880B990B0E944F
:1003C0004B19609308047093090480930A04909376
:1003D0000B040E94C60128EE33E040E050E00E948A
:1003E000BA17CA01B9010E9449196093EC037093CE
:1003F000ED038093EE039093EF030895FC01628177
:100400007381072E000C880B990B0E944B19609387
:10041000FC037093FD038093FE039093FF0381E040
:1004200090E090930D0480930C040E94C60128EE86
:1004300033E040E050E00E94BA17CA01B9010E94BF
:1004400049196093EC037093ED038093EE0390934E
:10045000EF0308950895AF92BF92CF92DF92EF928B
:10046000FF920F931F93CF93DF936C017B018B015E
:10047000040F151FEB015E01AE18BF08C017D107AE
:1004800059F06991D601ED91FC910190F081E02D38
:10049000C6010995892B79F7C501DF91CF911F918D
:1004A0000F91FF90EF90DF90CF90BF90AF900895A5
:1004B000FC01538D448D252F30E0842F90E0821B6A
:1004C000930B541710F0CF96089501970895FC01EF
:1004D000918D828D981761F0A28DAE0FBF2FB11D47
:1004E0005D968C91928D9F5F9F73928F90E008959F
:1004F0008FEF9FEF0895FC01918D828D981731F059
:10050000828DE80FF11D858D90E008958FEF9FEFAC
:100510000895FC01918D228D892F90E0805C9F4F82
:10052000821B91098F73992708958DE194E00E94B1
:10053000890221E0892B09F420E0822F089580E0D0
:1005400090E0892B29F00E94950281110C94000003
:100550000895FC01A48DA80FB92FB11DA35ABF4F58
:100560002C91848D90E001968F739927848FA689B2
:10057000B7892C93A089B1898C91837080648C9306
:10058000938D848D981306C00288F389E02D8081B5
:100590008F7D80830895EF92FF920F931F93CF93E7
:1005A000DF93EC0181E0888F9B8D8C8D98131AC0AE
:1005B000E889F989808185FF15C09FB7F894EE8995
:1005C000FF896083E889F9898081837080648083F2
:1005D0009FBF81E090E0DF91CF911F910F91FF903D
:1005E000EF900895F62E0B8D10E00F5F1F4F0F73E5
:1005F0001127E02E8C8D8E110CC00FB607FCFACFA0
:10060000E889F989808185FFF5CFCE010E94A90292
:10061000F1CFEB8DEC0FFD2FF11DE35AFF4FF08270
:100620009FB7F8940B8FEA89FB8980818062CFCFD6
:10063000CF93DF93EC01888D8823B9F0AA89BB8919
:10064000E889F9898C9185FD03C0808186FD0DC004
:100650000FB607FCF7CF8C9185FFF2CF808185FF25
:10066000EDCFCE010E94A902E9CFDF91CF9108958D
:100670008A549D4FFC018081089580EB91E008959C
:1006800081ED91E00895FC01848595850895AF92F0
:10069000BF92CF92DF92EF92FF920F931F93CF936F
:1006A000DF9300D000D01F92CDB7DEB7643671055E
:1006B0004CF0FC01EA54FD4F2081F12CE12C222367
:1006C00009F476C0DA017B018C01BC01695C7E4FC4
:1006D000ED91FC910190F081E02DCA01099568012E
:1006E00020EDC21A2EEFD20A2FEFD6012C93F8017B
:1006F000EF5CFE4F2EEF20833196808331969083FE
:100700003196292F280F209520833196E082169666
:10071000FC9245E050E030E020E0DC011696A417A2
:10072000B50734F06191260F311D4F5F5F4FF7CF52
:100730007C01B8E0EB0EF11C800F911FFC01E95C1D
:10074000FE4F20952083E9E1EE16E1E0FE06B4F4C9
:100750005601C5018C199D098E159F054CF5D801D0
:1007600012968D919C91F50161915F01DC01ED91F3
:10077000FC910190F081E02D0995EBCF84E491E0AC
:100780009A83898383E08B8380EE91E09D838C83C1
:10079000D801ED91FC910190F081E02DAE014F5F09
:1007A0005F4F67E070E0C8010995EE24EA94FE2CE3
:1007B000C7010F900F900F900F900F90DF91CF9186
:1007C0001F910F91FF90EF90DF90CF90BF90AF906F
:1007D00008950F931F93CF93DF93CDB7DEB72A977A
:1007E0000FB6F894DEBF0FBECDBF8C0188E391E059
:1007F0009A8389831B821C821D821E821F82188617
:1008000019861A86D801ED91FC910190F081E02DB6
:10081000AE014F5F5F4F6AE070E0C80109950E942A
:10082000C601F80160877187828793872A960FB681
:10083000F894DEBF0FBECDBFDF91CF911F910F9116
:100840000895CF92DF92EF92FF92DC011D921D92EC
:100850001D921C921397FB0130E020E0419150E083
:10086000022E02C0440F551F0A94E2F7052E000C19
:10087000660B770BCD90DD90ED90FC9013974C2993
:100880005D296E297F294D935D936D937C9313971A
:10089000285F3F4F2032310509F7FF90EF90DF903E
:1008A000CF900895FC0140835183128213820895F2
:1008B00085E00E94D600892BA9F410920101809155
:1008C0002A0590912B0520910101222389F08F3F69
:1008D0002FE7920759F480E090E890932B058093DE
:1008E0002A05089581E080930101E9CF0196F5CFB3
:1008F000811520E8920719F48FEF9FE7EECF01975B
:10090000ECCF84E00E94D600892BB1F481E0809383
:100910000001809138059091390520910001222332
:1009200081F08F3F2FE7920751F480E090E8909399
:10093000390580933805089510920001EACF019699
:10094000F6CF811520E8920719F48FEF9FE7EFCFDC
:100950000197EDCF89E192E008958AE392E008954E
:100960008BE492E008958CE692E0089580E892E0AE
:10097000089581EA92E00895FB0120813181FC0114
:100980003383228382E090E008950F931F93CF93E7
:10099000DF938C01EC012696CE010E94BC04D801A5
:1009A0001A96ED91FC91CE01DF91CF911F910F919D
:1009B0000994FC0122818381FB012083818382E0F1
:1009C00090E00895AB01FC01A681B7816481758137
:1009D000ED91FC9111970190F081E02DCD010994EA
:1009E00087EB92E008958CE091E0089588ED92E025
:1009F000089589EF92E008954F925F926F927F92EF
:100A00008F929F92AF92BF92EF92FF920F931F939C
:100A1000CF93DF9300D000D0CDB7DEB77C018B0140
:100A2000FB018191BF01F7018283CE0101960E94F3
:100A3000210489819A81AB81BC814C015D01F5E083
:100A40008F0E911CA11CB11CA8014C5F5F4FFA01D5
:100A500025E030E02901712C612C481459046A0406
:100A60007B0428F4618161932F5F3F4FF3CFF8013E
:100A7000E80FF91F1482F7015483438305960F9002
:100A80000F900F900F90DF91CF911F910F91FF90DA
:100A9000EF90BF90AF909F908F907F906F905F90FE
:100AA0004F9008958CE093E008958DE293E00895CF
:100AB0004F925F926F927F928F929F92AF92BF926E
:100AC000CF92DF92EF92FF920F931F93CF93DF931A
:100AD000CDB7DEB72C970FB6F894DEBF0FBECDBFF3
:100AE0007C018B01DB018C9190E0F7019383828381
:100AF00011962C91922B938382836E5F7F4FCE0150
:100B000001960E94210489809A80AB80BC802401D8
:100B10003501F6E04F0E511C611C711C98012B5FD2
:100B20003F4FF90186E090E0AC0170E060E04415D1
:100B300055056605770520F4418141930196F4CF70
:100B4000B4016A5F7F4FF801E80DF91D1582D701E6
:100B500015963C932E931497600F711FCE01059646
:100B60000E942104BAE08B0E911C4D805E806F8044
:100B70007884C401092C000CAA0BBB0B5C016D012D
:100B8000A40CB51CC61CD71CF801E80DF91DAF015B
:100B9000401B510B70E060E04A155B056C057D055C
:100BA00038F42191AF0142505109DA012C93EFCF73
:100BB000480C591CB801640D751DFB01319710825A
:100BC000C4010197800F911FF70197838683CE019F
:100BD00009960E94210492012C5F3F4F89849A84D8
:100BE000AB84BC84A901032E000C660B770B480D67
:100BF000591D6A1D7B1DF801E20FF31FCF01801BF9
:100C0000910BB0E0A0E084179507A607B70728F47A
:100C10008191DF0112978C93F1CFC901880D991D45
:100C2000F801E80FF91FDF0111971C9221503109DB
:100C3000020F131FD70119961C930E931897218149
:100C4000428150E070E060E0BA0155274427522B02
:100C50002081422B2381722BF701428753876487BF
:100C6000758704962C960FB6F894DEBF0FBECDBFE5
:100C7000DF91CF911F910F91FF90EF90DF90CF9078
:100C8000BF90AF909F908F907F906F905F904F90AC
:100C9000089586E493E0089587E693E00895FC01C3
:100CA000DB014C9150E070E060E042835383648349
:100CB000758311968C911197582B428353836483CB
:100CC000758312968C911297682B428353836483A9
:100CD000758313968C911397782B42835383648387
:100CE000758314964C91149750E070E060E0468351
:100CF00057836087718715968C911597582B46837B
:100D000057836087718716968C911697682B468358
:100D100057836087718717968C91782B468357830A
:100D20006087718788E090E00895DC01FB011296EE
:100D30008C911297808313968C91139781831496CC
:100D40008C911497828315968C91159783831696B0
:100D50008C911697848317968C9117978583189694
:100D60008C911897868319968C91878388E090E000
:100D70000895CF92DF92EF92FF920F931F93FC01A1
:100D8000DB01C3800C2D10E030E020E045E036951B
:100D90002795179507954A95D1F70D931D932D9398
:100DA0003C9313978481C82ED12CF12CE12C53E075
:100DB000CC0CDD1CEE1CFF1C5A95D1F7C02AD12AA1
:100DC000E22AF32ACD92DD92ED92FC92139785816F
:100DD000082F10E030E020E06BE0000F111F221F11
:100DE000331F6A95D1F70C291D292E293F290D9310
:100DF0001D932D933C931397468150E070E060E083
:100E000083E1440F551F661F771F8A95D1F744274A
:100E1000552768777727042B152B262B372B0D9317
:100E20001D932D933C931397478150E070E060E051
:100E300094E0440F551F661F771F9A95D1F7407FA6
:100E4000577066277727C680D12CF12CE12C84E0DF
:100E5000F694E794D794C7948A95D1F74C295D29E5
:100E60006E297F294115510561057105A1F0405892
:100E700053406109710997E1440F551F661F771FA1
:100E80009A95D1F7402B512B622B732B4D935D9389
:100E90006D937C931397478150E070E060E0742F6E
:100EA00066275527442744275527662770780D91D4
:100EB0001D912D913C911397402B512B622B732B3D
:100EC0004D935D936D937C93139788E090E01F9111
:100ED0000F91FF90EF90DF90CF9008959B01BC01A0
:100EE0006E5F7F4FC9010C94B906EF92FF920F938A
:100EF0001F93CF93DF938C017B01BC016E5F7F4F0B
:100F0000C7010E94B906EC01B8016A5F7F4FC701B3
:100F10008C0F9D1F0E94B906C80FD91FB801665FCC
:100F20007F4FC7018C0F9D1F0E94B9068C0F9D1F1C
:100F3000DF91CF911F910F91FF90EF900895EF9265
:100F4000FF920F931F93CF93DF937C01EB010296E7
:100F50000E9475078C01BE01680F791FC70140967A
:100F60000E947507800F911FDF91CF911F910F9104
:100F7000FF90EF9008958F929F92AF92BF92CF9281
:100F8000DF92EF92FF92CF93DF93EC014A015B0176
:100F9000DB01CA0147E1B595A795979587954A95D5
:100FA000D1F79927AA27BB270097A105B10521F002
:100FB00080589C4FAF4FBF4F188219821A82B501DB
:100FC000A40125E0440F551F661F771F2A95D1F70E
:100FD0004B83B501A40133E0759567955795479507
:100FE0003A95D1F74C83B501A401EBE0759567956F
:100FF00057954795EA95D1F74D83B501A401F3E1E3
:101000007595679557954795FA95D1F74F706C018F
:101010007D0124E0CC0CDD1CEE1CFF1C2A95D1F7D1
:101020004C294E836C017D0134E0F594E794D7940C
:10103000C7943A95D1F720E030E0A901C501B40189
:101040000E949C1887FD0EC0CF8288E090E0DF915F
:10105000CF91FF90EF90DF90CF90BF90AF909F9097
:101060008F9008958C2D80688F83EFCF9B01FC01BA
:101070004281538164817581C9010C94BB07EF9251
:10108000FF920F931F93CF93DF937C018B01FC01A1
:101090004281538164817581C8010E94BB07EC01C4
:1010A000F7014681578160857185C8018C0F9D1FAE
:1010B0000E94BB07C80FD91FF7014285538564857D
:1010C0007585C8018C0F9D1F0E94BB078C0F9D1F4B
:1010D000DF91CF911F910F91FF90EF900895EF92C4
:1010E000FF920F931F93CF93DF937C01EB01029646
:1010F0000E943F088C01BE01680F791FC70140960E
:101100000E943F08800F911FDF91CF911F910F9197
:10111000FF90EF9008952F923F924F925F926F92BF
:101120007F928F929F92AF92BF92CF92DF92EF9277
:10113000FF920F931F93CF93DF93CDB7DEB72E9718
:101140000FB6F894DEBF0FBECDBF8C016B01DB0183
:101150008D909D90AD90BC90FC0182819381A48183
:10116000B58188159905AA05BB0570F4B401660F11
:10117000771F660F771F828593850E946D1AD801AD
:101180001B969C938E931A97F80182829382A48275
:10119000B582C60140E050E0BA01A4E0EA2EF12C8D
:1011A00098012A5F3F4FDC011596EC911597169632
:1011B0004C901697512C712C612C320155244424EB
:1011C0005E2A1496EC9114974E2A1796EC917E2A7B
:1011D000D7011701E4E02E0E311C71010496F801CD
:1011E00082809380A480B580481559056A057B05E7
:1011F000A8F446825782608671861497A284B384CD
:10120000AA0DBB1DE4E0BE2EF90101900D92BA9427
:10121000E1F74F5F5F4F6F4F7F4FC5CF8485958557
:10122000A685B78584159505A605B70570F4B201A6
:10123000660F771F660F771F848995890E946D1A44
:10124000D80155969C938E935497F8014486558601
:1012500066867786C601820D931D412C512C320182
:101260001C019801205F3F4FDC0111966C91119792
:1012700012968C901297912CB12CA12C5401992488
:101280008824962A6C91862A13966C91B62AB4E02B
:10129000EB0EF11CF801448555856685778544166B
:1012A000550666067706C0F4808A918AA28AB38AB8
:1012B000BC0162197309A489B589A60FB71F64E040
:1012C000F90101900D926A95E1F7BFEF4B1A5B0AA5
:1012D0006B0A7B0A0496C8CF86899789A08DB18D49
:1012E00088159905AA05BB0560F4B401660F771F40
:1012F000848D958D0E946D1AD8015D969C938E9376
:101300005C97F801868A978AA08EB18E412C512C69
:1013100032011801FAE12F0E311CF80186899789F4
:10132000A08DB18D481659066A067B0608F05CC090
:10133000B6016E0D7F1DCE0101960E94210497011A
:101340002C5F3F4F3E872D8789809A80AB80BC8081
:10135000C901032E000CAA0BBB0BAC01BD01480D4B
:10136000591D6A1D7B1D49875A876B877C87F90148
:10137000EC0DFD1D9F012C193D09B90190E080E0A5
:1013800029853A854B855C85621773078407950725
:1013900028F42191DF0112972C93ECCFED84FE8489
:1013A000E80CF91CF601EE0DFF1D319710828D85BA
:1013B0009E8501978C0D9D1DD8015B969C938E9305
:1013C0005A97C201880F991F5C96ED91FC91E80F26
:1013D000F91FD1018D919C9191838083BFEF4B1AAE
:1013E0005B0A6B0A7B0A99CFC7012E960FB6F89459
:1013F000DEBF0FBECDBFDF91CF911F910F91FF9048
:10140000EF90DF90CF90BF90AF909F908F907F90A4
:101410006F905F904F903F902F9008952F923F9242
:101420004F925F926F927F928F929F92AF92BF92F4
:10143000CF92DF92EF92FF920F931F93CF93DF93A0
:10144000CDB7DEB7A6970FB6F894DEBF0FBECDBFFF
:101450008C010E94C6014B015C01980125543D4F4F
:101460003E8B2D8BF90180819181A281B381750121
:101470006401C81AD90AEA0AFB0AD701C601893FE2
:101480009A42A105B10510F035971082180134E594
:10149000231A3DEF330AD1018D919C91892B79F06C
:1014A000F801E154FD4F80819181A281B3818815BB
:1014B0009905AA05BB0518F4F10111821082980163
:1014C0002C543D4F3A8B298BA80140555D4F5C8BC6
:1014D0004B8BC8014896988F8F8BD801AA54BD4F6B
:1014E000BC8FAB8FF801EC53FD4FFE8FED8F215F6A
:1014F0003F4F38A32F8F42505109588B4F87865644
:101500009D4F9A8F898F1996BAA3A9A3A50194011B
:101510002C5E3F4F4F4F5F4F2BA33CA34DA35EA3C9
:10152000F80184899589A689B789892B8A2B8B2B09
:10153000B9F5D80112968D919C91DC01ED91FC9149
:101540000284F385E02D09959C0197FF3DC0F801C9
:10155000EA54FD4F8081882301F17801B9E4EB1A48
:10156000BDEFFB0AF70180819181A281B381A501C2
:101570009401281B390B4A0B5B0BDA01C901853C2E
:101580009940A105B10548F0C8010E94E903D701BF
:101590008D929D92AD92BC92139790E080E0B8C17D
:1015A0000E94C601681979098A099B09F801C48853
:1015B000D588E688F788C616D706E806F90608F043
:1015C000B8CF8EEF9FEFA4C1A989BA898D919C9164
:1015D0001197820F931F8D939C93F101408151814C
:1015E00047305105F9F4A98DBA8D8D919C911197D1
:1015F000AC014F5F5F4F4D935C93800F911FFC01D7
:10160000208FAF85B8898D919C91119701978D930B
:101610009C93892B09F084CF88E090E0F1019183BD
:1016200080837ECF4115510521F52F3F310581F48F
:1016300081E090E091838083CBA0DCA0EDA0FEA0B0
:10164000A9A1BAA1CD92DD92ED92FC92139768CF39
:101650000E94C601681979098A099B096938734192
:101660008105910508F45CCFF801EA54FD4F108222
:10167000A8CF4130510589F42E3F310519F482E09D
:1016800090E0CCCF11821082EB8DFC8D8081811196
:1016900047CFC8010E94E90343CF4230510591F47E
:1016A000AF85B8892D933C93E98DFA8D1182108214
:1016B00083E090E0D1018D939C93E989FA8931838D
:1016C00020832ECF4330510571F4322F2227AF856E
:1016D000B8898D919C911197280F391F2D933C93B8
:1016E00084E090E09BCF4430510579F460E071E0F4
:1016F0000E94A6178F3F910529F485E090E0918321
:1017000080830ECF118210820BCF4530510569F4D2
:10171000AB89BC892D933C9386E090E091838083D4
:10172000A989BA892D933C93FBCE46305105A1F48B
:10173000322F2227EB89FC8980819181280F391F64
:101740003183208387E090E0D1018D939C93EF85D6
:10175000F889808191815DCF4830510509F0E0CE54
:101760001182108260E071E00E94A6178F3F910500
:1017700009F0D6CEAB89BC89ED91FC91309709F088
:10178000E0C0C8010E94E9038CE291E09A8389835A
:101790001C821B8288E192E09E838D8398878F83D1
:1017A0009A8789871B861C861D861E866801B8EB72
:1017B000CB1ABDEFDB0A7801E6E8EE1AEDEFFE0A80
:1017C00028E1422E55245394612C712CD601ED91C1
:1017D000FC913097A9F1848195819C838B838081D2
:1017E00091819E838D8382819381DC01ED91FC91B7
:1017F0000480F581E02D099598878F83D601ED91BE
:10180000FC9182819381DC01ED91FC910680F7814E
:10181000E02D09959A8789874B865C866D867E8642
:10182000D601ED91FC9160857185D801ED91FC9117
:101830000190F081E02DAE014F5F5F4FC801099527
:10184000B2E0CB0ED11CEC14FD0409F0BFCF98E13F
:10185000492E55245394612C712CF701A081B1813C
:101860001097E1F112968D919C9113979C838B8335
:1018700014968D919C9115979E838D83ED91FC918B
:1018800011970480F581E02DCD01099598878F830C
:10189000D7018D919C91DC01ED91FC910680F7813F
:1018A000E02D09959A8789874B865C866D867E86B2
:1018B000D801ED91FC91C080D180F70180819181A8
:1018C000DC01ED91FC910280F381E02D0995AE01E0
:1018D0004F5F5F4FBC01C801F6010995F2E0EF0EC2
:1018E000F11CE214F30409F0B8CFF801EA54FD4FFB
:1018F00081E08083319680829182A282B382AD8919
:10190000BE898D929D92AD92BC9213978FEF9FEFFF
:10191000A6960FB6F894DEBF0FBECDBFDF91CF9174
:101920001F910F91FF90EF90DF90CF90BF90AF90FD
:101930009F908F907F906F905F904F903F902F90EF
:101940000895EA30F10509F0A1C088E391E09A8397
:1019500089831B821C821D821E821F821886198623
:101960001A860E94C601F801C084D184E284F384FF
:101970009B01AC012C193D094E095F0969017A01EF
:101980006F89788DCE0101960E944F06C701B6017E
:1019900028EE33E040E050E00E94BA1769017A0176
:1019A0009B01AC018B819C81AD81BE818C0D9D1D05
:1019B000AE1DBF1D8B839C83AD83BE8360E472E448
:1019C0008FE090E00E949617CF80D884E984FA8453
:1019D000DC01CB018C0D9D1DAE1DBF1D8F83988733
:1019E000A987BA870E94C601CF80D884E984FA8487
:1019F00036E3D31A35E6E30A34ECF30A28EE33E093
:101A000040E050E00E94BA1729013A019B01AC0165
:101A100060E472E48FE090E00E949617A7019601BF
:101A2000261B370B480B590BCA01B9012B813C818E
:101A30004D815E81215031094109510969017A01C5
:101A4000C418D508E608F7082601370120E03AEC6B
:101A50004AE95BE30E94BA17420E531E641E751ECC
:101A6000D8011C964D925D926D927C921F97F80161
:101A7000608B718B828B938B0E94C601AD89BE896E
:101A80006D937D938D939C9313974ACDE630F1052A
:101A900059F46F89788D8D8D9E8D0E948B0881E021
:101AA000EF8DF8A180833CCDEB30F10521F4AB8DB7
:101AB000BC8D1C9235CDE752FF4FEE0FFF1FE00F9C
:101AC000F11F80819181009709F42ACDDC01ED910D
:101AD000FC910190F081E02D6F89788D099520CDE2
:101AE0004F925F926F927F928F929F92AF92BF922E
:101AF000CF92DF92EF92FF920F931F93CF93DF93DA
:101B0000EC017B018A81FB0180838B8181838C8145
:101B100082838D8183833496412C512C320104E0E1
:101B200010E09F012F5F3F4FCF010296DF01139618
:101B3000A8010C5F1F4F8A809B80AC80BD80481439
:101B400059046A047B04C8F4AA85BB85A40FB51F99
:101B500014974C9111962C91119712969C91129773
:101B600013968C9140832183928383838FEF481A4D
:101B7000580A680A780A3496D4CF4C8540834D853C
:101B8000F90140832E85FC0120838F858C93F7011A
:101B9000E00FF11F412C512C3201AF019F012F5F4B
:101BA0003F4FCF010296DF0113960C5F1F4F8C84CD
:101BB0009D84AE84BF84481459046A047B04D8F41D
:101BC000CF01841B950BAC89BD89A80FB91F3C912F
:101BD00011962C91119712969C91129713968C91B5
:101BE00030832183928383838FEF481A580A680ACF
:101BF000780A3496D3CF4E8940834F89F9014083C8
:101C0000288DFC012083898D8C93412C512C32012D
:101C10008E899F89A88DB98D481659066A067B065C
:101C200080F55201AA0CBB1CEC8DFD8DEA0DFB1D4D
:101C3000A081B181FD0101900020E9F731976F018A
:101C4000CA1ADB0AA60170E060E0C701800F911F8D
:101C50000E9452040C5F1F4F8C8D9D8DA80EB91EE3
:101C6000F50160817181A601C701800F911F0E945B
:101C70002A1B0C0D1D1DFFEF4F1A5F0A6F0A7F0A0A
:101C8000C7CFC801DF91CF911F910F91FF90EF90C7
:101C9000DF90CF90BF90AF909F908F907F906F908C
:101CA0005F904F900895EF92FF920F931F93CF9301
:101CB000DF938C017B01DC0112962C911297FB01C2
:101CC0002193CF011396ED91FC91EF010990002033
:101CD000E9F72197CE1BDF0BAE0170E060E00E94B8
:101CE0005204D80113966D917C91AE01C7010596FF
:101CF0000E942A1BCE010596DF91CF911F910F9173
:101D0000FF90EF900895CF92DF92EF92FF920F93A2
:101D10001F93CF93DF936C01EB01DC0112968C9142
:101D20001297888313968C91139789831496ED915B
:101D3000FC91DF010D900020E9F78D0101501109A0
:101D40000E1B1F0BA80170E060E0CE0102960E94FE
:101D50005204F60164817581A801CE0106960E94A5
:101D60002A1BC8010696F601A681B781FD010190E4
:101D70000020E9F731977F01EA1AFB0AA70170E01A
:101D800060E08C0F9D1F0E945204065F1F4FD6011A
:101D900016966D917C91A701CE01800F911F0E9434
:101DA0002A1B0E0D1F1DF601A085B185FD010190B6
:101DB0000020E9F731977F01EA1AFB0AA70170E0DA
:101DC00060E0CE01800F911F0E9452040C5F1F4FF4
:101DD000D60118966D917C91A701CE01800F911FBD
:101DE0000E942A1BC701800F911FF601628543855F
:101DF00034852585C80FD91F688349833A832B838F
:101E00000496DF91CF911F910F91FF90EF90DF909B
:101E1000CF9008951F920F920FB60F9211242F9317
:101E20003F938F939F93AF93BF93809119049091A9
:101E30001A04A0911B04B0911C043091180423E0F3
:101E4000230F2D3758F50196A11DB11D20931804BD
:101E50008093190490931A04A0931B04B0931C045C
:101E60008091140490911504A0911604B091170468
:101E70000196A11DB11D8093140490931504A093A5
:101E80001604B0931704BF91AF919F918F913F912A
:101E90002F910F900FBE0F901F90189526E8230FDB
:101EA0000296A11DB11DD2CF1F920F920FB60F92B5
:101EB00011242F933F934F935F936F937F938F934F
:101EC0009F93AF93BF93EF93FF93E0910401F09141
:101ED00005010995FF91EF91BF91AF919F918F916E
:101EE0007F916F915F914F913F912F910F900FBE16
:101EF0000F901F9018951F920F920FB60F921124FA
:101F00002F933F934F935F936F937F938F939F9301
:101F1000AF93BF93EF93FF93E0910201F091030120
:101F20000995FF91EF91BF91AF919F918F917F9113
:101F30006F915F914F913F912F910F900FBE0F9036
:101F40001F9018951F920F920FB60F9211242F9386
:101F50003F934F935F936F937F938F939F93AF9331
:101F6000BF93EF93FF938DE194E00E94A902FF914C
:101F7000EF91BF91AF919F918F917F916F915F9101
:101F80004F913F912F910F900FBE0F901F9018957A
:101F90001F920F920FB60F9211242F938F939F933E
:101FA000EF93FF93E0912D04F0912E048081E09156
:101FB0003304F091340482FD1BC09081809136047B
:101FC0008F5F8F7320913704821741F0E0913604C0
:101FD000F0E0E35EFB4F958F80933604FF91EF9125
:101FE0009F918F912F910F900FBE0F901F9018957A
:101FF0008081F4CF1092200410921F0488EE93E0A9
:10200000A0E0B0E08093210490932204A0932304E5
:10201000B093240480E591E090931E0480931D0406
:1020200085EC90E090932A048093290484EC90E05E
:1020300090932C0480932B0480EC90E090932E04DA
:1020400080932D0481EC90E09093300480932F04D2
:1020500082EC90E0909332048093310486EC90E01F
:102060009093340480933304109236041092370412
:10207000109238041092390486E891E090933B0561
:1020800080933A058DE194E090933D0580933C0563
:1020900080E091EEA0E0B0E080933E0590933F0594
:1020A000A0934005B09341051092F0078AE791E0B4
:1020B0009093FF078093FE07109214081092150862
:1020C000109216081092170810921B0810921A0806
:1020D000E2E8F7E01192119287E0E43BF807D1F7CC
:1020E000E4EBF7E01192119287E0E63EF807D1F7B2
:1020F000E2E5F5E08AE696E011928E179F07E1F798
:10210000EAE6F6E0119287E0E238F807D9F7109294
:102110000008109201081092020810920308109211
:1021200009081092080810920A0810920B081092E1
:102130000C0810920D0810921308109212081092B9
:102140004E0510924F05109250051092510588EAE5
:1021500091E09093370580933605109239051092DF
:10216000380525E733E030932D0520932C0526E331
:1021700035E030932F0520932E05109235051092EF
:102180003405909329058093280510922B05109211
:102190002A0521E833E030931F0520931E0528E22D
:1021A00035E03093210520932005109227051092E9
:1021B00026052CE931E0309319052093180510927B
:1021C0001A0510921B0510921C0510921D054CE873
:1021D00053E050930F0540930E0548E155E05093AE
:1021E00011054093100510921705109216053093B3
:1021F00009052093080510920A0510920B0510920C
:102200000C0510920D052BE933E03093FF04209369
:10221000FE0428E035E0309301052093000510927C
:102220000705109206052EE631E03093E104209375
:10223000E00422E631E03093E3042093E2041092BC
:10224000E4041092E5041092E6041092E704109260
:10225000E8041092E9041092EA041092EB04109240
:10226000EC041092ED041092EE041092EF043093FF
:10227000F1042093F0041092F2041092F3041092EF
:10228000F4041092F5041092F6041092F7041092E0
:10229000F8041092F9041092FA041092FB041092C0
:1022A000FC041092FD042BEA33E03093D704209312
:1022B000D60420EE34E03093D9042093D804109251
:1022C000DF041092DE0440E951E05093C9044093CA
:1022D000C8049093CF048093CE041092D10410923E
:1022E000D00422ED31E03093D3042093D20421E0D6
:1022F00030E03093D5042093D40465EB73E0709301
:10230000CD046093CC045093BB044093BA049093E3
:10231000C1048093C0041092C3041092C2048EEFD3
:1023200091E09093C5048093C4043093C704209334
:10233000C60486EC93E09093BF048093BE04089596
:10234000CF93DF93CDB7DEB72A970FB6F894DEBFF1
:102350000FBECDBF789484B5826084BD84B58160A2
:1023600084BD85B5826085BD85B5816085BD809160
:102370006E00816080936E001092810080918100D8
:1023800082608093810080918100816080938100D0
:10239000809180008160809380008091B100846092
:1023A0008093B1008091B00081608093B0008091F3
:1023B0007A00846080937A0080917A0082608093B2
:1023C0007A0080917A00816080937A0080917A000F
:1023D000806880937A001092C10062E083E00E94DE
:1023E0002D0160E085E00E942D0162E082E00E9404
:1023F0002D0160E084E00E942D0188E594E0909337
:10240000050180930401809169008C6080936900CC
:10241000E99A81E894E0909303018093020180910E
:102420006900836080936900E89A61E08BE00E9414
:102430002D0161E086E00E942D0161E08AE00E94AA
:102440002D0161E089E00E942D0160E08BE00E9497
:10245000FF0060E086E00E94FF0060E08AE00E94EA
:10246000FF0060E089E00E94FF0080E091EEA0E0C4
:10247000B0E080933E0590933F05A0934005B09354
:102480004105E0913C05F0913D05A089B18982E0CC
:102490008C93A089B1891C92A485B5851C92A685D0
:1024A000B78580E18C93108EA489B58986E08C93E2
:1024B000A289B3898C9180618C93A289B3898C9114
:1024C00088608C93A289B3898C9180688C930288F0
:1024D000F389E02D80818F7D80831092E707109231
:1024E000E6071092E9071092E8071092ED071092A4
:1024F000EC071092EB071092EA078CE295E00E943D
:102500008C008EE195E00E948C008EE095E00E94A8
:102510008C008EEF94E00E948C0086ED94E00E9487
:102520008C00A4EBB7E0FD0190E080E021913191B7
:10253000232B09F0C8C2FC01EE0FFF1FEC54F84F2B
:1025400028EC34E0318320838C599F4F9093CB0447
:102550008093CA0490E080E02D913D91232B09F0F7
:10256000B8C2FC01EE0FFF1FEC54F84F2AEB34E029
:10257000318320838C599F4F9093BD048093BC047A
:1025800054E0252E312C8AE395E00E940E0A0E9429
:10259000C601009110041091110420911204309191
:1025A00013046B017C01C01AD10AE20AF30A9701F5
:1025B00086010F311105210531050CF424C160930A
:1025C000100470931104809312049093130468E232
:1025D00075E08EE195E00E94E20466E375E08CE22E
:1025E00095E00E94E2044091380550913905052E8E
:1025F000000C660B770B415051096F4F7F4F809154
:10260000DC039091DD03092E000CAA0BBB0B7A01B1
:102610008B01E81AF90A0A0B1B0BC801B7012FEF4F
:102620003FEF40E050E00E94DC177A8369838B0122
:102630006131774224F00F5F1F4F1A8309830E9494
:10264000C6014B015C01C980DA80B601DD0C880B44
:10265000990B0E944B1920E030E443E855E40E94B6
:10266000A1186B017C01C501B4010E944919209198
:10267000D8033091D9034091DA035091DB030E94D3
:102680002F189B01AC01C701B6010E94A11820E0E0
:1026900030E64AEE56E40E94001A2BED3FE049E492
:1026A00050E40E94A11828EB3EE145E05DE30E9462
:1026B000A11860930A0570930B0580930C05909305
:1026C0000D0580913805909139059093DD03809335
:1026D000DC030E94C6010E9449196093D8037093DD
:1026E000D9038093DA039093DB0340912A0550913C
:1026F0002B05052E000C660B770B415051096F4FCF
:102700007F4F8091E2039091E303092E000CAA0B06
:10271000BB0B7A018B01E81AF90A0A0B1B0BC801E3
:10272000B7012FEF3FEF40E050E00E94DC177A83C3
:1027300069838B016131774224F00F5F1F4F1A8349
:1027400009830E94C6014B015C01C980DA80B60191
:10275000DD0C880B990B0E944B1920E030E443E814
:1027600055E40E94A1186B017C01C501B4010E94CF
:1027700049192091DE033091DF034091E00350912D
:10278000E1030E942F189B01AC01C701B6010E9412
:10279000A11820E030E64AEE56E40E94001A2BED24
:1027A0003FE049E450E40E94A11828EB3EE145E0F7
:1027B0005DE30E94A11860931A0570931B05809336
:1027C0001C0590931D0580912A0590912B059093EF
:1027D000E3038093E2030E94C6010E9449196093BB
:1027E000DE037093DF038093E0039093E10368E1DD
:1027F00075E08EE095E00E94E20468E075E08EEFFF
:1028000094E00E94E20480910E0490910F040197DD
:1028100009F031C280910C0490910D04019709F0E8
:102820002AC23FB7F8948091140490911504A091A6
:102830001604B091170426B5A89B05C02F3F19F0C8
:102840000196A11DB11D3FBFBA2FA92F982F882730
:10285000BC01CD01620F711D811D911D42E0660F0B
:10286000771F881F991F4A95D1F70E944B1920E0C6
:1028700034E244E759E40E94A1184B015C01E09066
:102880000804F090090400910A0410910B04E982F5
:10289000FA820B831C8320E030E0A901C801B70154
:1028A0000E94FB192701380177FA709477F8709429
:1028B000181624F449805A806B807C80C0901A05D9
:1028C000D0901B05E0901C05F0901D0520E030E045
:1028D000A901C701B6010E94FB19181624F0F7FAE6
:1028E000F094F7F8F094A7019601C301B2010E9499
:1028F0002F182B013C01AC019B01C501B4010E94C2
:10290000001A20910404309105044091060450916E
:1029100007040E9430186B017C01C0920404D0921D
:102920000504E0920604F092070420E030E040E263
:1029300051E4C301B2010E94001A2B013C0120E0C6
:1029400030E0A901C701B6010E94001A9B01AC0149
:10295000C301B2010E9430186B017C01E894F7F8C2
:1029600020E030E04FE753E4C701B6010E94FB19B5
:1029700018160CF4B4C0C0920004D0920104E09286
:102980000204F09203044090FC035090FD03609019
:10299000FE037090FF0320E030E0A901C301B20103
:1029A0000E94FB1918160CF4A7C09301820130583D
:1029B0000D831E832F833887C0900A05D0900B05A6
:1029C000E0900C05F0900D0520E030E0A901C70172
:1029D000B6010E94FB19181624F0F7FAF094F7F8E4
:1029E000F094A70196016D817E818F8198850E9468
:1029F0002F186B017C01AC019B01C501B4010E9441
:102A0000001A2091F8033091F9034091FA03509194
:102A1000FB030E9430184B015C018092F8039092F6
:102A2000F903A092FA03B092FB0320E030E040E209
:102A300051E4C701B6010E94001A6B017C0120E03D
:102A400030E0A901C501B4010E94001A9B01AC014C
:102A5000C701B6010E9430186B017C01E894F7F8B9
:102A600020E030E04FE753E4C701B6010E94FB19B4
:102A700018160CF446C0C092F403D092F503E0920D
:102A8000F603F092F703C301B2010E9413197A878B
:102A9000698769817A818B819C810E94131916163E
:102AA0001706E4F5C984DA841C141D04ECF5EE2441
:102AB000E394F12CF092F303E092F20301E010E0D2
:102AC0001A87098724C101968931910509F02ECD15
:102AD00041CD01968931910509F03ECD51CD80E07F
:102AE00090E0AFE7B3E48093000490930104A093D7
:102AF0000204B093030447CF4D825E826F827886D2
:102B00005BCF80E090E0AFE7B3E48093F403909371
:102B1000F503A093F603B093F703B5CF672B69F4E1
:102B2000C984DA84D7FECAC022E030E03093F303D0
:102B30002093F20302E010E0C3CFE984FA841E146C
:102B40001F0414F0EF2839F403E010E01093F303AE
:102B50000093F203B5CF3092F3032092F20304E026
:102B600010E0AECFA5019401C301B2010E94FB1990
:102B700018160CF06CC111E0E11AF10864C1A5014E
:102B80009401C301B2010E94FB1918160CF08CC10C
:102B900031E0E31AF10884C1A985BA85129739F4A6
:102BA00070E060E08BE00E946901B801B5C1298541
:102BB0003A852330310509F06BC0B8018BE00E94E3
:102BC000690170E060E086E00E94690170E060E009
:102BD0008AE00E946901B70189E00E9469018D8144
:102BE0009E81AF81B8858093E4049093E504A0931F
:102BF000E604B093E70489819A81AB81BC8180931C
:102C0000E8049093E904A093EA04B093EB04B801BC
:102C1000110F880B990B0E944B196093F20470936B
:102C2000F3048093F4049093F504B701FF0C880B30
:102C3000990B0E944B196093F6047093F7048093EC
:102C4000F8049093F9046091F2037091F303072E56
:102C5000000C880B990B0E944B196093EC04709345
:102C6000ED048093EE049093EF0460EE74E086ED43
:102C700094E00E94E204A0E0B0E0AB2B09F483CC26
:102C80000E949502882309F47ECC0E9400007BCC30
:102C900089859A8570E060E0049729F48BE00E94B2
:102CA0006901B80190CF8BE00E94690170E060E09B
:102CB00086E00E94690170E060E032C1C984DA8474
:102CC000CD2809F041CF1092F3031092F203109235
:102CD0000004109201041092020410920304109256
:102CE0000404109205041092060410920704109236
:102CF000F4031092F5031092F6031092F70310926A
:102D0000F8031092F9031092FA031092FB038091DA
:102D1000F0039091F103C984DA84C816D90621F131
:102D2000D092F103C092F0031092000410920104BB
:102D300010920204109203041092040410920504ED
:102D400010920604109207041092F4031092F503F7
:102D50001092F6031092F7031092F8031092F90301
:102D60001092FA031092FB030E94C60128EE33E092
:102D700040E050E00E94BA17CA01B9010E94491907
:102D80002091EC033091ED034091EE035091EF035D
:102D90000E942F1820E030E040E85FE30E94FB191A
:102DA000181684F410920004109201041092020488
:102DB000109203041092F4031092F5031092F6039C
:102DC0001092F703E090F403F090F5030091F603FE
:102DD0001091F703E982FA820B831C83C0900004F0
:102DE000D0900104E0900204F0900304CD82DE82D2
:102DF000EF82F88620E030E0A901C701B6010E9409
:102E0000FB1946015701B7FAB094B7F8B0941816F9
:102E100024F48D809E80AF80B884E090E603F0902B
:102E2000E703B7010F2C000C880B990B0E944B197C
:102E30002B013C01A50194010E949C1887FF92CEB2
:102E40000FEFE01AF00AF092E703E092E60320E0C9
:102E500030E0A90169817A818B819C810E94FB19F4
:102E600089809A80AB80BC80181624F0B7FAB094A1
:102E7000B7F8B094E090E403F090E503B7010F2CAD
:102E8000000C880B990B0E944B192B013C01A501EA
:102E900094010E949C1887FF72CE2FEFE21AF20A6B
:102EA000F092E503E092E4036091E4037091E5039E
:102EB0006F3F710519F014F06FEF70E00091E603B9
:102EC0001091E7030F3F110519F014F00FEF10E018
:102ED00017FF02C010E000E01093E7030093E60341
:102EE0007B0177FF02C0F12CE12CF092E503E09228
:102EF000E4031093EB030093EA03F092E903E092FA
:102F0000E80389859A85019709F046CEB8018BE0E0
:102F10000E94690170E060E086E00E946901B701EB
:102F20008AE00E94690170E060E056CEDB018F9379
:102F30009F930E94FB17BF91AF91A29F800D911D9F
:102F4000A39F900DB29F900D1124089597FB072E1B
:102F500016F4009407D077FD09D00E94061807FCEC
:102F600005D03EF4909581959F4F08957095619599
:102F70007F4F0895A1E21A2EAA1BBB1BFD010DC0B5
:102F8000AA1FBB1FEE1FFF1FA217B307E407F50719
:102F900020F0A21BB30BE40BF50B661F771F881FF5
:102FA000991F1A9469F760957095809590959B018B
:102FB000AC01BD01CF010895052E97FB1EF40094CE
:102FC0000E94F31757FD07D00E94BA1707FC03D0E1
:102FD0004EF40C94F31750954095309521953F4F42
:102FE0004F4F5F4F089590958095709561957F4FF5
:102FF0008F4F9F4F08950E942018A59F900DB49F5A
:10300000900DA49F800D911D11240895AA1BBB1B38
:1030100051E107C0AA1FBB1FA617B70710F0A61BD8
:10302000B70B881F991F5A95A9F780959095BC01F9
:10303000CD010895EE0FFF1F0590F491E02D099446
:10304000A29FB001B39FC001A39F700D811D1124E9
:10305000911DB29F700D811D1124911D089550582E
:10306000BB27AA270E9447180C94C1190E94B319C4
:1030700038F00E94BA1920F039F49F3F19F426F471
:103080000C94B0190EF4E095E7FB0C94AA19E92F03
:103090000E94D21958F3BA1762077307840795077D
:1030A00020F079F4A6F50C94F4190EF4E0950B2EAB
:1030B000BA2FA02D0B01B90190010C01CA01A0018A
:1030C0001124FF27591B99F0593F50F4503E68F1E5
:1030D0001A16F040A22F232F342F4427585FF3CF26
:1030E000469537952795A795F0405395C9F77EF4F7
:1030F0001F16BA0B620B730B840BBAF09150A1F040
:10310000FF0FBB1F661F771F881FC2F70EC0BA0FC5
:10311000621F731F841F48F4879577956795B7954D
:10312000F7959E3F08F0B0CF9395880F08F0992748
:10313000EE0F9795879508950E94861908F481E00F
:1031400008950E94B5180C94C1190E94BA1958F03C
:103150000E94B31940F029F45F3F29F00C94AA199A
:1031600051110C94F5190C94B0190E94D21968F3FE
:103170009923B1F3552391F3951B550BBB27AA2730
:1031800062177307840738F09F5F5F4F220F331F6A
:10319000441FAA1FA9F335D00E2E3AF0E0E832D032
:1031A00091505040E695001CCAF72BD0FE2F29D035
:1031B000660F771F881FBB1F261737074807AB0707
:1031C000B0E809F0BB0B802DBF01FF2793585F4F7C
:1031D0003AF09E3F510578F00C94AA190C94F51919
:1031E0005F3FE4F3983ED4F3869577956795B7955E
:1031F000F7959F5FC9F7880F911D9695879597F969
:103200000895E1E0660F771F881FBB1F62177307E1
:103210008407BA0720F0621B730B840BBA0BEE1FF6
:1032200088F7E09508950E941A196894B1110C94DA
:10323000F51908950E94DA1988F09F5798F0B92F70
:103240009927B751B0F0E1F0660F771F881F991FDB
:103250001AF0BA95C9F714C0B13091F00E94F41970
:10326000B1E008950C94F419672F782F8827B85F80
:1032700039F0B93FCCF3869577956795B395D9F733
:103280003EF490958095709561957F4F8F4F9F4F3D
:103290000895E89409C097FB3EF490958095709549
:1032A00061957F4F8F4F9F4F9923A9F0F92F96E992
:1032B000BB279395F695879577956795B795F11107
:1032C000F8CFFAF4BB0F11F460FF1BC06F5F7F4FA4
:1032D0008F4F9F4F16C0882311F096E911C07723B6
:1032E00021F09EE8872F762F05C0662371F096E8BF
:1032F000862F70E060E02AF09A95660F771F881F8E
:10330000DAF7880F9695879597F90895990F000831
:10331000550FAA0BE0E8FEEF16161706E807F907A7
:10332000C0F012161306E407F50798F0621B730B42
:10333000840B950B39F40A2661F0232B242B252BC3
:1033400021F408950A2609F4A140A6958FEF811D66
:10335000811D089597F99F6780E870E060E0089507
:103360009FEF80EC089500240A941616170618069D
:103370000906089500240A94121613061406050679
:103380000895092E0394000C11F4882352F0BB0F0A
:1033900040F4BF2B11F460FF04C06F5F7F4F8F4F6D
:1033A0009F4F089557FD9058440F551F59F05F3FA8
:1033B00071F04795880F97FB991F61F09F3F79F057
:1033C00087950895121613061406551FF2CF4695D9
:1033D000F1DF08C0161617061806991FF1CF86955B
:1033E0007105610508940895E894BB27662777273F
:1033F000CB0197F908950E94861908F48FEF08957C
:103400000E94131A0C94C1190E94B31938F00E943B
:10341000BA1920F0952311F00C94AA190C94B01944
:1034200011240C94F5190E94D21970F3959FC1F3E1
:10343000950F50E0551F629FF001729FBB27F00D62
:10344000B11D639FAA27F00DB11DAA1F649F6627B7
:10345000B00DA11D661F829F2227B00DA11D621F06
:10346000739FB00DA11D621F839FA00D611D221FC0
:10347000749F3327A00D611D231F849F600D211DA4
:10348000822F762F6A2F11249F5750409AF0F1F027
:1034900088234AF0EE0FFF1FBB1F661F771F881F90
:1034A00091505040A9F79E3F510580F00C94AA1905
:1034B0000C94F5195F3FE4F3983ED4F38695779525
:1034C0006795B795F795E7959F5FC1F7FE2B880F36
:1034D000911D9695879597F90895B0E0A0E0E3E7F0
:1034E000FAE10C945A1C8C01009751F4CB010E9414
:1034F000331B8C01C801CDB7DEB7E0E10C94761C1C
:10350000FC01E60FF71F9C0122503109E217F30777
:1035100008F49DC0D901CD91DC911197C617D7074A
:1035200098F0C530D10530F3CE0104978617970780
:1035300008F3C61BD70B2297C193D1936D937C934D
:10354000CF010E94CF1BD6CF5B01AC1ABD0A4C0144
:103550008C0E9D1EA0911E08B0911F08512C412C6D
:10356000F12CE12C109731F580911C0890911D08E9
:103570008815990509F05CC04616570608F058C032
:103580008091060190910701009741F48DB79EB795
:1035900040910A0150910B01841B950BE817F90724
:1035A00008F055C0F0931D08E0931C08F9017183E1
:1035B0006083A0CF8D919C91119712966C90129779
:1035C00013967C901397A815B90559F56C0142E044
:1035D000C40ED11CCA14DB0420F1AC014A195B09EA
:1035E000DA011296159780F06282738251834083CC
:1035F000D9016D937C93E114F10471F0D701139616
:10360000FC93EE93129776CF22968C0F9D1FF901B3
:1036100091838083F301EFCFF0931F08E0931E089E
:1036200069CF4816590608F42C017D01D3019ACFC1
:10363000CB010E94331B7C01009749F0AE01B80119
:103640000E942A1BC8010E94CF1B870153CF10E0A4
:1036500000E050CFFB01DC0102C001900D9241500F
:103660005040D8F708950F931F93CF93DF93823084
:10367000910510F482E090E0E0911E08F0911F089F
:1036800030E020E0B0E0A0E0309799F4211531055A
:1036900009F44AC0281B390B24303105D8F58A813A
:1036A0009B816115710589F1FB0193838283FE0182
:1036B00011C0408151810281138148175907E0F000
:1036C0004817590799F4109761F012960C931297C6
:1036D00013961C933296CF01DF91CF911F910F91DA
:1036E000089500931E0810931F08F4CF211531058B
:1036F00051F04217530738F0A901DB019A01BD01CF
:10370000DF01F801C1CFEF01F9CF90931F0880933B
:103710001E08CDCFFE01E20FF31F8193919322503B
:10372000310939832883D7CF20911C0830911D0897
:10373000232B41F4209108013091090130931D0899
:1037400020931C08209106013091070121153105B5
:1037500041F42DB73EB740910A0150910B01241B53
:10376000350BE0911C08F0911D08E217F307A0F457
:103770002E1B3F0B2817390778F0AC014E5F5F4FC7
:103780002417350748F04E0F5F1F50931D084093D4
:103790001C08819391939FCFF0E0E0E09CCFCF9302
:1037A000DF930097E9F0FC01329713821282A09117
:1037B0001E08B0911F08ED0130E020E01097A1F441
:1037C00020813181820F931F20911C0830911D08A8
:1037D0002817390709F061C0F0931D08E0931C0811
:1037E000DF91CF910895EA01CE17DF07E8F54A810E
:1037F0005B819E0141155105B1F7E901FB83EA8325
:1038000049915991C40FD51FEC17FD0761F48081D0
:1038100091810296840F951FE901998388838281A3
:1038200093819B838A83F0E0E0E012968D919C91D6
:1038300013970097B9F52D913C911197CD01029600
:10384000820F931F20911C0830911D0828173907FB
:1038500039F6309751F510921F0810921E08B09358
:103860001D08A0931C08BCCFD383C2834081518123
:10387000840F951FC817D90761F44E5F5F4F888189
:103880009981480F591F518340838A819B8193837B
:1038900082832115310509F0B0CFF0931F08E09322
:1038A0001E089ECFFD01DC01C0CF13821282D7CF4C
:1038B0002F923F924F925F926F927F928F929F9240
:1038C000AF92BF92CF92DF92EF92FF920F931F932E
:1038D000CF93DF93CDB7DEB7CA1BDB0B0FB6F894DF
:1038E000DEBF0FBECDBF09942A88398848885F841F
:1038F0006E847D848C849B84AA84B984C884DF8090
:10390000EE80FD800C811B81AA81B981CE0FD11D73
:103910000FB6F894DEBF0FBECDBFED010895F89449
:02392000FFCFD7
:1039220001012A022A02000020088000726F7373CC
:10393200657269616C5F6D7367732F52657175652E
:103942007374506172616D0000000000830E5805AF
:10395200550552050000000095064F064C06490623
:1039620000000000530EFC04F904F60400000000FD
:10397200CB022B0258021803890267027B02000065
:1039820000003F087507B904B604000000006F0884
:103992009F07B304B00400000000700D8B08F3040D
:1039A200F0040000000047030E0A38030000000084
:1039B200C504430340033D030000000036086E07C0
:1039C200AD04AA0400000000D904BC0440033D0376
:1039D200383532343538366533346662643763627B
:1039E200316330386335663566316361306535374A
:1039F200007374645F6D7367732F496E74313600A0
:103A02004D6573736167652066726F6D20646576BC
:103A12006963652064726F707065643A206D6573C6
:103A220073616765206C6172676572207468616E8C
:103A3200206275666665722E0066646232383231C3
:103A42003062666139643763393131343632363047
:103A5200313738643961353834007374645F6D739B
:103A620067732F466C6F61743634003966313935AD
:103A720066383831323436666466613237393864D2
:103A820031643365656263613834610067656F6D07
:103A9200657472795F6D7367732F547769737400FD
:103AA2003461383432623635663431333038346416
:103AB2006332623130666234383465613766313779
:103AC2000067656F6D657472795F6D7367732F56EA
:103AD2006563746F723300396630653938626461C8
:103AE2003635393831393836646466353361666162
:103AF20037613430653439003131616264373331D2
:103B020063323539333332363163643631383362B6
:103B1200643132643632393500726F73736572699B
:103B2200616C5F6D7367732F4C6F67003061643532
:103B32003166383866633434383932663863313046
:103B420036383430373736343630303500726F73AA
:103B520073657269616C5F6D7367732F546F7069FF
:103B620063496E666F006364373136366337346398
:103B7200353532633331316662636332666535618E
:103B8200376263323839007374645F6D7367732F01
:103B920054696D650072696768745F7469636B73F9
:103BA200006C6566745F7469636B73006C65667440
:103BB2005F776865656C5F76656C007269676874CB
:103BC2005F776865656C5F76656C00636F72655FD1
:103BD200696E666F006C6566745F776865656C5FB9
:103BE20071756572790072696768745F7768656577
:083BF2006C5F717565727900CA
:00000001FF
