:100000000C9462000C943F100C9418100C948A000D
:100010000C948A000C948A000C948A000C948A0038
:100020000C948A000C948A000C948A000C948A0028
:100030000C948A000C948A000C948A000C948A0018
:100040000C94CE0F0C948A000C948C100C946610B7
:100050000C948A000C948A000C948A000C948A00F8
:100060000C948A000C948A000000000024002700F1
:100070002A0000000000250028002B0000000000DE
:1000800023002600290004040404040404040202DA
:100090000202020203030303030301020408102007
:1000A0004080010204081020010204081020000012
:1000B0000008000201000003040700000000000027
:1000C0000000BE1011241FBECFEFD8E0DEBFCDBFB1
:1000D00013E0A0E0B1E0E0E7F6E302C005900D9286
:1000E000A635B107D9F727E0A6E5B3E001C01D9218
:1000F000A635B207E1F710E0C2E6D0E004C02197D0
:10010000FE010E94C116C136D107C9F70E94F6113F
:100110000C94361B0C940000833081F028F481305D
:1001200099F08230A9F008958730A9F08830C9F09D
:100130008430B1F4809180008F7D03C08091800075
:100140008F7780938000089584B58F7784BD08955C
:1001500084B58F7DFBCF8091B0008F778093B00006
:1001600008958091B0008F7DF9CFCF93DF93282F32
:1001700030E0F901E255FF4F8491F901E656FF4F57
:10018000D491F901EA57FF4FC491CC23A1F081111A
:100190000E948C00EC2FF0E0EE0FFF1FE458FF4FA1
:1001A000A591B491EC91ED2381E090E009F480E019
:1001B000DF91CF91089580E090E0FACF1F93CF9325
:1001C000DF93282F30E0F901E255FF4F8491F901C8
:1001D000E656FF4FD491F901EA57FF4FC491CC2363
:1001E000A9F0162F81110E948C00EC2FF0E0EE0F89
:1001F000FF1FEE58FF4FA591B4918FB7F894EC9183
:10020000111108C0D095DE23DC938FBFDF91CF9111
:100210001F910895DE2BF8CFCF93DF9390E0FC0180
:10022000E656FF4F24918A579F4FFC018491882303
:10023000C9F090E0880F991FFC01E859FF4FA59184
:10024000B491FC01EE58FF4FC591D49161110DC0DE
:100250009FB7F8948C91209582238C9388812823D2
:1002600028839FBFDF91CF910895623051F49FB7EB
:10027000F8943C91822F809583238C93E8812E2BD8
:10028000EFCF8FB7F894EC912E2B2C938FBFEACF42
:100290001F93CF93DF93182FEB0161E00E940C01B5
:1002A000209739F460E0812FDF91CF911F910C945A
:1002B000DE00CF3FD10511F461E0F5CFE12FF0E092
:1002C000E255FF4FE491E33031F140F4E130B1F019
:1002D000E230E1F0C038D1057CF7E4CFE73029F116
:1002E000E83059F1E430B1F780918000806280936A
:1002F0008000D0938B00C0938A0004C084B58068CE
:1003000084BDC7BDDF91CF911F91089584B58062F0
:1003100084BDC8BDF7CF8091800080688093800045
:10032000D0938900C0938800EDCF8091B0008068A1
:100330008093B000C093B300E5CF8091B00080629D
:100340008093B000C093B400DDCF2FB7F8946091D4
:100350008B0370918C0380918D0390918E032FBF3E
:1003600008954F925F926F927F928F929F92AF9279
:10037000BF92CF92DF92EF92FF92CF93DF93EC0187
:100380000E94A50128EE33E040E050E00E94611693
:10039000CA01B9010E94F01760937E0370937F0336
:1003A000809380039093810320E030E04BE853E496
:1003B0006C817D818E819F810E94A71820E030E0B2
:1003C00040E552E40E94D7166B017C01C0927A038B
:1003D000D0927B03E0927C03F0927D03C09276037F
:1003E000D0927703E0927803F09279038A8C9B8C09
:1003F000AC8CBD8C20E030E0A901C501B4010E94A5
:100400004317882309F457C020E030E0A901C50153
:10041000B4010E94A2181816ECF580E090E0A8E460
:10042000B3EC80937A0390937B03A0937C03B09307
:100430007D0380E090E0A8E4B3E48093760390939A
:100440007703A0937803B0937903C0907A03D09098
:100450007B03E0907C03F0907D0320E030E0A90175
:10046000C701B6010E94A21818160CF093C020E034
:1004700030E048EC52E4C701B6010E94431787FF01
:1004800094C010927A0310927B0310927C03109216
:100490007D038BC080E090E0A8E4B3E480937A030E
:1004A00090937B03A0937C03B0937D0380E090E066
:1004B000A8E4B3ECC2CF20916C0330916D0340915E
:1004C0006E0350916F03609172037091730380917A
:1004D0007403909175030E94D6164B015C01409005
:1004E0005A0350905B0360905C0370905D03209111
:1004F0005603309157034091580350915903C3015B
:10050000B2010E94D716A50194010E94D71620E0DF
:1005100030E040E450E40E94481740925603509265
:100520005703609258037092590380925A03909235
:100530005B03A0925C03B0925D0320E030E040EFEB
:1005400052E40E94A7180E94BA17072E000C880BCD
:10055000990B0E94F2174B015C01AC019B01C70192
:10056000B6010E94D61660937A0370937B03809342
:100570007C0390937D03A5019401C701B6010E94FD
:10058000D7166093760370937703809378039093E4
:1005900079035BCF20E030E048EC52ECC701B601B4
:1005A0000E94A21818160CF46CCFC0907603D0905D
:1005B0007703E0907803F090790320E030E0A90120
:1005C000C701B6010E94A21818169CF420E030E082
:1005D00048EC52E4C701B6010E94431787FF13C0DD
:1005E0001092760310927703109278031092790399
:1005F0000AC020E030E048EC52ECC701B6010E948E
:10060000A21818166CF3DF91CF91FF90EF90DF9056
:10061000CF90BF90AF909F908F907F906F905F90A2
:100620004F9008950895AF92BF92CF92DF92EF92CC
:10063000FF920F931F93CF93DF936C017B018B018C
:10064000040F151FEB015E01AE18BF08C017D107DC
:1006500059F06991D601ED91FC910190F081E02D66
:10066000C6010995892B79F7C501DF91CF911F91BB
:100670000F91FF90EF90DF90CF90BF90AF900895D3
:10068000FC01538D448D252F30E0842F90E0821B98
:10069000930B541710F0CF96089501970895FC011D
:1006A000918D828D981761F0A28DAE0FBF2FB11D75
:1006B0005D968C91928D9F5F9F73928F90E00895CD
:1006C0008FEF9FEF0895FC01918D828D981731F087
:1006D000828DE80FF11D858D90E008958FEF9FEFDB
:1006E0000895FC01918D228D892F90E0805C9F4FB1
:1006F000821B91098F73992708958FE893E00E94D8
:10070000710321E0892B09F420E0822F089580E015
:1007100090E0892B29F00E947D0381110C94000048
:100720000895FC01A48DA80FB92FB11DA35ABF4F86
:100730002C91848D90E001968F739927848FA689E0
:10074000B7892C93A089B1898C91837080648C9334
:10075000938D848D981306C00288F389E02D8081E3
:100760008F7D80830895EF92FF920F931F93CF9315
:10077000DF93EC0181E0888F9B8D8C8D98131AC0DC
:10078000E889F989808185FF15C09FB7F894EE89C3
:10079000FF896083E889F989808183708064808320
:1007A0009FBF81E090E0DF91CF911F910F91FF906B
:1007B000EF900895F62E0B8D10E00F5F1F4F0F7313
:1007C0001127E02E8C8D8E110CC00FB607FCFACFCE
:1007D000E889F989808185FFF5CFCE010E949103D8
:1007E000F1CFEB8DEC0FFD2FF11DE35AFF4FF0829F
:1007F0009FB7F8940B8FEA89FB8980818062CFCF05
:10080000CF93DF93EC01888D8823B9F0AA89BB8947
:10081000E889F9898C9185FD03C0808186FD0DC032
:100820000FB607FCF7CF8C9185FFF2CF808185FF53
:10083000EDCFCE010E949103E9CFDF91CF910895D2
:100840008A549D4FFC018081089584EA91E00895C7
:1008500085EC91E00895FC0186A197A10895AF92DF
:10086000BF92CF92DF92EF92FF920F931F93CF939D
:10087000DF9300D000D01F92CDB7DEB7643671058C
:100880004CF0FC01EA54FD4F2081F12CE12C222395
:1008900009F476C0DA017B018C01BC01695C7E4FF2
:1008A000ED91FC910190F081E02DCA01099568015C
:1008B00020EDC21A2EEFD20A2FEFD6012C93F801A9
:1008C000EF5CFE4F2EEF208331968083319690832C
:1008D0003196292F280F209520833196E082169695
:1008E000FC9245E050E030E020E0DC011696A417D1
:1008F000B50734F06191260F311D4F5F5F4FF7CF81
:100900007C01B8E0EB0EF11C800F911FFC01E95C4B
:10091000FE4F20952083E9E1EE16E1E0FE06B4F4F7
:100920005601C5018C199D098E159F054CF5D801FE
:1009300012968D919C91F50161915F01DC01ED9121
:10094000FC910190F081E02D0995EBCF84E491E0DA
:100950009A83898383E08B8389ED91E09D838C83E7
:10096000D801ED91FC910190F081E02DAE014F5F37
:100970005F4F67E070E0C8010995EE24EA94FE2C11
:10098000C7010F900F900F900F900F90DF91CF91B4
:100990001F910F91FF90EF90DF90CF90BF90AF909D
:1009A00008950F931F93CF93DF93CDB7DEB72A97A8
:1009B0000FB6F894DEBF0FBECDBF8C0188E391E087
:1009C0009A8389831B821C821D821E821F82188645
:1009D00019861A86D801ED91FC910190F081E02DE5
:1009E000AE014F5F5F4F6AE070E0C80109950E9459
:1009F000A501F80160877187828793872A960FB6D1
:100A0000F894DEBF0FBECDBFDF91CF911F910F9144
:100A10000895CF92DF92EF92FF92DC011D921D921A
:100A20001D921C921397FB0130E020E0419150E0B1
:100A3000022E02C0440F551F0A94E2F7052E000C47
:100A4000660B770BCD90DD90ED90FC9013974C29C1
:100A50005D296E297F294D935D936D937C93139748
:100A6000285F3F4F2032310509F7FF90EF90DF906C
:100A7000CF900895FC014083518312821382089520
:100A800085E00E94B500892BA9F4109201018091A4
:100A900060049091610420910101222389F08F3F2D
:100AA0002FE7920759F480E090E8909361048093D7
:100AB0006004089581E080930101E9CF0196F5CFAC
:100AC000811520E8920719F48FEF9FE7EECF019789
:100AD000ECCF84E00E94B500892BB1F481E08093D3
:100AE000000180916E0490916F04209100012223F7
:100AF00081F08F3F2FE7920751F480E090E89093C8
:100B00006F0480936E04089510920001EACF01965D
:100B1000F6CF811520E8920719F48FEF9FE7EFCF0A
:100B20000197EDCF82E192E0089583E392E008958A
:100B300089E492E008958AE692E00895FB0120811D
:100B40003181FC013383228382E090E00895FC012F
:100B500022818381FB012083818382E090E00895DC
:100B600089E792E008958CE091E008958AE992E0A7
:100B700008958BEB92E008954F925F926F927F926F
:100B80008F929F92AF92BF92EF92FF920F931F931B
:100B9000CF93DF9300D000D0CDB7DEB77C018B01BF
:100BA000FB018191BF01F7018283CE0101960E9472
:100BB000090589819A81AB81BC814C015D01F5E019
:100BC0008F0E911CA11CB11CA8014C5F5F4FFA0154
:100BD00025E030E02901712C612C481459046A0485
:100BE0007B0428F4618161932F5F3F4FF3CFF801BD
:100BF000E80FF91F1482F7015483438305960F9081
:100C00000F900F900F90DF91CF911F910F91FF9058
:100C1000EF90BF90AF909F908F907F906F905F907C
:100C20004F9008958EEC92E008958FEE92E0089533
:100C30004F925F926F927F928F929F92AF92BF92EC
:100C4000CF92DF92EF92FF920F931F93CF93DF9398
:100C5000CDB7DEB72C970FB6F894DEBF0FBECDBF71
:100C60007C018B01DB018C9190E0F70193838283FF
:100C700011962C91922B938382836E5F7F4FCE01CE
:100C800001960E94090589809A80AB80BC8024016E
:100C90003501F6E04F0E511C611C711C98012B5F51
:100CA0003F4FF90186E090E0AC0170E060E0441550
:100CB00055056605770520F4418141930196F4CFEF
:100CC000B4016A5F7F4FF801E80DF91D1582D70165
:100CD00015963C932E931497600F711FCE010596C5
:100CE0000E940905BAE08B0E911C4D805E806F80DA
:100CF0007884C401092C000CAA0BBB0B5C016D01AC
:100D0000A40CB51CC61CD71CF801E80DF91DAF01D9
:100D1000401B510B70E060E04A155B056C057D05DA
:100D200038F42191AF0142505109DA012C93EFCFF1
:100D3000480C591CB801640D751DFB0131971082D8
:100D4000C4010197800F911FF70197838683CE011D
:100D500009960E94090592012C5F3F4F89849A846D
:100D6000AB84BC84A901032E000C660B770B480DE5
:100D7000591D6A1D7B1DF801E20FF31FCF01801B77
:100D8000910BB0E0A0E084179507A607B70728F4F9
:100D90008191DF0112978C93F1CFC901880D991DC4
:100DA000F801E80FF91FDF0111971C92215031095A
:100DB000020F131FD70119961C930E9318972181C8
:100DC000428150E070E060E0BA0155274427522B81
:100DD0002081422B2381722BF7014287538764873E
:100DE000758704962C960FB6F894DEBF0FBECDBF64
:100DF000DF91CF911F910F91FF90EF90DF90CF90F7
:100E0000BF90AF909F908F907F906F905F904F902A
:100E1000089588E093E0089589E293E00895FC0145
:100E2000DB014C9150E070E060E0428353836483C7
:100E3000758311968C911197582B42835383648349
:100E4000758312968C911297682B42835383648327
:100E5000758313968C911397782B42835383648305
:100E6000758314964C91149750E070E060E04683CF
:100E700057836087718715968C911597582B4683F9
:100E800057836087718716968C911697682B4683D7
:100E900057836087718717968C91782B4683578389
:100EA0006087718788E090E00895DC01FB0112966D
:100EB0008C911297808313968C911397818314964B
:100EC0008C911497828315968C911597838316962F
:100ED0008C911697848317968C9117978583189613
:100EE0008C911897868319968C91878388E090E07F
:100EF0000895CF92DF92EF92FF920F931F93FC0120
:100F0000DB01C3800C2D10E030E020E045E0369599
:100F10002795179507954A95D1F70D931D932D9316
:100F20003C9313978481C82ED12CF12CE12C53E0F3
:100F3000CC0CDD1CEE1CFF1C5A95D1F7C02AD12A1F
:100F4000E22AF32ACD92DD92ED92FC9213978581ED
:100F5000082F10E030E020E06BE0000F111F221F8F
:100F6000331F6A95D1F70C291D292E293F290D938E
:100F70001D932D933C931397468150E070E060E001
:100F800083E1440F551F661F771F8A95D1F74427C9
:100F9000552768777727042B152B262B372B0D9396
:100FA0001D932D933C931397478150E070E060E0D0
:100FB00094E0440F551F661F771F9A95D1F7407F25
:100FC000577066277727C680D12CF12CE12C84E05E
:100FD000F694E794D794C7948A95D1F74C295D2964
:100FE0006E297F294115510561057105A1F0405811
:100FF00053406109710997E1440F551F661F771F20
:101000009A95D1F7402B512B622B732B4D935D9307
:101010006D937C931397478150E070E060E0742FEC
:1010200066275527442744275527662770780D9152
:101030001D912D913C911397402B512B622B732BBB
:101040004D935D936D937C93139788E090E01F918F
:101050000F91FF90EF90DF90CF900895EF92FF9265
:101060000F931F93CF93DF938C017B01BC016E5FC5
:101070007F4FC7010E947907EC01B8016A5F7F4F7B
:10108000C7018C0F9D1F0E947907C80FD91FB80197
:10109000665F7F4FC7018C0F9D1F0E9479078C0FE1
:1010A0009D1FDF91CF911F910F91FF90EF900895B9
:1010B000EF92FF920F931F93CF93DF937C01EB018D
:1010C00002960E942E088C01BE01680F791FC7018D
:1010D00040960E942E08800F911FDF91CF911F91A3
:1010E0000F91FF90EF9008950F931F93CF93DF938D
:1010F0008C01EC012696CE010E945808D8019496E6
:10110000ED91FC91CE01DF91CF911F910F91099448
:101110008F929F92AF92BF92CF92DF92EF92FF9207
:10112000CF93DF93EC014A015B01DB01CA0147E188
:10113000B595A795979587954A95D1F79927AA27A9
:10114000BB270097A105B10521F080589C4FAF4FF8
:10115000BF4F188219821A82B501A40125E0440FFD
:10116000551F661F771F2A95D1F74B83B501A40140
:1011700033E075956795579547953A95D1F74C8328
:10118000B501A401EBE07595679557954795EA95EC
:10119000D1F74D83B501A401F3E175956795579596
:1011A0004795FA95D1F74F706C017D0124E0CC0C86
:1011B000DD1CEE1CFF1C2A95D1F74C294E836C01D7
:1011C0007D0134E0F594E794D794C7943A95D1F72C
:1011D00020E030E0A901C501B4010E94431787FD5A
:1011E0000EC0CF8288E090E0DF91CF91FF90EF902A
:1011F000DF90CF90BF90AF909F908F9008958C2DEF
:1012000080688F83EFCFEF92FF920F931F93CF935E
:10121000DF937C018B01FC014281538164817581E4
:10122000C8010E948808EC01F7014681578160855A
:101230007185C8018C0F9D1F0E948808C80FD91F97
:10124000F7014285538564857585C8018C0F9D1F04
:101250000E9488088C0F9D1FDF91CF911F910F91E5
:10126000FF90EF900895EF92FF920F931F93CF930B
:10127000DF937C01EB0102960E9403098C01BE0101
:10128000680F791FC70140960E940309800F911FC4
:10129000DF91CF911F910F91FF90EF9008952F92C2
:1012A0003F924F925F926F927F928F929F92AF92F6
:1012B000BF92CF92DF92EF92FF920F931F93CF9343
:1012C000DF93CDB7DEB72E970FB6F894DEBF0FBE13
:1012D000CDBF8C016B01DB018D909D90AD90BC90DA
:1012E000FC0182819381A481B58188159905AA05A5
:1012F000BB0570F4B401660F771F660F771F8285F8
:1013000093850E941419D8011B969C938E931A976B
:10131000F80182829382A482B582C60140E050E047
:10132000BA01A4E0EA2EF12C98012A5F3F4FDC01BC
:101330001596EC91159716964C901697512C712C8A
:10134000612C3201552444245E2A1496EC911497A2
:101350004E2A1796EC917E2AD7011701E4E02E0E53
:10136000311C71010496F80182809380A480B580BD
:10137000481559056A057B05A8F4468257826086A0
:1013800071861497A284B384AA0DBB1DE4E0BE2E1F
:10139000F90101900D92BA94E1F74F5F5F4F6F4FE3
:1013A0007F4FC5CF84859585A685B785841595051E
:1013B000A605B70570F4B201660F771F660F771F99
:1013C000848995890E941419D80155969C938E930F
:1013D0005497F8014486558666867786C601820D45
:1013E000931D412C512C32011C019801205F3F4F6D
:1013F000DC0111966C91119712968C901297912C9A
:10140000B12CA12C540199248824962A6C91862A07
:1014100013966C91B62AB4E0EB0EF11CF8014485EA
:101420005585668577854416550666067706C0F4A9
:10143000808A918AA28AB38ABC0162197309A4893D
:10144000B589A60FB71F64E0F90101900D926A9566
:10145000E1F7BFEF4B1A5B0A6B0A7B0A0496C8CF11
:1014600086899789A08DB18D88159905AA05BB0538
:1014700060F4B401660F771F848D958D0E94141956
:10148000D8015D969C938E935C97F801868A978A23
:10149000A08EB18E412C512C32011801FAE12F0E91
:1014A000311CF80186899789A08DB18D481659069F
:1014B0006A067B0608F05CC0B6016E0D7F1DCE018A
:1014C00001960E94090597012C5F3F4F3E872D87AB
:1014D00089809A80AB80BC80C901032E000CAA0BC6
:1014E000BB0BAC01BD01480D591D6A1D7B1D498711
:1014F0005A876B877C87F901EC0DFD1D9F012C1924
:101500003D09B90190E080E029853A854B855C85ED
:10151000621773078407950728F42191DF0112975A
:101520002C93ECCFED84FE84E80CF91CF601EE0D53
:10153000FF1D319710828D859E8501978C0D9D1D15
:10154000D8015B969C938E935A97C201880F991F7E
:101550005C96ED91FC91E80FF91FD1018D919C9162
:1015600091838083BFEF4B1A5B0A6B0A7B0A99CF8A
:10157000C7012E960FB6F894DEBF0FBECDBFDF9128
:10158000CF911F910F91FF90EF90DF90CF90BF9080
:10159000AF909F908F907F906F905F904F903F9013
:1015A0002F9008952F923F924F925F926F927F9269
:1015B0008F929F92AF92BF92CF92DF92EF92FF9263
:1015C0000F931F93CF93DF93CDB7DEB7A6970FB6D8
:1015D000F894DEBF0FBECDBF8C010E94A5014B0168
:1015E0005C01980125543D4F3E8B2D8BF901808184
:1015F0009181A281B38175016401C81AD90AEA0AEE
:10160000FB0AD701C601893F9A42A105B10510F036
:1016100035971082180134E5231A3DEF330AD101C2
:101620008D919C91892B79F0F801E154FD4F8081D7
:101630009181A281B38188159905AA05BB0518F48B
:10164000F1011182108298012C543D4F3A8B298B65
:10165000A80140555D4F5C8B4B8BC8014896988F15
:101660008F8BD801AA54BD4FBC8FAB8FF801EC53C0
:10167000FD4FFE8FED8F215F3F4F38A32F8F4250DC
:101680005109588B4F8786569D4F9A8F898F19968F
:10169000BAA3A9A3A50194012C5E3F4F4F4F5F4F02
:1016A0002BA33CA34DA35EA3F80184899589A68949
:1016B000B789892B8A2B8B2BB9F5D80112968D917E
:1016C0009C91DC01ED91FC910284F385E02D09955C
:1016D0009C0197FF3DC0F801EA54FD4F80818823AB
:1016E00001F17801B9E4EB1ABDEFFB0AF701808143
:1016F0009181A281B381A5019401281B390B4A0B6A
:101700005B0BDA01C901853C9940A105B10548F0A0
:10171000C8010E94D104D7018D929D92AD92BC92D6
:10172000139790E080E0B8C10E94A501681979097B
:101730008A099B09F801C488D588E688F788C61607
:10174000D706E806F90608F0B8CF8EEF9FEFA4C1E0
:10175000A989BA898D919C911197820F931F8D93BE
:101760009C93F1014081518147305105F9F4A98DD5
:10177000BA8D8D919C911197AC014F5F5F4F4D9346
:101780005C93800F911FFC01208FAF85B8898D91EC
:101790009C91119701978D939C93892B09F084CF8D
:1017A00088E090E0F101918380837ECF411551055F
:1017B00021F52F3F310581F481E090E09183808312
:1017C000CBA0DCA0EDA0FEA0A9A1BAA1CD92DD9294
:1017D000ED92FC92139768CF0E94A50168197909D0
:1017E0008A099B09693873418105910508F45CCF2A
:1017F000F801EA54FD4F1082A8CF4130510589F419
:101800002E3F310519F482E090E0CCCF1182108296
:10181000EB8DFC8D8081811147CFC8010E94D104DE
:1018200043CF4230510591F4AF85B8892D933C9355
:10183000E98DFA8D1182108283E090E0D1018D93C1
:101840009C93E989FA89318320832ECF4330510557
:1018500071F4322F2227AF85B8898D919C91119711
:10186000280F391F2D933C9384E090E09BCF4430A8
:10187000510579F460E071E00E944D168F3F9105AB
:1018800029F485E090E0918380830ECF118210824D
:101890000BCF4530510569F4AB89BC892D933C933E
:1018A00086E090E091838083A989BA892D933C9347
:1018B000FBCE46305105A1F4322F2227EB89FC895B
:1018C00080819181280F391F3183208387E090E048
:1018D000D1018D939C93EF85F889808191815DCFB3
:1018E0004830510509F0E0CE1182108260E071E0CD
:1018F0000E944D168F3F910509F0D6CEAB89BC8969
:10190000ED91FC91309709F0E0C0C8010E94D1042C
:101910008CE291E09A8389831C821B8281E192E0B0
:101920009E838D8398878F839A8789871B861C86E1
:101930001D861E866801B8EBCB1ABDEFDB0A780165
:10194000E6E8EE1AEDEFFE0A28E1422E5524539404
:10195000612C712CD601ED91FC913097A9F1848115
:1019600095819C838B83808191819E838D838281ED
:101970009381DC01ED91FC910480F581E02D0995C6
:1019800098878F83D601ED91FC9182819381DC0150
:10199000ED91FC910680F781E02D09959A87898762
:1019A0004B865C866D867E86D601ED91FC916085C6
:1019B0007185D801ED91FC910190F081E02DAE018F
:1019C0004F5F5F4FC8010995B2E0CB0ED11CEC14FC
:1019D000FD0409F0BFCF98E1492E55245394612CA2
:1019E000712CF701A081B1811097E1F112968D91D0
:1019F0009C9113979C838B8314968D919C91159742
:101A00009E838D83ED91FC9111970480F581E02DEB
:101A1000CD01099598878F83D7018D919C91DC0129
:101A2000ED91FC910680F781E02D09959A878987D1
:101A30004B865C866D867E86D801ED91FC91C080D8
:101A4000D180F70180819181DC01ED91FC910280D0
:101A5000F381E02D0995AE014F5F5F4FBC01C801D6
:101A6000F6010995F2E0EF0EF11CE214F30409F01F
:101A7000B8CFF801EA54FD4F81E08083319680822F
:101A80009182A282B382AD89BE898D929D92AD92E0
:101A9000BC9213978FEF9FEFA6960FB6F894DEBF18
:101AA0000FBECDBFDF91CF911F910F91FF90EF90AF
:101AB000DF90CF90BF90AF909F908F907F906F906E
:101AC0005F904F903F902F900895EA30F10509F014
:101AD000A1C088E391E09A8389831B821C821D82C6
:101AE0001E821F82188619861A860E94A501F80197
:101AF000C084D184E284F3849B01AC012C193D099C
:101B00004E095F0969017A016F89788DCE010196CE
:101B10000E940F07C701B60128EE33E040E050E015
:101B20000E94611669017A019B01AC018B819C8145
:101B3000AD81BE818C0D9D1DAE1DBF1D8B839C8311
:101B4000AD83BE8360E472E48FE090E00E943D16B6
:101B5000CF80D884E984FA84DC01CB018C0D9D1DF3
:101B6000AE1DBF1D8F839887A987BA870E94A501E4
:101B7000CF80D884E984FA8436E3D31A35E6E30AC1
:101B800034ECF30A28EE33E040E050E00E946116A6
:101B900029013A019B01AC0160E472E48FE090E01E
:101BA0000E943D16A7019601261B370B480B590BC7
:101BB000CA01B9012B813C814D815E8121503109DF
:101BC0004109510969017A01C418D508E608F708E6
:101BD0002601370120E03AEC4AE95BE30E946116F6
:101BE000420E531E641E751ED8011C964D925D92C6
:101BF0006D927C921F97F801608B718B828B938B17
:101C00000E94A501AD89BE896D937D938D939C93B0
:101C100013974ACDE630F10559F46F89788D8D8D93
:101C20009E8D0E944F0981E0EF8DF8A180833CCD0D
:101C3000EB30F10521F4AB8DBC8D1C9235CDE75214
:101C4000FF4FEE0FFF1FE00FF11F80819181009782
:101C500009F42ACDDC01ED91FC910190F081E02D99
:101C60006F89788D099520CD4F925F926F927F9208
:101C70008F929F92AF92BF92CF92DF92EF92FF929C
:101C80000F931F93CF93DF93EC017B018A81FB01BC
:101C900080838B8181838C8182838D818383349641
:101CA000412C512C320104E010E09F012F5F3F4F87
:101CB000CF010296DF011396A8010C5F1F4F8A80A7
:101CC0009B80AC80BD80481459046A047B04C8F42E
:101CD000AA85BB85A40FB51F14974C9111962C9122
:101CE000119712969C91129713968C9140832183A1
:101CF000928383838FEF481A580A680A780A3496C9
:101D0000D4CF4C8540834D85F90140832E85FC015D
:101D100020838F858C93F701E00FF11F412C512C0C
:101D20003201AF019F012F5F3F4FCF010296DF01CC
:101D300013960C5F1F4F8C849D84AE84BF8448141F
:101D400059046A047B04D8F4CF01841B950BAC8939
:101D5000BD89A80FB91F3C9111962C91119712962D
:101D60009C91129713968C91308321839283838365
:101D70008FEF481A580A680A780A3496D3CF4E89EA
:101D800040834F89F9014083288DFC012083898D90
:101D90008C93412C512C32018E899F89A88DB98D4D
:101DA000481659066A067B0680F55201AA0CBB1C30
:101DB000EC8DFD8DEA0DFB1DA081B181FD0101902F
:101DC0000020E9F731976F01CA1ADB0AA60170E01B
:101DD00060E0C701800F911F0E943A050C5F1F4F02
:101DE0008C8D9D8DA80EB91EF50160817181A601B3
:101DF000C701800F911F0E94D1190C0D1D1DFFEF0F
:101E00004F1A5F0A6F0A7F0AC7CFC801DF91CF91CF
:101E10001F910F91FF90EF90DF90CF90BF90AF9008
:101E20009F908F907F906F905F904F900895EF926A
:101E3000FF920F931F93CF93DF938C017B01DC0103
:101E400012962C911297FB012193CF011396ED91DD
:101E5000FC91EF0109900020E9F72197CE1BDF0BE1
:101E6000AE0170E060E00E943A05D80113966D91D2
:101E70007C91AE01C70105960E94D119CE0105964D
:101E8000DF91CF911F910F91FF90EF900895CF9226
:101E9000DF92EF92FF920F931F93CF93DF936C012A
:101EA000EB01DC0112968C911297888313968C912A
:101EB000139789831496ED91FC91DF010D9000201A
:101EC000E9F78D01015011090E1B1F0BA80170E0ED
:101ED00060E0CE0102960E943A05F60164817581A8
:101EE000A801CE0106960E94D119C8010696F601F6
:101EF000A681B781FD0101900020E9F731977F01AC
:101F0000EA1AFB0AA70170E060E08C0F9D1F0E9497
:101F10003A05065F1F4FD60116966D917C91A70179
:101F2000CE01800F911F0E94D1190E0D1F1DF601C9
:101F3000A085B185FD0101900020E9F731977F016F
:101F4000EA1AFB0AA70170E060E0CE01800F911F42
:101F50000E943A050C5F1F4FD60118966D917C9137
:101F6000A701CE01800F911F0E94D119C701800FD8
:101F7000911FF6016285438534852585C80FD91FD9
:101F8000688349833A832B830496DF91CF911F9115
:101F90000F91FF90EF90DF90CF9008951F920F92D6
:101FA0000FB60F9211242F933F938F939F93AF936C
:101FB000BF9380918B0390918C03A0918D03B0917E
:101FC0008E0330918A0323E0230F2D3758F50196B5
:101FD000A11DB11D20938A0380938B0390938C03E2
:101FE000A0938D03B0938E03809186039091870315
:101FF000A0918803B09189030196A11DB11D809322
:10200000860390938703A0938803B0938903BF91BD
:10201000AF919F918F913F912F910F900FBE0F9095
:102020001F90189526E8230F0296A11DB11DD2CF4F
:102030001F920F920FB60F9211242F933F934F933D
:102040005F936F937F938F939F93AF93BF93EF9320
:10205000FF93E0910401F09105010995FF91EF9143
:10206000BF91AF919F918F917F916F915F914F91B0
:102070003F912F910F900FBE0F901F9018951F92B8
:102080000F920FB60F9211242F933F934F935F93AC
:102090006F937F938F939F93AF93BF93EF93FF9330
:1020A000E0910201F09103010995FF91EF91BF9139
:1020B000AF919F918F917F916F915F914F913F91E0
:1020C0002F910F900FBE0F901F9018951F920F9297
:1020D0000FB60F9211242F933F934F935F936F93FB
:1020E0007F938F939F93AF93BF93EF93FF938FE86B
:1020F00093E00E949103FF91EF91BF91AF919F9167
:102100008F917F916F915F914F913F912F910F90A0
:102110000FBE0F901F9018951F920F920FB60F923F
:1021200011242F938F939F93EF93FF93E0919F033D
:10213000F091A0038081E091A503F091A60382FDB8
:102140001BC090818091A8038F5F8F732091A9039A
:10215000821741F0E091A803F0E0E157FC4F958F22
:102160008093A803FF91EF919F918F912F910F90F2
:102170000FBE0F901F9018958081F4CF109292039C
:102180001092910388EE93E0A0E0B0E08093930377
:1021900090939403A0939503B093960380E591E008
:1021A0009093900380938F0385EC90E090939C0331
:1021B00080939B0384EC90E090939E0380939D0317
:1021C00080EC90E09093A00380939F0381EC90E0DB
:1021D0009093A2038093A10382EC90E09093A403D8
:1021E0008093A30386EC90E09093A6038093A503CD
:1021F0001092A8031092A9031092AA031092AB03A5
:1022000086E891E090937104809370048FE893E0E6
:10221000909373048093720480E091EEA0E0B0E0AC
:102220008093740490937504A0937604B09377041C
:10223000109226078AE791E0909335078093340740
:1022400010924A0710924B0710924C0710924D07BC
:102250001092510710925007E8EBF6E0119211929C
:1022600086E0EA3EF807D1F7EAEEF6E01192119225
:1022700087E0EC31F807D1F7E8E8F4E080EA95E090
:1022800011928E179F07E1F7E0EAF5E0119286E0E0
:10229000E83BF807D9F710923607109237071092EB
:1022A00038071092390710923F0710923E0710929C
:1022B0004007109241071092420710924307109274
:1022C00049071092480710928404109285041092D6
:1022D0008604109287048CE991E090936D048093BA
:1022E0006C0410926F0410926E0427E333E0309375
:1022F0006304209362042CE634E030936504209359
:10230000640410926B0410926A0490935F048093AB
:102310005E04109261041092600483E493E0909351
:102320005504809354048EE594E090935704809371
:10233000560410925D0410925C0480E991E0909341
:102340002D0480932C048EE691E0909333048093C7
:10235000320482E691E09093350480933404109225
:1023600036041092370410923804109239041092F7
:102370003A0410923B0410923C0410923D041092D7
:102380003E0410923F041092400410924104909336
:102390004304809342041092440410924504109226
:1023A0004604109247041092480410924904109277
:1023B0004A0410924B0410924C0410924D04109257
:1023C0004E0410924F0481EB91E09093510480935E
:1023D000500481E090E090935304809352048EE483
:1023E00093E090933104809330040895789484B5F9
:1023F000826084BD84B5816084BD85B5826085BD01
:1024000085B5816085BD80916E00816080936E008E
:102410001092810080918100826080938100809180
:102420008100816080938100809180008160809331
:1024300080008091B10084608093B1008091B000F1
:1024400081608093B00080917A00846080937A00EC
:1024500080917A00826080937A0080917A00816016
:1024600080937A0080917A00806880937A0010923D
:10247000C10062E083E00E940C0160E085E00E9400
:102480000C0162E082E00E940C0160E084E00E94A6
:102490000C0180E495E09093050180930401809104
:1024A00069008C6080936900E99A89E695E09093D1
:1024B0000301809302018091690083608093690029
:1024C000E89A61E08BE00E940C0161E086E00E94E6
:1024D0000C0161E089E00E940C0161E08AE00E9449
:1024E0000C0161E087E00E940C0161E088E00E943D
:1024F0000C0160E089E00E94DE0060E08AE00E945A
:10250000DE0060E087E00E94DE0060E088E00E947C
:10251000DE0070E060E08BE00E94480170E060E067
:1025200086E00E94480180E091EEA0E0B0E0809358
:10253000740490937504A0937604B0937704E091AB
:102540007204F0917304A089B18982E08C93A08910
:10255000B1891C92A485B5851C92A685B78580E1BA
:102560008C93108EA489B58986E08C93A289B38957
:102570008C9180618C93A289B3898C9188608C93B3
:10258000A289B3898C9180688C930288F389E02DAD
:1025900080818F7D808310921D0710921C071092FE
:1025A0001F0710921E071092230710922207109205
:1025B000210710922007A8EBB6E0FD0190E080E033
:1025C00021913191232B09F025C3FC01EE0FFF1F50
:1025D000E854F94F22E634E03183208383589F4F3B
:1025E000909367048093660480E794E09093690475
:1025F0008093680490E080E02D913D91232B09F0B9
:102600000FC3FC01EE0FFF1FE854F94F24E534E03F
:102610003183208383589F4F9093590480935804AB
:1026200080E794E090935B0480935A04EAEEF6E02E
:1026300090E080E021913191232B09F0F7C2FC0159
:10264000EE0FFF1FE651F94F2CE234E03183208377
:102650008C599F4F90932F0480932E0488EEC82EA0
:1026600083E0D82EE12CF12C90E0292E90E0392E39
:1026700080E794E00E94D20A0E94A50100918203A3
:102680001091830320918403309185034B015C01F9
:10269000801A910AA20AB30A950184010F3111052B
:1026A000210531050CF40CC1609382037093830300
:1026B000809384039093850380915A0490915B04E6
:1026C0006091580470915904DC01ED91FC910190E6
:1026D000F081E02D4EE554E00995809168049091D9
:1026E00069046091660470916704DC01ED91FC91CE
:1026F0000190F081E02D4CE654E0099560916E0464
:1027000070916F04072E000C880B990B61507109B2
:102710008F4F9F4F0091620310916303012E000CB5
:10272000220B330B601B710B820B930B2FEF3FEFD0
:1027300040E050E00E948316EB01613177420CF0DB
:1027400021960E94A5012B013C01BE01DD0F880BE3
:10275000990B0E94F21720E030E045E755E40E9413
:1027600048174B015C01C301B201A70196010E9409
:102770006116CA01B9010E94F01720915E033091E1
:102780005F0340916003509161030E94D6169B0144
:10279000AC01C501B4010E94481760936C037093AB
:1027A0006D0380936E0390936F0380916E049091FC
:1027B0006F0490936303809362030E94A501A701B5
:1027C00096010E946116CA01B9010E94F017609338
:1027D0005E0370935F038093600390936103609145
:1027E000600470916104072E000C880B990B6150F6
:1027F00071098F4F9F4F0091680310916903012E5B
:10280000000C220B330B601B710B820B930B2FEF11
:102810003FEF40E050E00E948316EB0161317742C8
:102820000CF021960E94A5012B013C01BE01DD0F99
:10283000880B990B0E94F21720E030E045E755E441
:102840000E9448174B015C01C301B201A701960128
:102850000E946116CA01B9010E94F0172091640319
:102860003091650340916603509167030E94D6162C
:102870009B01AC01C501B4010E944817609372032B
:102880007093730380937403909375038091600435
:102890009091610490936903809368030E94A5015D
:1028A000A70196010E946116CA01B9010E94F017A2
:1028B000609364037093650380936603909367034A
:1028C0000E94A501A70196010E946116CA01B901E3
:1028D0000E94F01720917E0330917F034091800386
:1028E000509181030E94D61620E030E040E85FE37B
:1028F0000E94A218181684F410927A0310927B0397
:1029000010927C0310927D0310927603109277034D
:10291000109278031092790320917203309173031F
:10292000409174035091750360917A0370917B0319
:1029300080917C0390917D030E94A71820E030E0F5
:10294000A9010E94431787FF06C0809170039091F0
:102950007103892BF9F420916C0330916D03409140
:102960006E0350916F0360917603709177038091AD
:102970007803909179030E94A71820E030E0A90124
:102980000E94431787FF16C080916A0390916B03E2
:10299000892B81F010927A0310927B0310927C03B2
:1029A00010927D03109276031092770310927803B1
:1029B0001092790380907A0390907B03A0907C031F
:1029C000B0907D0320E030E0A901C501B4010E9470
:1029D000A21861E018160CF42FC120E030E0A90124
:1029E000C501B4010E94431760E087FF25C189E05B
:1029F0000E94DE0061E08AE00E94DE0080907603A3
:102A000090907703A0907803B090790300916A03C7
:102A100010916B0320E030E0A901C501B4010E94D0
:102A2000A21861E018160CF40CC120E030E0A901F6
:102A3000C501B4010E94431760E087FF02C187E02F
:102A40000E94DE0061E088E00E94DE0040907A0390
:102A500050907B0360907C0370907D0320E030E019
:102A6000A901C301B2010E9443178823F9F020E0B5
:102A700030E0A90160917203709173038091740337
:102A8000909175030E944317811110C020E030E03F
:102A900040EC5FE3C301B2010E94A71860937A0380
:102AA00070937B0380937C0390937D0320E030E060
:102AB000A901C501B4010E9443178823F9F020E061
:102AC00030E0A90160916C0370916D0380916E03F9
:102AD00090916F030E944317811110C020E030E0F5
:102AE00040EC5FE3C501B4010E94A7186093760330
:102AF00070937703809378039093790380907A039F
:102B000090907B03A0907C03B0907D0320E030E0A8
:102B1000A901C501B4010E94A218181624F0B7FA41
:102B2000B094B7F8B094C0917003D0917103BE0116
:102B30000D2E000C880B990B0E94F2172B013C0103
:102B4000A50194010E94431787FF80C02196D0936E
:102B50007103C09370038090760390907703A090E8
:102B60007803B090790320E030E0A901C501B401F9
:102B70000E94A218181624F0B7FAB094B7F8B094CF
:102B8000B801012E000C880B990B0E94F2172B0143
:102B90003C01A50194010E94431787FF62C00F5FAB
:102BA0001F4F10936B0300936A03C0916A03D09187
:102BB0006B03C739D10514F0C6E9D0E0609170030A
:102BC000709171036739710514F066E970E077FF61
:102BD00002C070E060E07093710360937003D7FFF0
:102BE00002C0D0E0C0E0D0936B03C0936A038BE0D7
:102BF0000E944801BE0186E00E9448012114310470
:102C000009F436CD0E947D03882309F431CD0E945A
:102C100000002ECD01968931910509F0D1CCEACC86
:102C200001968931910509F0E7CC00CD01968931F3
:102C3000910509F0FFCC12CD89E00E94DE0060E032
:102C4000DACE87E00E94DE0060E0FDCEA5019401AF
:102C5000C301B2010E94A21818160CF07CCF219774
:102C600076CFA5019401C301B2010E94A2181816E3
:102C70000CF09BCF0150110994CFDB018F939F93F0
:102C80000E94A216BF91AF91A29F800D911DA39F9C
:102C9000900DB29F900D1124089597FB072E16F406
:102CA000009407D077FD09D00E94AD1607FC05D02F
:102CB0003EF4909581959F4F0895709561957F4F53
:102CC0000895A1E21A2EAA1BBB1BFD010DC0AA1F6D
:102CD000BB1FEE1FFF1FA217B307E407F50720F085
:102CE000A21BB30BE40BF50B661F771F881F991F00
:102CF0001A9469F760957095809590959B01AC0149
:102D0000BD01CF010895052E97FB1EF400940E948B
:102D10009A1657FD07D00E94611607FC03D04EF4A7
:102D20000C949A1650954095309521953F4F4F4FF2
:102D30005F4F089590958095709561957F4F8F4F67
:102D40009F4F08950E94C716A59F900DB49F900DA8
:102D5000A49F800D911D11240895AA1BBB1B51E156
:102D600007C0AA1FBB1FA617B70710F0A61BB70BFB
:102D7000881F991F5A95A9F780959095BC01CD01A0
:102D80000895EE0FFF1F0590F491E02D0994A29F86
:102D9000B001B39FC001A39F700D811D1124911D2F
:102DA000B29F700D811D1124911D08955058BB27AD
:102DB000AA270E94EE160C9468180E945A1838F040
:102DC0000E94611820F039F49F3F19F426F40C9406
:102DD00057180EF4E095E7FB0C945118E92F0E9468
:102DE000791858F3BA17620773078407950720F01C
:102DF00079F4A6F50C949B180EF4E0950B2EBA2FDF
:102E0000A02D0B01B90190010C01CA01A0011124F0
:102E1000FF27591B99F0593F50F4503E68F11A169C
:102E2000F040A22F232F342F4427585FF3CF46952D
:102E300037952795A795F0405395C9F77EF41F164F
:102E4000BA0B620B730B840BBAF09150A1F0FF0F19
:102E5000BB1F661F771F881FC2F70EC0BA0F621F05
:102E6000731F841F48F4879577956795B795F795F5
:102E70009E3F08F0B0CF9395880F08F09927EE0F8A
:102E80009795879508950E942D1808F481E008957C
:102E90000E945C170C9468180E94611858F00E94F8
:102EA0005A1840F029F45F3F29F00C945118511141
:102EB0000C949C180C9457180E94791868F3992365
:102EC000B1F3552391F3951B550BBB27AA27621726
:102ED0007307840738F09F5F5F4F220F331F441F33
:102EE000AA1FA9F335D00E2E3AF0E0E832D0915067
:102EF0005040E695001CCAF72BD0FE2F29D0660F54
:102F0000771F881FBB1F261737074807AB07B0E896
:102F100009F0BB0B802DBF01FF2793585F4F3AF09C
:102F20009E3F510578F00C9451180C949C185F3F0B
:102F3000E4F3983ED4F3869577956795B795F79522
:102F40009F5FC9F7880F911D9695879597F908950A
:102F5000E1E0660F771F881FBB1F621773078407A6
:102F6000BA0720F0621B730B840BBA0BEE1F88F7B5
:102F7000E09508950E94C1176894B1110C949C18B3
:102F800008950E94811888F09F5798F0B92F9927CB
:102F9000B751B0F0E1F0660F771F881F991F1AF044
:102FA000BA95C9F714C0B13091F00E949B18B1E0F6
:102FB00008950C949B18672F782F8827B85F39F0F5
:102FC000B93FCCF3869577956795B395D9F73EF4DD
:102FD00090958095709561957F4F8F4F9F4F089585
:102FE000E89409C097FB3EF49095809570956195A3
:102FF0007F4F8F4F9F4F9923A9F0F92F96E9BB2759
:103000009395F695879577956795B795F111F8CFD4
:10301000FAF4BB0F11F460FF1BC06F5F7F4F8F4F3F
:103020009F4F16C0882311F096E911C0772321F035
:103030009EE8872F762F05C0662371F096E8862FCD
:1030400070E060E02AF09A95660F771F881FDAF724
:10305000880F9695879597F90895990F0008550F51
:10306000AA0BE0E8FEEF16161706E807F907C0F00E
:1030700012161306E407F50798F0621B730B840B16
:10308000950B39F40A2661F0232B242B252B21F4F0
:1030900008950A2609F4A140A6958FEF811D811D90
:1030A000089597F99F6780E870E060E008959FEFCA
:1030B00080EC089500240A941616170618060906CF
:1030C000089500240A94121613061406050608959E
:1030D000092E0394000C11F4882352F0BB0F40F426
:1030E000BF2B11F460FF04C06F5F7F4F8F4F9F4F66
:1030F000089557FD9058440F551F59F05F3F71F0E8
:103100004795880F97FB991F61F09F3F79F087954E
:103110000895121613061406551FF2CF4695F1DFD7
:1031200008C0161617061806991FF1CF8695710567
:10313000610508940895E894BB2766277727CB019B
:1031400097F908950E942D1808F48FEF08950E94B2
:10315000BA180C9468180E945A1838F00E94611826
:1031600020F0952311F00C9451180C945718112449
:103170000C949C180E94791870F3959FC1F3950FD9
:1031800050E0551F629FF001729FBB27F00DB11DEB
:10319000639FAA27F00DB11DAA1F649F6627B00D7B
:1031A000A11D661F829F2227B00DA11D621F739F64
:1031B000B00DA11D621F839FA00D611D221F749F72
:1031C0003327A00D611D231F849F600D211D822FB9
:1031D000762F6A2F11249F5750409AF0F1F08823E0
:1031E0004AF0EE0FFF1FBB1F661F771F881F91500D
:1031F0005040A9F79E3F510580F00C9451180C9453
:103200009C185F3FE4F3983ED4F3869577956795D5
:10321000B795F795E7959F5FC1F7FE2B880F911D36
:103220009695879597F90895B0E0A0E0EAE1F9E175
:103230000C94011B8C01009751F4CB010E94DA1908
:103240008C01C801CDB7DEB7E0E10C941D1BFC0179
:10325000E60FF71F9C0122503109E217F30708F42B
:103260009DC0D901CD91DC911197C617D70798F071
:10327000C530D10530F3CE0104978617970708F3C0
:10328000C61BD70B2297C193D1936D937C93CF012B
:103290000E94761AD6CF5B01AC1ABD0A4C018C0E87
:1032A0009D1EA0915407B0915507512C412CF12C33
:1032B000E12C109731F580915207909153078815B2
:1032C000990509F05CC04616570608F058C0809171
:1032D000060190910701009741F48DB79EB7409188
:1032E0000A0150910B01841B950BE817F90708F0B0
:1032F00055C0F0935307E0935207F901718360833F
:10330000A0CF8D919C91119712966C901297139665
:103310007C901397A815B90559F56C0142E0C40ECD
:10332000D11CCA14DB0420F1AC014A195B09DA0193
:103330001296159780F06282738251834083D9017F
:103340006D937C93E114F10471F0D7011396FC9313
:10335000EE93129776CF22968C0F9D1FF9019183E1
:103360008083F301EFCFF0935507E093540769CFC3
:103370004816590608F42C017D01D3019ACFCB01E0
:103380000E94DA197C01009749F0AE01B8010E9451
:10339000D119C8010E94761A870153CF10E000E0CE
:1033A00050CFFB01DC0102C001900D924150504012
:1033B000D8F708950F931F93CF93DF938230910531
:1033C00010F482E090E0E0915407F091550730E06E
:1033D00020E0B0E0A0E0309799F42115310509F420
:1033E0004AC0281B390B24303105D8F58A819B81CE
:1033F0006115710589F1FB0193838283FE0111C080
:10340000408151810281138148175907E0F0481724
:10341000590799F4109761F012960C93129713962E
:103420001C933296CF01DF91CF911F910F91089598
:103430000093540710935507F4CF2115310551F02F
:103440004217530738F0A901DB019A01BD01DF01E2
:10345000F801C1CFEF01F9CF90935507809354073E
:10346000CDCFFE01E20FF31F8193919322503109DA
:1034700039832883D7CF2091520730915307232BCC
:1034800041F42091080130910901309353072093B2
:10349000520720910601309107012115310541F4B1
:1034A0002DB73EB740910A0150910B01241B350BFB
:1034B000E0915207F0915307E217F307A0F42E1B97
:1034C0003F0B2817390778F0AC014E5F5F4F241788
:1034D000350748F04E0F5F1F509353074093520734
:1034E000819391939FCFF0E0E0E09CCFCF93DF9367
:1034F0000097E9F0FC01329713821282A0915407E1
:10350000B0915507ED0130E020E01097A1F4208143
:103510003181820F931F2091520730915307281752
:10352000390709F061C0F0935307E0935207DF9128
:10353000CF910895EA01CE17DF07E8F54A815B8154
:103540009E0141155105B1F7E901FB83EA834991D9
:103550005991C40FD51FEC17FD0761F4808191814B
:103560000296840F951FE901998388838281938154
:103570009B838A83F0E0E0E012968D919C911397F3
:103580000097B9F52D913C911197CD010296820FCC
:10359000931F20915207309153072817390739F6A6
:1035A000309751F51092550710925407B093530776
:1035B000A0935207BCCFD383C28340815181840F33
:1035C000951FC817D90761F44E5F5F4F88819981B5
:1035D000480F591F518340838A819B819383828343
:1035E0002115310509F0B0CFF0935507E09354074A
:1035F0009ECFFD01DC01C0CF13821282D7CF2F9264
:103600003F924F925F926F927F928F929F92AF9272
:10361000BF92CF92DF92EF92FF920F931F93CF93BF
:10362000DF93CDB7DEB7CA1BDB0B0FB6F894DEBF56
:103630000FBECDBF09942A88398848885F846E847C
:103640007D848C849B84AA84B984C884DF80EE80C6
:10365000FD800C811B81AA81B981CE0FD11D0FB6CF
:10366000F894DEBF0FBECDBFED010895F894FFCFF3
:10367000010112031203000056078000726F73737A
:10368000657269616C5F6D7367732F5265717565E3
:103690007374506172616D0000000000470F1806DE
:1036A000150612060000000055070F070C07090752
:1036B00000000000170FBC05B905B60500000000AA
:1036C000B30313034003000471034F0363030000BB
:1036D000000003092E08950592050000000033093B
:1036E00058082804250400000000340E4F09B305D3
:1036F000B005000000002F04D20A200400000000E2
:1037000074082B042804250400000000A7059E056A
:103710009B0598053966313935663838313234368B
:103720006664666132373938643164336565626373
:10373000613834610067656F6D657472795F6D73B0
:1037400067732F5477697374004D65737361676590
:103750002066726F6D206465766963652064726FA0
:10376000707065643A206D657373616765206C6184
:1037700072676572207468616E2062756666657234
:103780002E003461383432623635663431333038A5
:10379000346463326231306662343834656137666E
:1037A00031370067656F6D657472795F6D7367732C
:1037B0002F566563746F72330038353234353836BE
:1037C000653334666264376362316330386335660B
:1037D000356631636130653537007374645F6D73CE
:1037E00067732F496E743136003966306539386237
:1037F0006461363539383139383664646635336159
:103800006661376134306534390031316162643763
:1038100033316332353933333236316364363138DC
:103820003362643132643632393500726F737365D6
:103830007269616C5F6D7367732F4C6F67003061E5
:103840006435316638386663343438393266386303
:103850003130363834303737363436303035007220
:103860006F7373657269616C5F6D7367732F546FEB
:10387000706963496E666F0063643731363663374B
:103880003463353532633331316662636332666582
:103890003561376263323839007374645F6D736702
:1038A000732F54696D650072696768745F7469632A
:1038B0006B73006C6566745F7469636B7300636D32
:0638C000645F76656C00F8
:00000001FF
